{
  "contractName": "ConstantFlowAgreementV1",
  "abi": [
    {
      "anonymous": false,
      "inputs": [
        {
          "indexed": true,
          "internalType": "contract ISuperToken",
          "name": "token",
          "type": "address"
        },
        {
          "indexed": true,
          "internalType": "address",
          "name": "sender",
          "type": "address"
        },
        {
          "indexed": true,
          "internalType": "address",
          "name": "receiver",
          "type": "address"
        },
        {
          "indexed": false,
          "internalType": "int96",
          "name": "flowRate",
          "type": "int96"
        },
        {
          "indexed": false,
          "internalType": "int256",
          "name": "totalSenderFlowRate",
          "type": "int256"
        },
        {
          "indexed": false,
          "internalType": "int256",
          "name": "totalReceiverFlowRate",
          "type": "int256"
        }
      ],
      "name": "FlowUpdated",
      "type": "event"
    },
    {
      "inputs": [],
      "name": "agreementType",
      "outputs": [
        {
          "internalType": "bytes32",
          "name": "",
          "type": "bytes32"
        }
      ],
      "stateMutability": "pure",
      "type": "function"
    },
    {
      "inputs": [
        {
          "internalType": "contract ISuperToken",
          "name": "token",
          "type": "address"
        },
        {
          "internalType": "address",
          "name": "account",
          "type": "address"
        },
        {
          "internalType": "uint256",
          "name": "time",
          "type": "uint256"
        }
      ],
      "name": "realtimeBalanceOf",
      "outputs": [
        {
          "internalType": "int256",
          "name": "dynamicBalance",
          "type": "int256"
        },
        {
          "internalType": "uint256",
          "name": "deposit",
          "type": "uint256"
        },
        {
          "internalType": "uint256",
          "name": "owedDeposit",
          "type": "uint256"
        }
      ],
      "stateMutability": "view",
      "type": "function"
    },
    {
      "inputs": [
        {
          "internalType": "contract ISuperToken",
          "name": "token",
          "type": "address"
        },
        {
          "internalType": "address",
          "name": "receiver",
          "type": "address"
        },
        {
          "internalType": "int96",
          "name": "flowRate",
          "type": "int96"
        },
        {
          "internalType": "bytes",
          "name": "ctx",
          "type": "bytes"
        }
      ],
      "name": "createFlow",
      "outputs": [
        {
          "internalType": "bytes",
          "name": "newCtx",
          "type": "bytes"
        }
      ],
      "stateMutability": "nonpayable",
      "type": "function"
    },
    {
      "inputs": [
        {
          "internalType": "contract ISuperToken",
          "name": "token",
          "type": "address"
        },
        {
          "internalType": "address",
          "name": "receiver",
          "type": "address"
        },
        {
          "internalType": "int96",
          "name": "flowRate",
          "type": "int96"
        },
        {
          "internalType": "bytes",
          "name": "ctx",
          "type": "bytes"
        }
      ],
      "name": "updateFlow",
      "outputs": [
        {
          "internalType": "bytes",
          "name": "newCtx",
          "type": "bytes"
        }
      ],
      "stateMutability": "nonpayable",
      "type": "function"
    },
    {
      "inputs": [
        {
          "internalType": "contract ISuperToken",
          "name": "token",
          "type": "address"
        },
        {
          "internalType": "address",
          "name": "sender",
          "type": "address"
        },
        {
          "internalType": "address",
          "name": "receiver",
          "type": "address"
        },
        {
          "internalType": "bytes",
          "name": "ctx",
          "type": "bytes"
        }
      ],
      "name": "deleteFlow",
      "outputs": [
        {
          "internalType": "bytes",
          "name": "newCtx",
          "type": "bytes"
        }
      ],
      "stateMutability": "nonpayable",
      "type": "function"
    },
    {
      "inputs": [
        {
          "internalType": "contract ISuperToken",
          "name": "token",
          "type": "address"
        },
        {
          "internalType": "address",
          "name": "sender",
          "type": "address"
        },
        {
          "internalType": "address",
          "name": "receiver",
          "type": "address"
        }
      ],
      "name": "getFlow",
      "outputs": [
        {
          "internalType": "uint256",
          "name": "timestamp",
          "type": "uint256"
        },
        {
          "internalType": "int96",
          "name": "flowRate",
          "type": "int96"
        },
        {
          "internalType": "uint256",
          "name": "deposit",
          "type": "uint256"
        },
        {
          "internalType": "uint256",
          "name": "owedDeposit",
          "type": "uint256"
        }
      ],
      "stateMutability": "view",
      "type": "function"
    },
    {
      "inputs": [
        {
          "internalType": "contract ISuperToken",
          "name": "token",
          "type": "address"
        },
        {
          "internalType": "bytes32",
          "name": "flowId",
          "type": "bytes32"
        }
      ],
      "name": "getFlowByID",
      "outputs": [
        {
          "internalType": "uint256",
          "name": "timestamp",
          "type": "uint256"
        },
        {
          "internalType": "int96",
          "name": "flowRate",
          "type": "int96"
        },
        {
          "internalType": "uint256",
          "name": "deposit",
          "type": "uint256"
        },
        {
          "internalType": "uint256",
          "name": "owedDeposit",
          "type": "uint256"
        }
      ],
      "stateMutability": "view",
      "type": "function"
    },
    {
      "inputs": [
        {
          "internalType": "contract ISuperToken",
          "name": "token",
          "type": "address"
        },
        {
          "internalType": "address",
          "name": "account",
          "type": "address"
        }
      ],
      "name": "getNetFlow",
      "outputs": [
        {
          "internalType": "int96",
          "name": "flowRate",
          "type": "int96"
        }
      ],
      "stateMutability": "view",
      "type": "function"
    }
  ],
  "bytecode": "0x608060405234801561001057600080fd5b50612b05806100206000396000f3fe608060405234801561001057600080fd5b50600436106100885760003560e01c8063aabd26681161005b578063aabd266814610292578063b4b333c6146102e7578063e6a1e88814610376578063e8e7e2d1146103ae57610088565b806350209a621461008d57806362fc305e146101935780637730599e146102245780639b2e48bc1461023e575b600080fd5b61011e600480360360808110156100a357600080fd5b6001600160a01b0382358116926020810135909116916040820135600b0b9190810190608081016060820135600160201b8111156100e057600080fd5b8201836020820111156100f257600080fd5b803590602001918460018302840111600160201b8311171561011357600080fd5b5090925090506103f3565b6040805160208082528351818301528351919283929083019185019080838360005b83811015610158578181015183820152602001610140565b50505050905090810190601f1680156101855780820380516001836020036101000a031916815260200191505b509250505060405180910390f35b61011e600480360360808110156101a957600080fd5b6001600160a01b0382358116926020810135909116916040820135600b0b9190810190608081016060820135600160201b8111156101e657600080fd5b8201836020820111156101f857600080fd5b803590602001918460018302840111600160201b8311171561021957600080fd5b509092509050610713565b61022c610a52565b60408051918252519081900360200190f35b6102746004803603606081101561025457600080fd5b506001600160a01b03813581169160208101359091169060400135610a76565b60408051938452602084019290925282820152519081900360600190f35b6102be600480360360408110156102a857600080fd5b506001600160a01b038135169060200135610ad4565b60408051948552600b9390930b6020850152838301919091526060830152519081900360800190f35b61011e600480360360808110156102fd57600080fd5b6001600160a01b0382358116926020810135821692604082013590921691810190608081016060820135600160201b81111561033857600080fd5b82018360208201111561034a57600080fd5b803590602001918460018302840111600160201b8311171561036b57600080fd5b509092509050610b10565b6102be6004803603606081101561038c57600080fd5b506001600160a01b038135811691602081013582169160409091013516610d9b565b6103dc600480360360408110156103c457600080fd5b506001600160a01b0381358116916020013516610e1e565b60408051600b9290920b8252519081900360200190f35b6060336001600160a01b0316866001600160a01b03166320bc44256040518163ffffffff1660e01b815260040160206040518083038186803b15801561043857600080fd5b505afa15801561044c573d6000803e3d6000fd5b505050506040513d602081101561046257600080fd5b50516001600160a01b0316146104b0576040805162461bcd60e51b815260206004820152600e60248201526d139bdd0814dd5c195c999b1d5a5960921b604482015290519081900360640190fd5b6104b8612970565b6104f83385858080601f016020809104026020016040519081016040528093929190818152602001838380828437600092019190915250610e4192505050565b9050600061050a826020015188610f55565b90506105168882611039565b1561055d576040805162461bcd60e51b8152602060048201526012602482015271119b1bddc8191bd95cdb89dd08195e1a5cdd60721b604482015290519081900360640190fd5b60408051631e51d6a760e11b81526001600160a01b038916600482015290513391633ca3ad4e916024808301926020929190829003018186803b1580156105a357600080fd5b505afa1580156105b7573d6000803e3d6000fd5b505050506040513d60208110156105cd57600080fd5b5051156106f157606061061c338a88888080601f0160208091040260200160405190810160405280939291908181526020018383808284376000920191909152503092508e9150889050611050565b94509050600061062a6129a4565b61063d8b8587602001518d8d600061107e565b925050915061064e33878c85611405565b955061065f338c88308e89896114ed565b9550610669612970565b6106733388610e41565b90508560400151600014801561068b57506060860151155b156106a65760608082015160408401526000908301526106cb565b604080830184905286015183106106c357856040015183036106c5565b825b60608301525b6106db8c83836020015188611518565b6106e63388836116b4565b965050505050610708565b610704888284602001518a8a600161107e565b5050505b505095945050505050565b6060336001600160a01b0316866001600160a01b03166320bc44256040518163ffffffff1660e01b815260040160206040518083038186803b15801561075857600080fd5b505afa15801561076c573d6000803e3d6000fd5b505050506040513d602081101561078257600080fd5b50516001600160a01b0316146107d0576040805162461bcd60e51b815260206004820152600e60248201526d139bdd0814dd5c195c999b1d5a5960921b604482015290519081900360640190fd5b6107d8612970565b6108183385858080601f016020809104026020016040519081016040528093929190818152602001838380828437600092019190915250610e4192505050565b9050600061082a826020015188610f55565b90506108368882611039565b61087c576040805162461bcd60e51b8152602060048201526012602482015271119b1bddc8185b1c9958591e48195e1a5cdd60721b604482015290519081900360640190fd5b60408051631e51d6a760e11b81526001600160a01b038916600482015290513391633ca3ad4e916024808301926020929190829003018186803b1580156108c257600080fd5b505afa1580156108d6573d6000803e3d6000fd5b505050506040513d60208110156108ec57600080fd5b505180610969575060208281015160408051631e51d6a760e11b81526001600160a01b039092166004830152513392633ca3ad4e9260248082019391829003018186803b15801561093c57600080fd5b505afa158015610950573d6000803e3d6000fd5b505050506040513d602081101561096657600080fd5b50515b156109f95760606109b6338a88888080601f0160208091040260200160405190810160405280939291908181526020018383808284376000920191909152503092508e9150889050611879565b9450905060006109c46129a4565b6109d78b8587602001518d8d600061107e565b92505091506109e833878c85611405565b955061065f338c88308e8989611897565b610a0c888284602001518a8a600161107e565b50505084848080601f016020809104026020016040519081016040528093929190818152602001838380828437600092019190915250929b9a5050505050505050505050565b7fa9214cc96615e0085d3bb077758db69497dc2dce3b2b1e97bc93c3d18d83efd390565b600080600080610a846129a4565b610a8e88886118b6565b915091508115610ac95760208101518151610ab891600b0b90610ab2908990611a5b565b90611ac7565b945080604001519350806060015192505b505093509350939050565b600080600080610ae26129a4565b610aec8787611b70565b805160208201516040830151606090930151919b909a509198509650945050505050565b6060336001600160a01b0316866001600160a01b03166320bc44256040518163ffffffff1660e01b815260040160206040518083038186803b158015610b5557600080fd5b505afa158015610b69573d6000803e3d6000fd5b505050506040513d6020811015610b7f57600080fd5b50516001600160a01b031614610bcd576040805162461bcd60e51b815260206004820152600e60248201526d139bdd0814dd5c195c999b1d5a5960921b604482015290519081900360640190fd5b6000610c0f3385858080601f016020809104026020016040519081016040528093929190818152602001838380828437600092019190915250610e4192505050565b6020015190506000610c218787610f55565b90506000876001600160a01b0316836001600160a01b031614158015610c595750866001600160a01b0316836001600160a01b031614155b90508015610d1557886001600160a01b0316638fb4c995896040518263ffffffff1660e01b815260040180826001600160a01b0316815260200191505060206040518083038186803b158015610cae57600080fd5b505afa158015610cc2573d6000803e3d6000fd5b505050506040513d6020811015610cd857600080fd5b5051610d155760405162461bcd60e51b8152600401808060200182810382526021815260200180612aaf6021913960400191505060405180910390fd5b6060610d5d338b89898080601f0160208091040260200160405190810160405280939291908181526020018383808284376000920191909152503092508e9150899050611bd2565b95509050610d6e8a858b8b86611bf1565b50610d7c33868a6000611405565b9450610d8d338b87308c8887611de9565b9a9950505050505050505050565b600080600080610da96129a4565b610df988888860405160200180836001600160a01b031660601b8152601401826001600160a01b031660601b81526014019250505060405160208183030381529060405280519060200120611b70565b805160208201516040830151606090930151919c909b50919950975095505050505050565b6000610e286129a4565b610e3284846118b6565b60200151925050505b92915050565b610e49612970565b604051631fb6491d60e11b81526020600482018181528451602484015284516001600160a01b03871693633f6c923a9387939283926044019185019080838360005b83811015610ea3578181015183820152602001610e8b565b50505050905090810190601f168015610ed05780820380516001836020036101000a031916815260200191505b509250505060a06040518083038186803b158015610eed57600080fd5b505afa158015610f01573d6000803e3d6000fd5b505050506040513d60a0811015610f1757600080fd5b5060208082015160408084015160608086015160809096015190870152908501939093526001600160a01b039092169083015260ff16815292915050565b60006001600160a01b038316610fa3576040805162461bcd60e51b815260206004820152600e60248201526d53656e646572206973207a65726f60901b604482015290519081900360640190fd5b6001600160a01b038216610ff1576040805162461bcd60e51b815260206004820152601060248201526f5265636569766572206973207a65726f60801b604482015290519081900360640190fd5b50604080516bffffffffffffffffffffffff19606094851b81166020808401919091529390941b90931660348401528051602881850301815260489093019052815191012090565b6000806110468484611b70565b5015949350505050565b60608061106f6305b3926760e31b6404000000008a8a8a8a8a8a611e08565b91509150965096945050505050565b6000806110896129a4565b856001600160a01b0316876001600160a01b031614156110da5760405162461bcd60e51b8152600401808060200182810382526024815260200180612a136024913960400191505060405180910390fd5b84600b0b60001415611133576040805162461bcd60e51b815260206004820152601e60248201527f466c6f7741677265656d656e743a207573652064656c65746520666c6f770000604482015290519081900360640190fd5b600085600b0b136111755760405162461bcd60e51b815260040180806020018281038252602d815260200180612a37602d913960400191505060405180910390fd5b61117d6129a4565b6111878a8a611b70565b9150506111978a87600b0b612248565b935084156112645760008a6001600160a01b031663eb3537cc8a426040518363ffffffff1660e01b815260040180836001600160a01b031681526020018281526020019250505060606040518083038186803b1580156111f657600080fd5b505afa15801561120a573d6000803e3d6000fd5b505050506040513d606081101561122057600080fd5b505190508481136112625760405162461bcd60e51b81526004018080602001828103825260218152602001806129f26021913960400191505060405180910390fd5b505b604051806080016040528042815260200187600b0b81526020018661128a57600061128c565b855b815260200160008152509150896001600160a01b03166312a6a3f88a6112b1856122dc565b6040518363ffffffff1660e01b81526004018083815260200180602001828103825283818151815260200191508051906020019060200280838360005b838110156113065781810151838201526020016112ee565b505050509050019350505050600060405180830381600087803b15801561132c57600080fd5b505af1158015611340573d6000803e3d6000fd5b50505050600061136c8b8a84602001518a0360000389611361576000611363565b885b60006001612350565b905060006113868c8a85602001518b036000806001612350565b9050886001600160a01b03168a6001600160a01b03168d6001600160a01b03167faf1e675078c9d2b1ccdeb021c1d7edf896c0686ee7ce98db1d9cce5009babbb88b86866040518084600b0b815260200183600b0b815260200182600b0b8152602001935050505060405180910390a450505096509650969350505050565b6060816114135750826114e5565b61141b612970565b6114258686610e41565b90506000866001600160a01b03166313349046866040518263ffffffff1660e01b815260040180826001600160a01b0316815260200191505060206040518083038186803b15801561147657600080fd5b505afa15801561148a573d6000803e3d6000fd5b505050506040513d60208110156114a057600080fd5b5051604083015160ff909116915084116114ba57836114c2565b816040015184035b606083018051909101905280840260408301526114e08787846116b4565b925050505b949350505050565b606061150c636d1ba08f60e11b6408000000008a8a8a8a8a8a8a612505565b98975050505050505050565b836001600160a01b031663a1b2bf8b82611531866122dc565b6040518363ffffffff1660e01b81526004018083815260200180602001828103825283818151815260200191508051906020019060200280838360005b8381101561158657818101518382015260200161156e565b505050509050019350505050600060405180830381600087803b1580156115ac57600080fd5b505af11580156115c0573d6000803e3d6000fd5b505050506000846001600160a01b031663eb3537cc84426040518363ffffffff1660e01b815260040180836001600160a01b031681526020018281526020019250505060606040518083038186803b15801561161b57600080fd5b505afa15801561162f573d6000803e3d6000fd5b505050506040513d606081101561164557600080fd5b50516040850151606086015191925090038112156116945760405162461bcd60e51b81526004018080602001828103825260218152602001806129f26021913960400191505060405180910390fd5b6116ac85846000876040015188606001516000612350565b505050505050565b6060836001600160a01b03166318a1d3de848460000151856040015186606001516040518563ffffffff1660e01b815260040180806020018560ff168152602001848152602001838152602001828103825286818151815260200191508051906020019080838360005b8381101561173657818101518382015260200161171e565b50505050905090810190601f1680156117635780820380516001836020036101000a031916815260200191505b5095505050505050600060405180830381600087803b15801561178557600080fd5b505af1158015611799573d6000803e3d6000fd5b505050506040513d6000823e601f3d908101601f1916820160405260208110156117c257600080fd5b8101908080516040519392919084600160201b8211156117e157600080fd5b9083019060208201858111156117f657600080fd5b8251600160201b81118282018810171561180f57600080fd5b82525081516020918201929091019080838360005b8381101561183c578181015183820152602001611824565b50505050905090810190601f1680156118695780820380516001836020036101000a031916815260200191505b5060405250505090509392505050565b60608061106f63bd2da4a360e01b600160201b8a8a8a8a8a8a611e08565b606061150c63d002c9a560e01b6402000000008a8a8a8a8a8a8a612505565b60006118c06129a4565b60408051634b61cc3360e01b81523060048201526001600160a01b03858116602483015260006044830181905260016064840152925160609391881692634b61cc33926084808301939192829003018186803b15801561191f57600080fd5b505afa158015611933573d6000803e3d6000fd5b505050506040513d6000823e601f3d908101601f19168201604052602081101561195c57600080fd5b8101908080516040519392919084600160201b82111561197b57600080fd5b90830190602082018581111561199057600080fd5b82518660208202830111600160201b821117156119ac57600080fd5b82525081516020918201928201910280838360005b838110156119d95781810151838201526020016119c1565b5050505090500160405250505090506000816000815181106119f757fe5b602002602001015160001c90506000811193508315611a525760e081901c83526bffffffffffffffffffffffff608082901c16600b90810b900b602084015267ffffffffffffffff604082811c821690850152811660608401525b50509250929050565b6000818303818312801590611a705750838113155b80611a855750600083128015611a8557508381135b611ac05760405162461bcd60e51b8152600401808060200182810382526024815260200180612a8b6024913960400191505060405180910390fd5b9392505050565b600082611ad657506000610e3b565b82600019148015611aea5750600160ff1b82145b15611b265760405162461bcd60e51b8152600401808060200182810382526027815260200180612a646027913960400191505060405180910390fd5b82820282848281611b3357fe5b0514611ac05760405162461bcd60e51b8152600401808060200182810382526027815260200180612a646027913960400191505060405180910390fd5b6000611b7a6129a4565b60408051636c2d9f2f60e01b8152306004820152602481018590526001604482015290516060916001600160a01b03871691636c2d9f2f91606480820192600092909190829003018186803b15801561191f57600080fd5b60608061106f630beeb46760e11b6410000000008a8a8a8a8a8a611e08565b600080611bfe8585610f55565b90506000611c0a6129a4565b611c148984611b70565b9150915081611c545760405162461bcd60e51b81526004018080602001828103825260228152602001806129d06022913960400191505060405180910390fd5b6000611c778a898460200151856040015160000386606001516000036001612350565b600b0b90506000611c958b8985602001516000036000806001612350565b600b0b90508615611d1e5760408051638960bb1960e01b81526001600160a01b038c81166004830152602482018890528b81166044830152606482018990529151918d1691638960bb199160848082019260009290919082900301818387803b158015611d0157600080fd5b505af1158015611d15573d6000803e3d6000fd5b50505050611d86565b8a6001600160a01b031663270483978660016040518363ffffffff1660e01b81526004018083815260200182815260200192505050600060405180830381600087803b158015611d6d57600080fd5b505af1158015611d81573d6000803e3d6000fd5b505050505b60408051600081526020810184905280820183905290516001600160a01b03808b16928c821692918f16917faf1e675078c9d2b1ccdeb021c1d7edf896c0686ee7ce98db1d9cce5009babbb89181900360600190a4505050505095945050505050565b606061150c63be6baf9b60e01b6420000000008a8a8a8a8a8a8a612505565b606080859050600080896001600160a01b031663f9f522f4876040518263ffffffff1660e01b815260040180826001600160a01b03168152602001915050604080518083038186803b158015611e5d57600080fd5b505afa158015611e71573d6000803e3d6000fd5b505050506040513d6040811015611e8757600080fd5b5080516020909101519092509050818015611ea25750808b16155b156122395760608c8a8a8a8960405160240180856001600160a01b0316815260200180602001846001600160a01b03168152602001838152602001828103825285818151815260200191508051906020019080838360005b83811015611f12578181015183820152602001611efa565b50505050905090810190601f168015611f3f5780820380516001836020036101000a031916815260200191505b5095505050505050604051602081830303815290604052906001600160e01b0319166020820180516001600160e01b03838183161783525050505090508a6001600160a01b031663d0197c5a88838c6040518463ffffffff1660e01b815260040180846001600160a01b031681526020018060200180602001838103835285818151815260200191508051906020019080838360005b83811015611fed578181015183820152602001611fd5565b50505050905090810190601f16801561201a5780820380516001836020036101000a031916815260200191505b50838103825284518152845160209182019186019080838360005b8381101561204d578181015183820152602001612035565b50505050905090810190601f16801561207a5780820380516001836020036101000a031916815260200191505b5095505050505050600060405180830381600087803b15801561209c57600080fd5b505af11580156120b0573d6000803e3d6000fd5b505050506040513d6000823e601f3d908101601f1916820160409081528110156120d957600080fd5b8101908080516040519392919084600160201b8211156120f857600080fd5b90830190602082018581111561210d57600080fd5b8251600160201b81118282018810171561212657600080fd5b82525081516020918201929091019080838360005b8381101561215357818101518382015260200161213b565b50505050905090810190601f1680156121805780820380516001836020036101000a031916815260200191505b5060405260200180516040519392919084600160201b8211156121a257600080fd5b9083019060208201858111156121b757600080fd5b8251600160201b8111828201881017156121d057600080fd5b82525081516020918201929091019080838360005b838110156121fd5781810151838201526020016121e5565b50505050905090810190601f16801561222a5780820380516001836020036101000a031916815260200191505b50604052509297509095505050505b50509850989650505050505050565b600080612253612904565b90506000816001600160a01b031663bf9149f2866040518263ffffffff1660e01b815260040180826001600160a01b0316815260200191505060206040518083038186803b1580156122a457600080fd5b505afa1580156122b8573d6000803e3d6000fd5b505050506040513d60208110156122ce57600080fd5b505193909302949350505050565b60408051600180825281830190925260609160208083019080368337019050509050816060015160408360400151901b608084602001516bffffffffffffffffffffffff16901b60e08560000151901b17171760001b8160008151811061233f57fe5b602002602001018181525050919050565b60008061235b6129a4565b61236589896118b6565b915091508180156123735750835b1561240f57600061239c8260200151600b0b610ab2846000015142611a5b90919063ffffffff16565b9050896001600160a01b031663cf97256d8a836040518363ffffffff1660e01b815260040180836001600160a01b0316815260200182815260200192505050600060405180830381600087803b1580156123f557600080fd5b505af1158015612409573d6000803e3d6000fd5b50505050505b6020810180518801600b90810b900b905242815260408101805187019052606081018051860190526001600160a01b03891663090c415e896000612452856122dc565b6040518463ffffffff1660e01b815260040180846001600160a01b0316815260200183815260200180602001828103825283818151815260200191508051906020019060200280838360005b838110156124b657818101518382015260200161249e565b50505050905001945050505050600060405180830381600087803b1580156124dd57600080fd5b505af11580156124f1573d6000803e3d6000fd5b505050506020015198975050505050505050565b6060600080896001600160a01b031663f9f522f4876040518263ffffffff1660e01b815260040180826001600160a01b03168152602001915050604080518083038186803b15801561255657600080fd5b505afa15801561256a573d6000803e3d6000fd5b505050506040513d604081101561258057600080fd5b508051602090910151909250905081801561259b5750808b16155b156128f15760608c8a8a8a898960405160240180866001600160a01b0316815260200180602001856001600160a01b0316815260200184815260200180602001838103835287818151815260200191508051906020019080838360005b838110156126105781810151838201526020016125f8565b50505050905090810190601f16801561263d5780820380516001836020036101000a031916815260200191505b50838103825284518152845160209182019186019080838360005b83811015612670578181015183820152602001612658565b50505050905090810190601f16801561269d5780820380516001836020036101000a031916815260200191505b50975050505050505050604051602081830303815290604052906001600160e01b0319166020820180516001600160e01b03838183161783525050505090508a6001600160a01b031663220a755788838c6040518463ffffffff1660e01b815260040180846001600160a01b031681526020018060200180602001838103835285818151815260200191508051906020019080838360005b8381101561274d578181015183820152602001612735565b50505050905090810190601f16801561277a5780820380516001836020036101000a031916815260200191505b50838103825284518152845160209182019186019080838360005b838110156127ad578181015183820152602001612795565b50505050905090810190601f1680156127da5780820380516001836020036101000a031916815260200191505b5095505050505050600060405180830381600087803b1580156127fc57600080fd5b505af1158015612810573d6000803e3d6000fd5b505050506040513d6000823e601f3d908101601f19168201604052602081101561283957600080fd5b8101908080516040519392919084600160201b82111561285857600080fd5b90830190602082018581111561286d57600080fd5b8251600160201b81118282018810171561288657600080fd5b82525081516020918201929091019080838360005b838110156128b357818101518382015260200161289b565b50505050905090810190601f1680156128e05780820380516001836020036101000a031916815260200191505b5060405250505093505050506128f7565b87925050505b9998505050505050505050565b6000336001600160a01b031663289b3c0d6040518163ffffffff1660e01b815260040160206040518083038186803b15801561293f57600080fd5b505afa158015612953573d6000803e3d6000fd5b505050506040513d602081101561296957600080fd5b5051905090565b6040518060800160405280600060ff16815260200160006001600160a01b0316815260200160008152602001600081525090565b6040518060800160405280600081526020016000600b0b81526020016000815260200160008152509056fe466c6f7741677265656d656e743a20666c6f7720646f6573206e6f742065786973744346413a206e6f7420656e6f75676820617661696c61626c652062616c616e6365466c6f7741677265656d656e743a2073656c6620666c6f77206e6f7420616c6c6f776564466c6f7741677265656d656e743a206e6567617469766520666c6f772072617465206e6f7420616c6c6f7765645369676e6564536166654d6174683a206d756c7469706c69636174696f6e206f766572666c6f775369676e6564536166654d6174683a207375627472616374696f6e206f766572666c6f77466c6f7741677265656d656e743a206163636f756e7420697320736f6c76656e74a26469706673582212206a3e263485e8449a3abbdb4fa5219f2599a4061460ccf3cb5cd39ba00064058364736f6c63430007010033",
  "immutableReferences": {},
  "sourcePath": "/home/hellwolf/Projects/superfluid/ethereum-contracts/contracts/agreements/ConstantFlowAgreementV1.sol",
  "compiler": {
    "name": "solc",
    "version": "0.7.1+commit.f4a555be.Emscripten.clang"
  },
  "schemaVersion": "3.2.5",
  "updatedAt": "2020-09-28T17:04:34.163Z",
  "devdoc": {
    "kind": "dev",
    "methods": {
      "agreementType()": {
        "details": "ISuperAgreement.agreementType implementation"
      },
      "createFlow(address,address,int96,bytes)": {
        "details": "IFlowAgreement.createFlow implementation"
      },
      "deleteFlow(address,address,address,bytes)": {
        "details": "IFlowAgreement.deleteFlow implementation"
      },
      "getFlow(address,address,address)": {
        "details": "IFlowAgreement.getFlow implementation"
      },
      "getFlowByID(address,bytes32)": {
        "details": "IFlowAgreement.getFlow implementation"
      },
      "getNetFlow(address,address)": {
        "details": "IFlowAgreement.getNetFlow implementation"
      },
      "realtimeBalanceOf(address,address,uint256)": {
        "details": "ISuperAgreement.realtimeBalanceOf implementation"
      },
      "updateFlow(address,address,int96,bytes)": {
        "details": "Update the flow rate between sender and receiver.",
        "params": {
          "flowRate": "New flow rate in amount per second. NOTE: - Only the flow sender may update the flow rate. - Even if the flow rate is zero, the flow is not deleted from the system. - Deposit amount will be adjusted accordingly. - No new gas fee is charged.",
          "receiver": "Flow receiver address.",
          "token": "Super token address."
        }
      }
    },
    "version": 1
  },
  "userdoc": {
    "kind": "user",
    "methods": {},
    "version": 1
  }
}