{
  "contractName": "InstantDistributionAgreementV1",
  "abi": [
    {
      "inputs": [],
      "name": "agreementType",
      "outputs": [
        {
          "internalType": "bytes32",
          "name": "",
          "type": "bytes32"
        }
      ],
      "stateMutability": "pure",
      "type": "function"
    },
    {
      "inputs": [
        {
          "internalType": "contract ISuperToken",
          "name": "token",
          "type": "address"
        },
        {
          "internalType": "address",
          "name": "account",
          "type": "address"
        },
        {
          "internalType": "uint256",
          "name": "",
          "type": "uint256"
        }
      ],
      "name": "realtimeBalanceOf",
      "outputs": [
        {
          "internalType": "int256",
          "name": "dynamicBalance",
          "type": "int256"
        },
        {
          "internalType": "uint256",
          "name": "deposit",
          "type": "uint256"
        },
        {
          "internalType": "uint256",
          "name": "",
          "type": "uint256"
        }
      ],
      "stateMutability": "view",
      "type": "function"
    },
    {
      "inputs": [
        {
          "internalType": "contract ISuperToken",
          "name": "token",
          "type": "address"
        },
        {
          "internalType": "uint32",
          "name": "indexId",
          "type": "uint32"
        },
        {
          "internalType": "bytes",
          "name": "ctx",
          "type": "bytes"
        }
      ],
      "name": "createIndex",
      "outputs": [
        {
          "internalType": "bytes",
          "name": "newCtx",
          "type": "bytes"
        }
      ],
      "stateMutability": "nonpayable",
      "type": "function"
    },
    {
      "inputs": [
        {
          "internalType": "contract ISuperToken",
          "name": "token",
          "type": "address"
        },
        {
          "internalType": "address",
          "name": "publisher",
          "type": "address"
        },
        {
          "internalType": "uint32",
          "name": "indexId",
          "type": "uint32"
        }
      ],
      "name": "getIndex",
      "outputs": [
        {
          "internalType": "bool",
          "name": "exist",
          "type": "bool"
        },
        {
          "internalType": "uint128",
          "name": "indexValue",
          "type": "uint128"
        },
        {
          "internalType": "uint128",
          "name": "totalUnitsApproved",
          "type": "uint128"
        },
        {
          "internalType": "uint128",
          "name": "totalUnitsPending",
          "type": "uint128"
        }
      ],
      "stateMutability": "view",
      "type": "function"
    },
    {
      "inputs": [
        {
          "internalType": "contract ISuperToken",
          "name": "token",
          "type": "address"
        },
        {
          "internalType": "uint32",
          "name": "indexId",
          "type": "uint32"
        },
        {
          "internalType": "uint128",
          "name": "indexValue",
          "type": "uint128"
        },
        {
          "internalType": "bytes",
          "name": "ctx",
          "type": "bytes"
        }
      ],
      "name": "updateIndex",
      "outputs": [
        {
          "internalType": "bytes",
          "name": "newCtx",
          "type": "bytes"
        }
      ],
      "stateMutability": "nonpayable",
      "type": "function"
    },
    {
      "inputs": [
        {
          "internalType": "contract ISuperToken",
          "name": "token",
          "type": "address"
        },
        {
          "internalType": "uint32",
          "name": "indexId",
          "type": "uint32"
        },
        {
          "internalType": "uint256",
          "name": "amount",
          "type": "uint256"
        },
        {
          "internalType": "bytes",
          "name": "ctx",
          "type": "bytes"
        }
      ],
      "name": "distribute",
      "outputs": [
        {
          "internalType": "bytes",
          "name": "newCtx",
          "type": "bytes"
        }
      ],
      "stateMutability": "nonpayable",
      "type": "function"
    },
    {
      "inputs": [
        {
          "internalType": "contract ISuperToken",
          "name": "token",
          "type": "address"
        },
        {
          "internalType": "address",
          "name": "publisher",
          "type": "address"
        },
        {
          "internalType": "uint32",
          "name": "indexId",
          "type": "uint32"
        },
        {
          "internalType": "uint256",
          "name": "amount",
          "type": "uint256"
        }
      ],
      "name": "calculateDistribution",
      "outputs": [
        {
          "internalType": "uint256",
          "name": "actualAmount",
          "type": "uint256"
        },
        {
          "internalType": "uint128",
          "name": "newIndexValue",
          "type": "uint128"
        }
      ],
      "stateMutability": "view",
      "type": "function"
    },
    {
      "inputs": [
        {
          "internalType": "contract ISuperToken",
          "name": "token",
          "type": "address"
        },
        {
          "internalType": "address",
          "name": "publisher",
          "type": "address"
        },
        {
          "internalType": "uint32",
          "name": "indexId",
          "type": "uint32"
        },
        {
          "internalType": "bytes",
          "name": "ctx",
          "type": "bytes"
        }
      ],
      "name": "approveSubscription",
      "outputs": [
        {
          "internalType": "bytes",
          "name": "newCtx",
          "type": "bytes"
        }
      ],
      "stateMutability": "nonpayable",
      "type": "function"
    },
    {
      "inputs": [
        {
          "internalType": "contract ISuperToken",
          "name": "token",
          "type": "address"
        },
        {
          "internalType": "uint32",
          "name": "indexId",
          "type": "uint32"
        },
        {
          "internalType": "address",
          "name": "subscriber",
          "type": "address"
        },
        {
          "internalType": "uint128",
          "name": "units",
          "type": "uint128"
        },
        {
          "internalType": "bytes",
          "name": "ctx",
          "type": "bytes"
        }
      ],
      "name": "updateSubscription",
      "outputs": [
        {
          "internalType": "bytes",
          "name": "newCtx",
          "type": "bytes"
        }
      ],
      "stateMutability": "nonpayable",
      "type": "function"
    },
    {
      "inputs": [
        {
          "internalType": "contract ISuperToken",
          "name": "token",
          "type": "address"
        },
        {
          "internalType": "address",
          "name": "publisher",
          "type": "address"
        },
        {
          "internalType": "uint32",
          "name": "indexId",
          "type": "uint32"
        },
        {
          "internalType": "address",
          "name": "subscriber",
          "type": "address"
        }
      ],
      "name": "getSubscription",
      "outputs": [
        {
          "internalType": "bool",
          "name": "approved",
          "type": "bool"
        },
        {
          "internalType": "uint128",
          "name": "units",
          "type": "uint128"
        },
        {
          "internalType": "uint256",
          "name": "pendingDistribution",
          "type": "uint256"
        }
      ],
      "stateMutability": "view",
      "type": "function"
    },
    {
      "inputs": [
        {
          "internalType": "contract ISuperToken",
          "name": "token",
          "type": "address"
        },
        {
          "internalType": "bytes32",
          "name": "agreementId",
          "type": "bytes32"
        }
      ],
      "name": "getSubscriptionByID",
      "outputs": [
        {
          "internalType": "address",
          "name": "publisher",
          "type": "address"
        },
        {
          "internalType": "uint32",
          "name": "indexId",
          "type": "uint32"
        },
        {
          "internalType": "bool",
          "name": "approved",
          "type": "bool"
        },
        {
          "internalType": "uint128",
          "name": "units",
          "type": "uint128"
        },
        {
          "internalType": "uint256",
          "name": "pendingDistribution",
          "type": "uint256"
        }
      ],
      "stateMutability": "view",
      "type": "function"
    },
    {
      "inputs": [
        {
          "internalType": "contract ISuperToken",
          "name": "token",
          "type": "address"
        },
        {
          "internalType": "address",
          "name": "subscriber",
          "type": "address"
        }
      ],
      "name": "listSubscriptions",
      "outputs": [
        {
          "internalType": "address[]",
          "name": "publishers",
          "type": "address[]"
        },
        {
          "internalType": "uint32[]",
          "name": "indexIds",
          "type": "uint32[]"
        },
        {
          "internalType": "uint128[]",
          "name": "unitsList",
          "type": "uint128[]"
        }
      ],
      "stateMutability": "view",
      "type": "function"
    },
    {
      "inputs": [
        {
          "internalType": "contract ISuperToken",
          "name": "token",
          "type": "address"
        },
        {
          "internalType": "address",
          "name": "publisher",
          "type": "address"
        },
        {
          "internalType": "uint32",
          "name": "indexId",
          "type": "uint32"
        },
        {
          "internalType": "address",
          "name": "subscriber",
          "type": "address"
        },
        {
          "internalType": "bytes",
          "name": "ctx",
          "type": "bytes"
        }
      ],
      "name": "deleteSubscription",
      "outputs": [
        {
          "internalType": "bytes",
          "name": "newCtx",
          "type": "bytes"
        }
      ],
      "stateMutability": "nonpayable",
      "type": "function"
    },
    {
      "inputs": [
        {
          "internalType": "contract ISuperToken",
          "name": "token",
          "type": "address"
        },
        {
          "internalType": "address",
          "name": "publisher",
          "type": "address"
        },
        {
          "internalType": "uint32",
          "name": "indexId",
          "type": "uint32"
        },
        {
          "internalType": "bytes",
          "name": "ctx",
          "type": "bytes"
        }
      ],
      "name": "claim",
      "outputs": [
        {
          "internalType": "bytes",
          "name": "newCtx",
          "type": "bytes"
        }
      ],
      "stateMutability": "nonpayable",
      "type": "function"
    }
  ],
  "bytecode": "0x608060405234801561001057600080fd5b5061576080620000216000396000f3fe608060405234801561001057600080fd5b50600436106100ea5760003560e01c80639b2e48bc1161008c578063b96731c211610066578063b96731c214610685578063cd7245c514610715578063d787840a14610784578063f0880df81461080d576100ea565b80639b2e48bc14610491578063acf4a6c2146104e5578063b6dacdb814610579576100ea565b80635b534051116100c85780635b534051146103115780637730599e1461037b5780637fbc763914610395578063899baaec1461042e576100ea565b8063232d2b58146100ef57806323fc23f3146102075780632e5e74c614610277575b600080fd5b610192600480360360a081101561010557600080fd5b6001600160a01b03823581169263ffffffff602082013516926040820135909216916001600160801b03606083013516919081019060a081016080820135600160201b81111561015457600080fd5b82018360208201111561016657600080fd5b803590602001918460018302840111600160201b8311171561018757600080fd5b5090925090506108a1565b6040805160208082528351818301528351919283929083019185019080838360005b838110156101cc5781810151838201526020016101b4565b50505050905090810190601f1680156101f95780820380516001836020036101000a031916815260200191505b509250505060405180910390f35b6102446004803603606081101561021d57600080fd5b5080356001600160a01b03908116916020810135909116906040013563ffffffff1661127b565b6040805194151585526001600160801b039384166020860152918316848301529091166060830152519081900360800190f35b610192600480360360a081101561028d57600080fd5b6001600160a01b038235811692602081013582169263ffffffff60408301351692606083013516919081019060a081016080820135600160201b8111156102d357600080fd5b8201836020820111156102e557600080fd5b803590602001918460018302840111600160201b8311171561030657600080fd5b5090925090506112cb565b6103536004803603608081101561032757600080fd5b506001600160a01b038135811691602081013582169163ffffffff604083013516916060013516611949565b6040805193151584526001600160801b03909216602084015282820152519081900360600190f35b610383611bd8565b60408051918252519081900360200190f35b610192600480360360808110156103ab57600080fd5b6001600160a01b038235169163ffffffff602082013516916001600160801b036040830135169190810190608081016060820135600160201b8111156103f057600080fd5b82018360208201111561040257600080fd5b803590602001918460018302840111600160201b8311171561042357600080fd5b509092509050611bfc565b6104706004803603608081101561044457600080fd5b506001600160a01b03813581169160208101359091169063ffffffff6040820135169060600135611d9b565b604080519283526001600160801b0390911660208301528051918290030190f35b6104c7600480360360608110156104a757600080fd5b506001600160a01b03813581169160208101359091169060400135611e7d565b60408051938452602084019290925282820152519081900360600190f35b610192600480360360808110156104fb57600080fd5b6001600160a01b03823581169260208101359091169163ffffffff6040830135169190810190608081016060820135600160201b81111561053b57600080fd5b82018360208201111561054d57600080fd5b803590602001918460018302840111600160201b8311171561056e57600080fd5b509092509050612322565b6105a76004803603604081101561058f57600080fd5b506001600160a01b0381358116916020013516612ac3565b60405180806020018060200180602001848103845287818151815260200191508051906020019060200280838360005b838110156105ef5781810151838201526020016105d7565b50505050905001848103835286818151815260200191508051906020019060200280838360005b8381101561062e578181015183820152602001610616565b50505050905001848103825285818151815260200191508051906020019060200280838360005b8381101561066d578181015183820152602001610655565b50505050905001965050505050505060405180910390f35b6101926004803603608081101561069b57600080fd5b6001600160a01b038235169163ffffffff6020820135169160408201359190810190608081016060820135600160201b8111156106d757600080fd5b8201836020820111156106e957600080fd5b803590602001918460018302840111600160201b8311171561070a57600080fd5b509092509050612fcc565b6107416004803603604081101561072b57600080fd5b506001600160a01b038135169060200135613128565b604080516001600160a01b03909616865263ffffffff9094166020860152911515848401526001600160801b031660608401526080830152519081900360a00190f35b6101926004803603606081101561079a57600080fd5b6001600160a01b038235169163ffffffff60208201351691810190606081016040820135600160201b8111156107cf57600080fd5b8201836020820111156107e157600080fd5b803590602001918460018302840111600160201b8311171561080257600080fd5b5090925090506132ab565b6101926004803603608081101561082357600080fd5b6001600160a01b03823581169260208101359091169163ffffffff6040830135169190810190608081016060820135600160201b81111561086357600080fd5b82018360208201111561087557600080fd5b803590602001918460018302840111600160201b8311171561089657600080fd5b509092509050613485565b606060006108ad6155a1565b60006108ef3387878080601f0160208091040260200160405190810160405280939291908181526020018383808284376000920191909152506139ba92505050565b6020015190506000610901828b613ace565b9050600061090f8a83613b30565b905061091b8c83613b82565b6040808701919091528051808201909152601b815260008051602061570b8339815191526020820152909550856109d05760405162461bcd60e51b81526004018080602001828103825283818151815260200191508051906020019080838360005b8381101561099557818101518382015260200161097d565b50505050905090810190601f1680156109c25780820380516001836020036101000a031916815260200191505b509250505060405180910390fd5b506109db8c82613d1a565b606086015294508415610aff57826001600160a01b03168460600151602001516001600160a01b0316146040518060400160405280601a815260200160008051602061565d83398151915281525090610a755760405162461bcd60e51b815260206004820181815283516024840152835190928392604490910191908501908083836000831561099557818101518382015260200161097d565b508a63ffffffff1684606001516040015163ffffffff161460405180604001604052806018815260200160008051602061567d83398151915281525090610afd5760405162461bcd60e51b815260206004820181815283516024840152835190928392604490910191908501908083836000831561099557818101518382015260200161097d565b505b8415610b6657610b57338d8a8a8080601f016020809104026020016040519081016040528093929190818152602001838380828437600081840152601f19601f82011690508083019250505050505050308e86613ecc565b60808601919091529550610bc3565b610bb8338d8a8a8080601f016020809104026020016040519081016040528093929190818152602001838380828437600081840152601f19601f82011690508083019250505050505050308e86613efa565b608086019190915295505b848015610bdc575060608401515163ffffffff90811614155b15610d07578360600151608001516001600160801b0316896001600160801b03161115610c2c5760608401516080015160408501516020018051918b039091016001600160801b03169052610c52565b60608401516080015160408501516020018051918b90039091036001600160801b031690525b8b6001600160a01b031663a1b2bf8b83610c6f8760400151613f18565b6040518363ffffffff1660e01b81526004018083815260200180602001828103825283818151815260200191508051906020019060200280838360005b83811015610cc4578181015183820152602001610cac565b505050509050019350505050600060405180830381600087803b158015610cea57600080fd5b505af1158015610cfe573d6000803e3d6000fd5b50505050610f74565b8415610d9a578360600151608001516001600160801b0316896001600160801b03161115610d5757606084015160800151604080860151018051918b039091016001600160801b03169052610c52565b6060840151608001516040808601510180516001600160801b03928c900390039190911690528b6001600160a01b031663a1b2bf8b83610c6f8760400151613f18565b6040518060a0016040528060001963ffffffff168152602001846001600160a01b031681526020018c63ffffffff1681526020018560400151600001516001600160801b031681526020018a6001600160801b031681525084606001819052508b6001600160a01b03166312a6a3f882610e178760600151613faa565b6040518363ffffffff1660e01b81526004018083815260200180602001828103825283818151815260200191508051906020019060200280838360005b83811015610e6c578181015183820152602001610e54565b505050509050019350505050600060405180830381600087803b158015610e9257600080fd5b505af1158015610ea6573d6000803e3d6000fd5b505050506040848101805190910180518b016001600160801b03169052516001600160a01b038d169063a1b2bf8b908490610ee090613f18565b6040518363ffffffff1660e01b81526004018083815260200180602001828103825283818151815260200191508051906020019060200280838360005b83811015610f35578181015183820152602001610f1d565b505050509050019350505050600060405180830381600087803b158015610f5b57600080fd5b505af1158015610f6f573d6000803e3d6000fd5b505050505b606080850151608081015191810151604087015151915191036001600160801b039081169216919091029063ffffffff908116141561102e57610fbb8d8583600003614045565b8c6001600160a01b031663cf97256d85836000036040518363ffffffff1660e01b815260040180836001600160a01b0316815260200182815260200192505050600060405180830381600087803b15801561101557600080fd5b505af1158015611029573d6000803e3d6000fd5b505050505b8c6001600160a01b031663cf97256d8c836040518363ffffffff1660e01b815260040180836001600160a01b0316815260200182815260200192505050600060405180830381600087803b15801561108557600080fd5b505af1158015611099573d6000803e3d6000fd5b50505050851561118057604085015151606080870180516001600160801b039384169201919091528051918c16608090920191909152516001600160a01b038e169063a1b2bf8b9084906110ec90613faa565b6040518363ffffffff1660e01b81526004018083815260200180602001828103825283818151815260200191508051906020019060200280838360005b83811015611141578181015183820152602001611129565b505050509050019350505050600060405180830381600087803b15801561116757600080fd5b505af115801561117b573d6000803e3d6000fd5b505050505b8c6001600160a01b0316638fb4c995856040518263ffffffff1660e01b815260040180826001600160a01b0316815260200191505060206040518083038186803b1580156111cd57600080fd5b505afa1580156111e1573d6000803e3d6000fd5b505050506040513d60208110156111f757600080fd5b5051156112355760405162461bcd60e51b81526004018080602001828103825260288152602001806156bf6028913960400191505060405180910390fd5b85156112555761124e338e89308f878b60800151614270565b965061126b565b611268338e89308f878b6080015161429b565b96505b5050505050509695505050505050565b6000806000806112896155da565b60006112958888613ace565b90506112a18982613b82565b909650915085156112c057815160208301516040840151919650945092505b505093509350935093565b606060006112d76155a1565b60006113193387878080601f0160208091040260200160405190810160405280939291908181526020018383808284376000920191909152506139ba92505050565b602001519050886001600160a01b0316816001600160a01b031614806113505750866001600160a01b0316816001600160a01b0316145b6113a1576040805162461bcd60e51b815260206004820152601c60248201527f49444176313a206f7065726174696f6e206e6f7420616c6c6f77656400000000604482015290519081900360640190fd5b6113ab8989613ace565b8083526113b9908890613b30565b602083015281516113cb908b90613b82565b6040808501919091528051808201909152601b815260008051602061570b8339815191526020820152909350836114435760405162461bcd60e51b815260206004820181815283516024840152835190928392604490910191908501908083836000831561099557818101518382015260200161097d565b506114528a8360200151613d1a565b8360600181905281945050508260405180606001604052806022815260200161569d60229139906114c45760405162461bcd60e51b815260206004820181815283516024840152835190928392604490910191908501908083836000831561099557818101518382015260200161097d565b50886001600160a01b03168260600151602001516001600160a01b0316146040518060400160405280601a815260200160008051602061565d833981519152815250906115525760405162461bcd60e51b815260206004820181815283516024840152835190928392604490910191908501908083836000831561099557818101518382015260200161097d565b508763ffffffff1682606001516040015163ffffffff161460405180604001604052806018815260200160008051602061567d833981519152815250906115da5760405162461bcd60e51b815260206004820181815283516024840152835190928392604490910191908501908083836000831561099557818101518382015260200161097d565b5061163d338b88888080601f01602080910402602001604051908101604052809392919081815260200183838082843760009201919091525030925050506001600160a01b03868116908d1614611631578b611633565b8d5b87602001516142ba565b608084810192909252606080850151928301519083015160408601515193519297506001600160801b03918216930316919091029063ffffffff908116146116a65760608301516080015160408401516020018051919091036001600160801b031690526116c8565b606083015160800151604080850151018051919091036001600160801b031690525b8a6001600160a01b031663a1b2bf8b84600001516116e98660400151613f18565b6040518363ffffffff1660e01b81526004018083815260200180602001828103825283818151815260200191508051906020019060200280838360005b8381101561173e578181015183820152602001611726565b505050509050019350505050600060405180830381600087803b15801561176457600080fd5b505af1158015611778573d6000803e3d6000fd5b505050508a6001600160a01b03166327048397846020015160026040518363ffffffff1660e01b81526004018083815260200182815260200192505050600060405180830381600087803b1580156117cf57600080fd5b505af11580156117e3573d6000803e3d6000fd5b5050505060608301515163ffffffff90811614611809576118098b8985606001516142d9565b60608301515163ffffffff90811614156118945761182b8b8b83600003614045565b6040805163cf97256d60e01b81526001600160a01b038c81166004830152600084810360248401529251908e169263cf97256d926044808201939182900301818387803b15801561187b57600080fd5b505af115801561188f573d6000803e3d6000fd5b505050505b8a6001600160a01b031663cf97256d89836040518363ffffffff1660e01b815260040180836001600160a01b0316815260200182815260200192505050600060405180830381600087803b1580156118eb57600080fd5b505af11580156118ff573d6000803e3d6000fd5b5050505061193a338c87308c6001600160a01b0316876001600160a01b031614611929578c61192b565b8e5b88602001518960800151614524565b9b9a5050505050505050505050565b6000806000806119576155da565b61195f6155fa565b600061196b8a8a613ace565b90506119778b82613b82565b60408051808201909152601b815260008051602061570b83398151915260208201529195509350846119ea5760405162461bcd60e51b815260206004820181815283516024840152835190928392604490910191908501908083836000831561099557818101518382015260200161097d565b5060006119f78983613b30565b9050611a038c82613d1a565b80945081965050508460405180606001604052806022815260200161569d6022913990611a715760405162461bcd60e51b815260206004820181815283516024840152835190928392604490910191908501908083836000831561099557818101518382015260200161097d565b508a6001600160a01b031683602001516001600160a01b0316146040518060400160405280601a815260200160008051602061565d83398151915281525090611afb5760405162461bcd60e51b815260206004820181815283516024840152835190928392604490910191908501908083836000831561099557818101518382015260200161097d565b508963ffffffff16836040015163ffffffff161460405180604001604052806018815260200160008051602061567d83398151915281525090611b7f5760405162461bcd60e51b815260206004820181815283516024840152835190928392604490910191908501908083836000831561099557818101518382015260200161097d565b508251608084015163ffffffff918216909114159850965087611bc45782608001516001600160801b031683606001518560000151036001600160801b031602611bc7565b60005b955050505050509450945094915050565b7f8aedc3b5d4bf031e11a7e2940f7251c005698405d58e02e1c247fed3b1b3a67490565b60606000611c403385858080601f0160208091040260200160405190810160405280939291908181526020018383808284376000920191909152506139ba92505050565b6020015190506000611c528288613ace565b90506000611c5e6155da565b611c688a84613b82565b91509150816040518060400160405280601b815260200160008051602061570b83398151915281525090611cdd5760405162461bcd60e51b815260206004820181815283516024840152835190928392604490910191908501908083836000831561099557818101518382015260200161097d565b5080600001516001600160801b0316886001600160801b03161015611d49576040805162461bcd60e51b815260206004820152601e60248201527f49444176313a20696e6465782076616c75652073686f756c642067726f770000604482015290519081900360640190fd5b611d568a8585848c614543565b86868080601f016020809104026020016040519081016040528093929190818152602001838380828437600092019190915250929d9c50505050505050505050505050565b6000806000611daa8686613ace565b90506000611db66155da565b611dc08984613b82565b91509150816040518060400160405280601b815260200160008051602061570b83398151915281525090611e355760405162461bcd60e51b815260206004820181815283516024840152835190928392604490910191908501908083836000831561099557818101518382015260200161097d565b5060408101516020820151016001600160801b03166000818881611e5557fe5b04905080836000015101955081816001600160801b0316029650505050505094509492505050565b600080600080611e8b6155da565b611e936155fa565b60408051634b61cc3360e01b81523060048201526001600160a01b038a81166024830152600060448301819052600160648401529251908c1691634b61cc339160848083019286929190829003018186803b158015611ef157600080fd5b505afa158015611f05573d6000803e3d6000fd5b505050506040513d6000823e601f3d908101601f191682016040526020811015611f2e57600080fd5b8101908080516040519392919084600160201b821115611f4d57600080fd5b908301906020820185811115611f6257600080fd5b82518660208202830111600160201b82111715611f7e57600080fd5b82525081516020918201928201910280838360005b83811015611fab578181015183820152602001611f93565b50505050905001604052505050600081518110611fc457fe5b602002602001015160001c905060005b61010063ffffffff8216101561230857600163ffffffff821683901c16611ffa57612300565b60408051634b61cc3360e01b81523060048201526001600160a01b038c81166024830152600160801b63ffffffff85160160448301526001606483015291516000928e1691634b61cc339160848083019286929190829003018186803b15801561206357600080fd5b505afa158015612077573d6000803e3d6000fd5b505050506040513d6000823e601f3d908101601f1916820160405260208110156120a057600080fd5b8101908080516040519392919084600160201b8211156120bf57600080fd5b9083019060208201858111156120d457600080fd5b82518660208202830111600160201b821117156120f057600080fd5b82525081516020918201928201910280838360005b8381101561211d578181015183820152602001612105565b5050505090500160405250505060008151811061213657fe5b60200260200101519050600061214c8c83613b30565b90506121588d83613b82565b60408051808201909152601b815260008051602061570b83398151915260208201529198509650876121cb5760405162461bcd60e51b815260206004820181815283516024840152835190928392604490910191908501908083836000831561099557818101518382015260200161097d565b506121d68d82613d1a565b80965081985050508660405180606001604052806022815260200161569d60229139906122445760405162461bcd60e51b815260206004820181815283516024840152835190928392604490910191908501908083836000831561099557818101518382015260200161097d565b508263ffffffff16856000015163ffffffff1614604051806040016040528060188152602001771251105d8c4e881a5b98dbdc9c9958dd081cdb1bdd081a5960421b815250906122d55760405162461bcd60e51b815260206004820181815283516024840152835190928392604490910191908501908083836000831561099557818101518382015260200161097d565b5084608001516001600160801b031685606001518760000151036001600160801b0316028a01995050505b600101611fd4565b506123138a8a614770565b95505050505093509350939050565b6060600061232e6155a1565b60006123703387878080601f0160208091040260200160405190810160405280939291908181526020018383808284376000920191909152506139ba92505050565b6020015190506123808888613ace565b80835261238e908290613b30565b602083015281516123a0908a90613b82565b6040808501919091528051808201909152601b815260008051602061570b8339815191526020820152909350836124185760405162461bcd60e51b815260206004820181815283516024840152835190928392604490910191908501908083836000831561099557818101518382015260200161097d565b50612427898360200151613d1a565b6060840152925082156125ca57876001600160a01b03168260600151602001516001600160a01b0316146040518060400160405280601a815260200160008051602061565d833981519152815250906124c15760405162461bcd60e51b815260206004820181815283516024840152835190928392604490910191908501908083836000831561099557818101518382015260200161097d565b508663ffffffff1682606001516040015163ffffffff161460405180604001604052806018815260200160008051602061567d833981519152815250906125495760405162461bcd60e51b815260206004820181815283516024840152835190928392604490910191908501908083836000831561099557818101518382015260200161097d565b5060001963ffffffff1682606001516000015163ffffffff16146040518060600160405280602481526020016156e760249139906125c85760405162461bcd60e51b815260206004820181815283516024840152835190928392604490910191908501908083836000831561099557818101518382015260200161097d565b505b8261277657612618338a88888080601f016020809104026020016040519081016040528093929190818152602001838380828437600092019190915250505060208701513091508d90613efa565b8360800181965082905250506040518060a00160405280600063ffffffff168152602001896001600160a01b031681526020018863ffffffff1681526020018360400151600001516001600160801b0316815260200160006001600160801b03168152508260600181905250612693898284600001516148c0565b60608301805163ffffffff909216909152602083015190516001600160a01b038b16916312a6a3f8916126c590613faa565b6040518363ffffffff1660e01b81526004018083815260200180602001828103825283818151815260200191508051906020019060200280838360005b8381101561271a578181015183820152602001612702565b505050509050019350505050600060405180830381600087803b15801561274057600080fd5b505af1158015612754573d6000803e3d6000fd5b5050505061276f338a86308c8760200151886080015161429b565b9350612ab7565b6127bf338a88888080601f016020809104026020016040519081016040528093929190818152602001838380828437600092019190915250505060208701513091508d90613ecc565b60808085019290925260608085018051808501519201516040808801805180516020909101805187016001600160801b03908116909152945190970151815190920180519290920384169091528751905194995094038116911602916001600160a01b038c169163a1b2bf8b919061283690613f18565b6040518363ffffffff1660e01b81526004018083815260200180602001828103825283818151815260200191508051906020019060200280838360005b8381101561288b578181015183820152602001612873565b505050509050019350505050600060405180830381600087803b1580156128b157600080fd5b505af11580156128c5573d6000803e3d6000fd5b505050506128d78a8a83600003614045565b6040805163cf97256d60e01b81526001600160a01b038b81166004830152600084810360248401529251908d169263cf97256d926044808201939182900301818387803b15801561292757600080fd5b505af115801561293b573d6000803e3d6000fd5b50505050896001600160a01b031663cf97256d83836040518363ffffffff1660e01b815260040180836001600160a01b0316815260200182815260200192505050600060405180830381600087803b15801561299657600080fd5b505af11580156129aa573d6000803e3d6000fd5b5050506040840151516060808601516001600160801b039092169101525082516129d7908b9084906148c0565b60608401805163ffffffff909216909152602084015190516001600160a01b038c169163a1b2bf8b91612a0990613faa565b6040518363ffffffff1660e01b81526004018083815260200180602001828103825283818151815260200191508051906020019060200280838360005b83811015612a5e578181015183820152602001612a46565b505050509050019350505050600060405180830381600087803b158015612a8457600080fd5b505af1158015612a98573d6000803e3d6000fd5b50505050612ab3338b87308d88602001518960800151614270565b9450505b50505095945050505050565b60608060606000856001600160a01b0316634b61cc333087600060016040518563ffffffff1660e01b815260040180856001600160a01b03168152602001846001600160a01b0316815260200183815260200182815260200194505050505060006040518083038186803b158015612b3a57600080fd5b505afa158015612b4e573d6000803e3d6000fd5b505050506040513d6000823e601f3d908101601f191682016040526020811015612b7757600080fd5b8101908080516040519392919084600160201b821115612b9657600080fd5b908301906020820185811115612bab57600080fd5b82518660208202830111600160201b82111715612bc757600080fd5b82525081516020918201928201910280838360005b83811015612bf4578181015183820152602001612bdc565b50505050905001604052505050600081518110612c0d57fe5b602002602001015160001c90506000612c246155fa565b604080516101008082526120208201909252600091602082016120008036833750506040805161010080825261202082019092529299509050602082016120008036833750506040805161010080825261202082019092529298509050602082016120008036833701905050945060005b61010063ffffffff82161015612fb757600163ffffffff821686901c16612cbb57612faf565b60408051634b61cc3360e01b81523060048201526001600160a01b038b81166024830152600160801b63ffffffff85160160448301526001606483015291516000928d1691634b61cc339160848083019286929190829003018186803b158015612d2457600080fd5b505afa158015612d38573d6000803e3d6000fd5b505050506040513d6000823e601f3d908101601f191682016040526020811015612d6157600080fd5b8101908080516040519392919084600160201b821115612d8057600080fd5b908301906020820185811115612d9557600080fd5b82518660208202830111600160201b82111715612db157600080fd5b82525081516020918201928201910280838360005b83811015612dde578181015183820152602001612dc6565b50505050905001604052505050600081518110612df757fe5b602002602001015190506000612e0d8b83613b30565b9050612e198c82613d1a565b80965081975050508560405180606001604052806022815260200161569d6022913990612e875760405162461bcd60e51b815260206004820181815283516024840152835190928392604490910191908501908083836000831561099557818101518382015260200161097d565b508263ffffffff16856000015163ffffffff1614604051806040016040528060188152602001771251105d8c4e881a5b98dbdc9c9958dd081cdb1bdd081a5960421b81525090612f185760405162461bcd60e51b815260206004820181815283516024840152835190928392604490910191908501908083836000831561099557818101518382015260200161097d565b5084602001518a8581518110612f2a57fe5b60200260200101906001600160a01b031690816001600160a01b0316815250508460400151898581518110612f5b57fe5b602002602001019063ffffffff16908163ffffffff16815250508460800151888581518110612f8657fe5b60200260200101906001600160801b031690816001600160801b03168152505083600101935050505b600101612c95565b50808752808652808552505050509250925092565b606060006130103385858080601f0160208091040260200160405190810160405280939291908181526020018383808284376000920191909152506139ba92505050565b60200151905060006130228288613ace565b9050600061302e6155da565b6130388a84613b82565b91509150816040518060400160405280601b815260200160008051602061570b833981519152815250906130ad5760405162461bcd60e51b815260206004820181815283516024840152835190928392604490910191908501908083836000831561099557818101518382015260200161097d565b50600081604001518260200151016001600160801b031689816130cc57fe5b0490506130e28b86868585876000015101614543565b87878080601f016020809104026020016040519081016040528093929190818152602001838380828437600092019190915250929e9d5050505050505050505050505050565b6000806000806000806131396155da565b6131416155fa565b61314b8a8a613d1a565b80925081945050508260405180606001604052806022815260200161569d60229139906131b95760405162461bcd60e51b815260206004820181815283516024840152835190928392604490910191908501908083836000831561099557818101518382015260200161097d565b50806020015197508060400151965060006131d48989613ace565b90506131e08b82613b82565b60408051808201909152601b815260008051602061570b83398151915260208201529195509350846132535760405162461bcd60e51b815260206004820181815283516024840152835190928392604490910191908501908083836000831561099557818101518382015260200161097d565b508151608083015163ffffffff9182169091141597509550866132985781608001516001600160801b031682606001518460000151036001600160801b03160261329b565b60005b9450505050509295509295909350565b606060006132ef3385858080601f0160208091040260200160405190810160405280939291908181526020018383808284376000920191909152506139ba92505050565b60200151905060006133018287613ace565b905061330d8782614c1b565b1561335f576040805162461bcd60e51b815260206004820152601b60248201527f49444176313a20696e64657820616c7265616479206578697374730000000000604482015290519081900360640190fd5b866001600160a01b03166312a6a3f8826133b0604051806060016040528060006001600160801b0316815260200160006001600160801b0316815260200160006001600160801b0316815250613f18565b6040518363ffffffff1660e01b81526004018083815260200180602001828103825283818151815260200191508051906020019060200280838360005b838110156134055781810151838201526020016133ed565b505050509050019350505050600060405180830381600087803b15801561342b57600080fd5b505af115801561343f573d6000803e3d6000fd5b5050505084848080601f016020809104026020016040519081016040528093929190818152602001838380828437600092019190915250929a9950505050505050505050565b606060006134916155a1565b60006134d33387878080601f0160208091040260200160405190810160405280939291908181526020018383808284376000920191909152506139ba92505050565b6020015190506134e38888613ace565b8083526134f1908290613b30565b60208301528151613503908a90613b82565b6040808501919091528051808201909152601b815260008051602061570b83398151915260208201529093508361357b5760405162461bcd60e51b815260206004820181815283516024840152835190928392604490910191908501908083836000831561099557818101518382015260200161097d565b5061358a898360200151613d1a565b8360600181905281945050508260405180606001604052806022815260200161569d60229139906135fc5760405162461bcd60e51b815260206004820181815283516024840152835190928392604490910191908501908083836000831561099557818101518382015260200161097d565b50876001600160a01b03168260600151602001516001600160a01b0316146040518060400160405280601a815260200160008051602061565d8339815191528152509061368a5760405162461bcd60e51b815260206004820181815283516024840152835190928392604490910191908501908083836000831561099557818101518382015260200161097d565b508663ffffffff1682606001516040015163ffffffff161460405180604001604052806018815260200160008051602061567d833981519152815250906137125760405162461bcd60e51b815260206004820181815283516024840152835190928392604490910191908501908083836000831561099557818101518382015260200161097d565b5060001963ffffffff1682606001516000015163ffffffff16146040518060600160405280602481526020016156e760249139906137915760405162461bcd60e51b815260206004820181815283516024840152835190928392604490910191908501908083836000831561099557818101518382015260200161097d565b506060808301516080810151910151604084015151036001600160801b039081169116028015611d5657613804338b89898080601f016020809104026020016040519081016040528093929190818152602001838380828437600092019190915250505060208801513091508e90613ecc565b6080850191909152945061381d8a8a6000849003614045565b6040805163cf97256d60e01b81526001600160a01b038b81166004830152600084810360248401529251908d169263cf97256d926044808201939182900301818387803b15801561386d57600080fd5b505af1158015613881573d6000803e3d6000fd5b505050508260400151600001518360600151606001906001600160801b031690816001600160801b031681525050896001600160a01b031663a1b2bf8b84602001516138d08660600151613faa565b6040518363ffffffff1660e01b81526004018083815260200180602001828103825283818151815260200191508051906020019060200280838360005b8381101561392557818101518382015260200161390d565b505050509050019350505050600060405180830381600087803b15801561394b57600080fd5b505af115801561395f573d6000803e3d6000fd5b50505050896001600160a01b031663cf97256d83836040518363ffffffff1660e01b815260040180836001600160a01b0316815260200182815260200192505050600060405180830381600087803b158015612a8457600080fd5b6139c2615628565b604051631fb6491d60e11b81526020600482018181528451602484015284516001600160a01b03871693633f6c923a9387939283926044019185019080838360005b83811015613a1c578181015183820152602001613a04565b50505050905090810190601f168015613a495780820380516001836020036101000a031916815260200191505b509250505060a06040518083038186803b158015613a6657600080fd5b505afa158015613a7a573d6000803e3d6000fd5b505050506040513d60a0811015613a9057600080fd5b5060208082015160408084015160608086015160809096015190870152908501939093526001600160a01b039092169083015260ff16815292915050565b6040805168383ab13634b9b432b960b91b60208083019190915260609490941b6bffffffffffffffffffffffff1916602982015260e09290921b6001600160e01b031916603d8301528051808303602101815260419092019052805191012090565b604080516b39bab139b1b934b83a34b7b760a11b602080830191909152606094851b6bffffffffffffffffffffffff1916602c8301528183019390935281518082038301815293019052815191012090565b6000613b8c6155da565b60408051636c2d9f2f60e01b8152306004820152602481018590526002604482015290516060916001600160a01b03871691636c2d9f2f91606480820192600092909190829003018186803b158015613be457600080fd5b505afa158015613bf8573d6000803e3d6000fd5b505050506040513d6000823e601f3d908101601f191682016040526020811015613c2157600080fd5b8101908080516040519392919084600160201b821115613c4057600080fd5b908301906020820185811115613c5557600080fd5b82518660208202830111600160201b82111715613c7157600080fd5b82525081516020918201928201910280838360005b83811015613c9e578181015183820152602001613c86565b505050509050016040525050509050600081600081518110613cbc57fe5b602002602001015160001c9050600082600181518110613cd857fe5b602002602001015160001c90506000821194508415613d10576001600160801b03808316855281166020850152608081901c60408501525b5050509250929050565b6000613d246155fa565b60408051636c2d9f2f60e01b8152306004820152602481018590526002604482015290516060916001600160a01b03871691636c2d9f2f91606480820192600092909190829003018186803b158015613d7c57600080fd5b505afa158015613d90573d6000803e3d6000fd5b505050506040513d6000823e601f3d908101601f191682016040526020811015613db957600080fd5b8101908080516040519392919084600160201b821115613dd857600080fd5b908301906020820185811115613ded57600080fd5b82518660208202830111600160201b82111715613e0957600080fd5b82525081516020918201928201910280838360005b83811015613e36578181015183820152602001613e1e565b505050509050016040525050509050600081600081518110613e5457fe5b602002602001015160001c9050600082600181518110613e7057fe5b602002602001015160001c90506000821194508415613d1057606082811c60208087019190915283901c63ffffffff9081166040870152831685526001600160801b03821690850152608081811c908501525050509250929050565b606080613eeb6305b3926760e31b6404000000008a8a8a8a8a8a614d62565b91509150965096945050505050565b606080613eeb63bd2da4a360e01b600160201b8a8a8a8a8a8a614d62565b604080516002808252606080830184529260208301908036833701905050905081600001516001600160801b0316600160801b1760001b81600081518110613f5c57fe5b602002602001018181525050608082604001516001600160801b0316901b82602001516001600160801b03161760001b81600181518110613f9957fe5b602002602001018181525050919050565b6040805160028082526060808301845292602083019080368337019050509050816000015163ffffffff166020836040015163ffffffff16901b606084602001516001600160a01b0316901b171760001b8160008151811061400857fe5b602002602001018181525050608082608001516001600160801b0316901b82606001516001600160801b03161760001b81600181518110613f9957fe5b8061404f5761426b565b60408051634b61cc3360e01b81523060048201526001600160a01b038481166024830152600160201b6044830152600160648301529151606092861691634b61cc33916084808301926000929190829003018186803b1580156140b157600080fd5b505afa1580156140c5573d6000803e3d6000fd5b505050506040513d6000823e601f3d908101601f1916820160405260208110156140ee57600080fd5b8101908080516040519392919084600160201b82111561410d57600080fd5b90830190602082018581111561412257600080fd5b82518660208202830111600160201b8211171561413e57600080fd5b82525081516020918201928201910280838360005b8381101561416b578181015183820152602001614153565b505050509050016040525050509050818160008151811061418857fe5b602002602001015160001c0160001b816000815181106141a457fe5b602002602001018181525050836001600160a01b031663090c415e84600160201b846040518463ffffffff1660e01b815260040180846001600160a01b0316815260200183815260200180602001828103825283818151815260200191508051906020019060200280838360005b8381101561422a578181015183820152602001614212565b50505050905001945050505050600060405180830381600087803b15801561425157600080fd5b505af1158015614265573d6000803e3d6000fd5b50505050505b505050565b606061428f636d1ba08f60e11b6408000000008a8a8a8a8a8a8a6151a2565b98975050505050505050565b606061428f63d002c9a560e01b6402000000008a8a8a8a8a8a8a6151a2565b606080613eeb630beeb46760e11b6410000000008a8a8a8a8a8a614d62565b60408051634b61cc3360e01b81523060048201526001600160a01b03848116602483015260006044830181905260016064840152925190861691634b61cc339160848083019286929190829003018186803b15801561433757600080fd5b505afa15801561434b573d6000803e3d6000fd5b505050506040513d6000823e601f3d908101601f19168201604052602081101561437457600080fd5b8101908080516040519392919084600160201b82111561439357600080fd5b9083019060208201858111156143a857600080fd5b82518660208202830111600160201b821117156143c457600080fd5b82525081516020918201928201910280838360005b838110156143f15781810151838201526020016143d9565b5050505090500160405250505060008151811061440a57fe5b6020908102919091018101516040805160018082528183019092529193506060928281019080368337019050509050826000015163ffffffff166001901b19821660001b8160008151811061445b57fe5b602002602001018181525050846001600160a01b031663090c415e856000846040518463ffffffff1660e01b815260040180846001600160a01b0316815260200183815260200180602001828103825283818151815260200191508051906020019060200280838360005b838110156144de5781810151838201526020016144c6565b50505050905001945050505050600060405180830381600087803b15801561450557600080fd5b505af1158015614519573d6000803e3d6000fd5b505050505050505050565b606061428f63be6baf9b60e01b6420000000008a8a8a8a8a8a8a6151a2565b846001600160a01b031663cf97256d8584602001516001600160801b0316856000015185036001600160801b0316600003026040518363ffffffff1660e01b815260040180836001600160a01b0316815260200182815260200192505050600060405180830381600087803b1580156145bb57600080fd5b505af11580156145cf573d6000803e3d6000fd5b505050506145fc858584604001516001600160801b0316856000015185036001600160801b031602614045565b6001600160801b03811682526001600160a01b03851663a1b2bf8b8461462185613f18565b6040518363ffffffff1660e01b81526004018083815260200180602001828103825283818151815260200191508051906020019060200280838360005b8381101561467657818101518382015260200161465e565b505050509050019350505050600060405180830381600087803b15801561469c57600080fd5b505af11580156146b0573d6000803e3d6000fd5b50505050846001600160a01b0316638fb4c995856040518263ffffffff1660e01b815260040180826001600160a01b0316815260200191505060206040518083038186803b15801561470157600080fd5b505afa158015614715573d6000803e3d6000fd5b505050506040513d602081101561472b57600080fd5b5051156147695760405162461bcd60e51b81526004018080602001828103825260288152602001806156bf6028913960400191505060405180910390fd5b5050505050565b60408051634b61cc3360e01b81523060048201526001600160a01b038381166024830152600160201b604483015260016064830152915160009260609290861691634b61cc33916084808201928792909190829003018186803b1580156147d657600080fd5b505afa1580156147ea573d6000803e3d6000fd5b505050506040513d6000823e601f3d908101601f19168201604052602081101561481357600080fd5b8101908080516040519392919084600160201b82111561483257600080fd5b90830190602082018581111561484757600080fd5b82518660208202830111600160201b8211171561486357600080fd5b82525081516020918201928201910280838360005b83811015614890578181015183820152602001614878565b505050509050016040525050509050806000815181106148ac57fe5b602002602001015160001c91505092915050565b60408051634b61cc3360e01b81523060048201526001600160a01b038481166024830152600060448301819052600160648401529251839291871691634b61cc339160848083019286929190829003018186803b15801561492057600080fd5b505afa158015614934573d6000803e3d6000fd5b505050506040513d6000823e601f3d908101601f19168201604052602081101561495d57600080fd5b8101908080516040519392919084600160201b82111561497c57600080fd5b90830190602082018581111561499157600080fd5b82518660208202830111600160201b821117156149ad57600080fd5b82525081516020918201928201910280838360005b838110156149da5781810151838201526020016149c2565b505050509050016040525050506000815181106149f357fe5b602002602001015160001c9050600091505b61010063ffffffff83161015614c1357600163ffffffff831682901c16614c0857604080516001808252818301909252606091602080830190803683370190505090508381600081518110614a5657fe5b602002602001018181525050856001600160a01b031663090c415e868563ffffffff16600160801b01846040518463ffffffff1660e01b815260040180846001600160a01b0316815260200183815260200180602001828103825283818151815260200191508051906020019060200280838360005b83811015614ae4578181015183820152602001614acc565b50505050905001945050505050600060405180830381600087803b158015614b0b57600080fd5b505af1158015614b1f573d6000803e3d6000fd5b505050508263ffffffff166001901b821760001b81600081518110614b4057fe5b602002602001018181525050856001600160a01b031663090c415e866000846040518463ffffffff1660e01b815260040180846001600160a01b0316815260200183815260200180602001828103825283818151815260200191508051906020019060200280838360005b83811015614bc3578181015183820152602001614bab565b50505050905001945050505050600060405180830381600087803b158015614bea57600080fd5b505af1158015614bfe573d6000803e3d6000fd5b5050505050614c13565b816001019150614a05565b509392505050565b60408051636c2d9f2f60e01b8152306004820152602481018390526002604482015290516000916060916001600160a01b03861691636c2d9f2f9160648083019287929190829003018186803b158015614c7457600080fd5b505afa158015614c88573d6000803e3d6000fd5b505050506040513d6000823e601f3d908101601f191682016040526020811015614cb157600080fd5b8101908080516040519392919084600160201b821115614cd057600080fd5b908301906020820185811115614ce557600080fd5b82518660208202830111600160201b82111715614d0157600080fd5b82525081516020918201928201910280838360005b83811015614d2e578181015183820152602001614d16565b505050509050016040525050509050600081600081518110614d4c57fe5b6020908102919091010151151595945050505050565b606080859050600080896001600160a01b031663f9f522f4876040518263ffffffff1660e01b815260040180826001600160a01b03168152602001915050604080518083038186803b158015614db757600080fd5b505afa158015614dcb573d6000803e3d6000fd5b505050506040513d6040811015614de157600080fd5b5080516020909101519092509050818015614dfc5750808b16155b156151935760608c8a8a8a8960405160240180856001600160a01b0316815260200180602001846001600160a01b03168152602001838152602001828103825285818151815260200191508051906020019080838360005b83811015614e6c578181015183820152602001614e54565b50505050905090810190601f168015614e995780820380516001836020036101000a031916815260200191505b5095505050505050604051602081830303815290604052906001600160e01b0319166020820180516001600160e01b03838183161783525050505090508a6001600160a01b031663d0197c5a88838c6040518463ffffffff1660e01b815260040180846001600160a01b031681526020018060200180602001838103835285818151815260200191508051906020019080838360005b83811015614f47578181015183820152602001614f2f565b50505050905090810190601f168015614f745780820380516001836020036101000a031916815260200191505b50838103825284518152845160209182019186019080838360005b83811015614fa7578181015183820152602001614f8f565b50505050905090810190601f168015614fd45780820380516001836020036101000a031916815260200191505b5095505050505050600060405180830381600087803b158015614ff657600080fd5b505af115801561500a573d6000803e3d6000fd5b505050506040513d6000823e601f3d908101601f19168201604090815281101561503357600080fd5b8101908080516040519392919084600160201b82111561505257600080fd5b90830190602082018581111561506757600080fd5b8251600160201b81118282018810171561508057600080fd5b82525081516020918201929091019080838360005b838110156150ad578181015183820152602001615095565b50505050905090810190601f1680156150da5780820380516001836020036101000a031916815260200191505b5060405260200180516040519392919084600160201b8211156150fc57600080fd5b90830190602082018581111561511157600080fd5b8251600160201b81118282018810171561512a57600080fd5b82525081516020918201929091019080838360005b8381101561515757818101518382015260200161513f565b50505050905090810190601f1680156151845780820380516001836020036101000a031916815260200191505b50604052509297509095505050505b50509850989650505050505050565b6060600080896001600160a01b031663f9f522f4876040518263ffffffff1660e01b815260040180826001600160a01b03168152602001915050604080518083038186803b1580156151f357600080fd5b505afa158015615207573d6000803e3d6000fd5b505050506040513d604081101561521d57600080fd5b50805160209091015190925090508180156152385750808b16155b1561558e5760608c8a8a8a898960405160240180866001600160a01b0316815260200180602001856001600160a01b0316815260200184815260200180602001838103835287818151815260200191508051906020019080838360005b838110156152ad578181015183820152602001615295565b50505050905090810190601f1680156152da5780820380516001836020036101000a031916815260200191505b50838103825284518152845160209182019186019080838360005b8381101561530d5781810151838201526020016152f5565b50505050905090810190601f16801561533a5780820380516001836020036101000a031916815260200191505b50975050505050505050604051602081830303815290604052906001600160e01b0319166020820180516001600160e01b03838183161783525050505090508a6001600160a01b031663220a755788838c6040518463ffffffff1660e01b815260040180846001600160a01b031681526020018060200180602001838103835285818151815260200191508051906020019080838360005b838110156153ea5781810151838201526020016153d2565b50505050905090810190601f1680156154175780820380516001836020036101000a031916815260200191505b50838103825284518152845160209182019186019080838360005b8381101561544a578181015183820152602001615432565b50505050905090810190601f1680156154775780820380516001836020036101000a031916815260200191505b5095505050505050600060405180830381600087803b15801561549957600080fd5b505af11580156154ad573d6000803e3d6000fd5b505050506040513d6000823e601f3d908101601f1916820160405260208110156154d657600080fd5b8101908080516040519392919084600160201b8211156154f557600080fd5b90830190602082018581111561550a57600080fd5b8251600160201b81118282018810171561552357600080fd5b82525081516020918201929091019080838360005b83811015615550578181015183820152602001615538565b50505050905090810190601f16801561557d5780820380516001836020036101000a031916815260200191505b506040525050509350505050615594565b87925050505b9998505050505050505050565b6040805160a081018252600080825260208201529081016155c06155da565b81526020016155cd6155fa565b8152602001606081525090565b604080516060810182526000808252602082018190529181019190915290565b6040805160a08101825260008082526020820181905291810182905260608101829052608081019190915290565b6040518060800160405280600060ff16815260200160006001600160a01b031681526020016000815260200160008152509056fe49444176313a20696e636f7272656374207075626c697368657200000000000049444176313a20696e636f727265637420696e6465784964000000000000000049444176313a20737562736372697074696f6e20646f6573206e6f7420657869737449444176313a20696e73756666696369656e742062616c616e6365206f66207075626c697368657249444176313a20737562736372697074696f6e20616c726561647920617070726f76656449444176313a20696e64657820646f6573206e6f742065786973740000000000a2646970667358221220afaa529b3a4f2ecf0dbd06c1065fad921613b7ff385ac404abd37c455282f07964736f6c63430007010033",
  "immutableReferences": {},
  "sourcePath": "/home/hellwolf/Projects/superfluid/ethereum-contracts/contracts/agreements/InstantDistributionAgreementV1.sol",
  "compiler": {
    "name": "solc",
    "version": "0.7.1+commit.f4a555be.Emscripten.clang"
  },
  "schemaVersion": "3.2.5",
  "updatedAt": "2020-09-28T17:04:34.193Z",
  "devdoc": {
    "kind": "dev",
    "methods": {
      "agreementType()": {
        "details": "ISuperAgreement.agreementType implementation"
      },
      "approveSubscription(address,address,uint32,bytes)": {
        "details": "IInstantDistributionAgreementV1.approveSubscription implementation"
      },
      "calculateDistribution(address,address,uint32,uint256)": {
        "details": "Calculate actual distribution amount",
        "params": {
          "amount": "The amount of tokens desired to be distributed.",
          "indexId": "Id of the index.",
          "publisher": "The publisher of the index.",
          "token": "Super token address."
        }
      },
      "claim(address,address,uint32,bytes)": {
        "details": "Claim pending distributions.",
        "params": {
          "indexId": "Id of the index. The subscription should not exist yet. # App callbacks - AgreementUpdated callback to the publisher:    - agreementId is for the subscription",
          "publisher": "The publisher of the index.",
          "token": "Super token address."
        }
      },
      "createIndex(address,uint32,bytes)": {
        "details": "IInstantDistributionAgreementV1.createIndex implementation"
      },
      "deleteSubscription(address,address,uint32,address,bytes)": {
        "details": "IInstantDistributionAgreementV1.deleteSubscription implementation"
      },
      "distribute(address,uint32,uint256,bytes)": {
        "details": "Distribute tokens through the index.",
        "params": {
          "amount": "The amount of tokens desired to be distributed. NOTE: - This is a convenient version of updateIndex. It adds to the index   a delta that equals to `amount / totalUnits`. - The actual amount distributed could be obtained via   `calculateDistribution`. This is due to precision error with index   value and units data range. # App callbacks None",
          "indexId": "Id of the index.",
          "token": "Super token address."
        }
      },
      "getIndex(address,address,uint32)": {
        "details": "IInstantDistributionAgreementV1.getIndex implementation"
      },
      "getSubscription(address,address,uint32,address)": {
        "details": "IInstantDistributionAgreementV1.getSubscription implementation"
      },
      "getSubscriptionByID(address,bytes32)": {
        "details": "IInstantDistributionAgreementV1.getSubscriptionByID implementation"
      },
      "listSubscriptions(address,address)": {
        "details": "IInstantDistributionAgreementV1.listSubscriptions implementation"
      },
      "realtimeBalanceOf(address,address,uint256)": {
        "details": "ISuperAgreement.realtimeBalanceOf implementation"
      },
      "updateIndex(address,uint32,uint128,bytes)": {
        "details": "IInstantDistributionAgreementV1.updateIndex implementation"
      },
      "updateSubscription(address,uint32,address,uint128,bytes)": {
        "details": "IInstantDistributionAgreementV1.updateSubscription implementation"
      }
    },
    "stateVariables": {
      "_MAX_NUM_SUBS": {
        "details": "Maximum number of subscriptions a subscriber can have"
      },
      "_PUBLISHER_DEPOSIT_STATE_SLOT_ID": {
        "details": "Publisher state slot id for storing its deposit amount"
      },
      "_SUBSCRIBER_SUBS_BITMAP_STATE_SLOT_ID": {
        "details": "Subscriber state slot id for storing subs bitmap"
      },
      "_SUBSCRIBER_SUB_DATA_STATE_SLOT_ID_START": {
        "details": "Subscriber state slot id starting ptoint for subscription data"
      },
      "_UNALLOCATED_SUB_ID": {
        "details": "A special id that indicating the subscription is not approved yet"
      }
    },
    "version": 1
  },
  "userdoc": {
    "kind": "user",
    "methods": {},
    "version": 1
  }
}