{
  "contractName": "MultiFlowsApp",
  "abi": [
    {
      "inputs": [
        {
          "internalType": "contract IConstantFlowAgreementV1",
          "name": "constantFlow",
          "type": "address"
        },
        {
          "internalType": "contract ISuperfluid",
          "name": "superfluid",
          "type": "address"
        }
      ],
      "stateMutability": "nonpayable",
      "type": "constructor"
    },
    {
      "inputs": [
        {
          "internalType": "contract ISuperToken",
          "name": "",
          "type": "address"
        },
        {
          "internalType": "bytes",
          "name": "",
          "type": "bytes"
        },
        {
          "internalType": "address",
          "name": "",
          "type": "address"
        },
        {
          "internalType": "bytes32",
          "name": "",
          "type": "bytes32"
        },
        {
          "internalType": "bytes",
          "name": "",
          "type": "bytes"
        }
      ],
      "name": "afterAgreementUpdated",
      "outputs": [
        {
          "internalType": "bytes",
          "name": "",
          "type": "bytes"
        }
      ],
      "stateMutability": "nonpayable",
      "type": "function"
    },
    {
      "inputs": [
        {
          "internalType": "contract ISuperToken",
          "name": "",
          "type": "address"
        },
        {
          "internalType": "bytes",
          "name": "",
          "type": "bytes"
        },
        {
          "internalType": "address",
          "name": "",
          "type": "address"
        },
        {
          "internalType": "bytes32",
          "name": "",
          "type": "bytes32"
        }
      ],
      "name": "beforeAgreementCreated",
      "outputs": [
        {
          "internalType": "bytes",
          "name": "",
          "type": "bytes"
        }
      ],
      "stateMutability": "view",
      "type": "function"
    },
    {
      "inputs": [
        {
          "internalType": "contract ISuperToken",
          "name": "",
          "type": "address"
        },
        {
          "internalType": "bytes",
          "name": "",
          "type": "bytes"
        },
        {
          "internalType": "address",
          "name": "",
          "type": "address"
        },
        {
          "internalType": "bytes32",
          "name": "",
          "type": "bytes32"
        }
      ],
      "name": "beforeAgreementTerminated",
      "outputs": [
        {
          "internalType": "bytes",
          "name": "",
          "type": "bytes"
        }
      ],
      "stateMutability": "view",
      "type": "function"
    },
    {
      "inputs": [
        {
          "internalType": "contract ISuperToken",
          "name": "superToken",
          "type": "address"
        },
        {
          "internalType": "address[]",
          "name": "receivers",
          "type": "address[]"
        },
        {
          "internalType": "int96[]",
          "name": "proportions",
          "type": "int96[]"
        },
        {
          "internalType": "bytes",
          "name": "ctx",
          "type": "bytes"
        }
      ],
      "name": "createMultiFlows",
      "outputs": [
        {
          "internalType": "bytes",
          "name": "newCtx",
          "type": "bytes"
        }
      ],
      "stateMutability": "nonpayable",
      "type": "function"
    },
    {
      "inputs": [
        {
          "internalType": "contract ISuperToken",
          "name": "superToken",
          "type": "address"
        },
        {
          "internalType": "bytes",
          "name": "",
          "type": "bytes"
        },
        {
          "internalType": "address",
          "name": "agreementClass",
          "type": "address"
        },
        {
          "internalType": "bytes32",
          "name": "agreementId",
          "type": "bytes32"
        }
      ],
      "name": "beforeAgreementUpdated",
      "outputs": [
        {
          "internalType": "bytes",
          "name": "data",
          "type": "bytes"
        }
      ],
      "stateMutability": "view",
      "type": "function"
    },
    {
      "inputs": [
        {
          "internalType": "contract ISuperToken",
          "name": "superToken",
          "type": "address"
        },
        {
          "internalType": "bytes",
          "name": "ctx",
          "type": "bytes"
        },
        {
          "internalType": "address",
          "name": "",
          "type": "address"
        },
        {
          "internalType": "bytes32",
          "name": "agreementId",
          "type": "bytes32"
        },
        {
          "internalType": "bytes",
          "name": "",
          "type": "bytes"
        }
      ],
      "name": "afterAgreementCreated",
      "outputs": [
        {
          "internalType": "bytes",
          "name": "newCtx",
          "type": "bytes"
        }
      ],
      "stateMutability": "nonpayable",
      "type": "function"
    },
    {
      "inputs": [
        {
          "internalType": "contract ISuperToken",
          "name": "superToken",
          "type": "address"
        },
        {
          "internalType": "bytes",
          "name": "ctx",
          "type": "bytes"
        },
        {
          "internalType": "address",
          "name": "",
          "type": "address"
        },
        {
          "internalType": "bytes32",
          "name": "",
          "type": "bytes32"
        },
        {
          "internalType": "bytes",
          "name": "",
          "type": "bytes"
        }
      ],
      "name": "afterAgreementTerminated",
      "outputs": [
        {
          "internalType": "bytes",
          "name": "newCtx",
          "type": "bytes"
        }
      ],
      "stateMutability": "nonpayable",
      "type": "function"
    }
  ],
  "bytecode": "0x608060405234801561001057600080fd5b5060405162001f1938038062001f198339818101604052604081101561003557600080fd5b5080516020909101516001600160a01b0382166100845760405162461bcd60e51b815260040180806020018281038252602c81526020018062001ec4602c913960400191505060405180910390fd5b6001600160a01b0381166100ca5760405162461bcd60e51b815260040180806020018281038252602981526020018062001ef06029913960400191505060405180910390fd5b600080546001600160a01b038085166001600160a01b03199283161783556001805485831693169290921791829055604080516315a722b960e31b81526411000000016004820181905291519194939092169263ad3915c8926024808201939182900301818387803b15801561013f57600080fd5b505af1158015610153573d6000803e3d6000fd5b50505050505050611d5a806200016a6000396000f3fe608060405234801561001057600080fd5b506004361061007d5760003560e01c8063bd2da4a31161005b578063bd2da4a31461032f578063be6baf9b146103bc578063d002c9a5146104d5578063da37411e146105b85761007d565b806307f1030a1461008257806317dd68ce146102155780632d9c9338146102a2575b600080fd5b6101a06004803603608081101561009857600080fd5b6001600160a01b038235169190810190604081016020820135600160201b8111156100c257600080fd5b8201836020820111156100d457600080fd5b803590602001918460208302840111600160201b831117156100f557600080fd5b919390929091602081019035600160201b81111561011257600080fd5b82018360208201111561012457600080fd5b803590602001918460208302840111600160201b8311171561014557600080fd5b919390929091602081019035600160201b81111561016257600080fd5b82018360208201111561017457600080fd5b803590602001918460018302840111600160201b8311171561019557600080fd5b50909250905061069b565b6040805160208082528351818301528351919283929083019185019080838360005b838110156101da5781810151838201526020016101c2565b50505050905090810190601f1680156102075780820380516001836020036101000a031916815260200191505b509250505060405180910390f35b6101a06004803603608081101561022b57600080fd5b6001600160a01b038235169190810190604081016020820135600160201b81111561025557600080fd5b82018360208201111561026757600080fd5b803590602001918460018302840111600160201b8311171561028857600080fd5b91935091506001600160a01b038135169060200135610b86565b6101a0600480360360808110156102b857600080fd5b6001600160a01b038235169190810190604081016020820135600160201b8111156102e257600080fd5b8201836020820111156102f457600080fd5b803590602001918460018302840111600160201b8311171561031557600080fd5b91935091506001600160a01b038135169060200135610bbf565b6101a06004803603608081101561034557600080fd5b6001600160a01b038235169190810190604081016020820135600160201b81111561036f57600080fd5b82018360208201111561038157600080fd5b803590602001918460018302840111600160201b831117156103a257600080fd5b91935091506001600160a01b038135169060200135610cc2565b6101a0600480360360a08110156103d257600080fd5b6001600160a01b038235169190810190604081016020820135600160201b8111156103fc57600080fd5b82018360208201111561040e57600080fd5b803590602001918460018302840111600160201b8311171561042f57600080fd5b919390926001600160a01b03833516926020810135929190606081019060400135600160201b81111561046157600080fd5b82018360208201111561047357600080fd5b803590602001918460018302840111600160201b8311171561049457600080fd5b91908080601f016020809104026020016040519081016040528093929190818152602001838380828437600092019190915250929550610cfb945050505050565b6101a0600480360360a08110156104eb57600080fd5b6001600160a01b038235169190810190604081016020820135600160201b81111561051557600080fd5b82018360208201111561052757600080fd5b803590602001918460018302840111600160201b8311171561054857600080fd5b919390926001600160a01b03833516926020810135929190606081019060400135600160201b81111561057a57600080fd5b82018360208201111561058c57600080fd5b803590602001918460018302840111600160201b831117156105ad57600080fd5b509092509050611220565b6101a0600480360360a08110156105ce57600080fd5b6001600160a01b038235169190810190604081016020820135600160201b8111156105f857600080fd5b82018360208201111561060a57600080fd5b803590602001918460018302840111600160201b8311171561062b57600080fd5b919390926001600160a01b03833516926020810135929190606081019060400135600160201b81111561065d57600080fd5b82018360208201111561066f57600080fd5b803590602001918460018302840111600160201b8311171561069057600080fd5b509092509050611b0c565b6001546060906001600160a01b031633146106e75760405162461bcd60e51b815260040180806020018281038252603a815260200180611c0b603a913960400191505060405180910390fd5b8584146107255760405162461bcd60e51b8152600401808060200182810382526029815260200180611cfc6029913960400191505060405180910390fd5b600154604051631fb6491d60e11b8152602060048201908152602482018590526000926001600160a01b031691633f6c923a9187918791908190604401848480828437600083820152604051601f909101601f1916909201955060a0945090925050508083038186803b15801561079b57600080fd5b505afa1580156107af573d6000803e3d6000fd5b505050506040513d60a08110156107c557600080fd5b506040908101516001600160a01b0381166000908152600260205291909120549091501561083a576040805162461bcd60e51b815260206004820152601d60248201527f4d46413a204d756c7469666c6f7720616c726561642063726561746564000000604482015290519081900360640190fd5b6001546040805163396994bf60e11b81526175306024820181905260048201928352604482018790526001600160a01b03909316926372d3297e928892889291908190606401858580828437600081840152601f19601f820116905080830192505050945050505050600060405180830381600087803b1580156108bd57600080fd5b505af11580156108d1573d6000803e3d6000fd5b505050506040513d6000823e601f3d908101601f1916820160405260208110156108fa57600080fd5b8101908080516040519392919084600160201b82111561091957600080fd5b90830190602082018581111561092e57600080fd5b8251600160201b81118282018810171561094757600080fd5b82525081516020918201929091019080838360005b8381101561097457818101518382015260200161095c565b50505050905090810190601f1680156109a15780820380516001836020036101000a031916815260200191505b50604052505050915060008060009054906101000a90046001600160a01b03166001600160a01b031663e6a1e8888b84306040518463ffffffff1660e01b815260040180846001600160a01b03168152602001836001600160a01b03168152602001826001600160a01b03168152602001935050505060806040518083038186803b158015610a2f57600080fd5b505afa158015610a43573d6000803e3d6000fd5b505050506040513d6080811015610a5957600080fd5b5060200151600b0b90508015610aa05760405162461bcd60e51b8152600401808060200182810382526029815260200180611be26029913960400191505060405180910390fd5b60005b88811015610b78576001600160a01b03831660009081526002602052604090819020815180830190925290808c8c85818110610adb57fe5b905060200201356001600160a01b03166001600160a01b031681526020018a8a85818110610b0557fe5b60209081029290920135600b90810b810b90935250835460018181018655600095865294829020845191018054949092015190920b6bffffffffffffffffffffffff16600160a01b026001600160a01b039283166001600160a01b03199094169390931790911691909117905501610aa3565b505050979650505050505050565b606060405162461bcd60e51b8152600401808060200182810382526033815260200180611c456033913960400191505060405180910390fd5b6000546060906001600160a01b03848116911614610c24576040805162461bcd60e51b815260206004820152601a60248201527f4d46413a20556e737570706f727465642061677265656d656e74000000000000604482015290519081900360640190fd5b6000805460408051631557a4cd60e31b81526001600160a01b038a81166004830152602482018790529151919092169163aabd2668916044808301926080929190829003018186803b158015610c7957600080fd5b505afa158015610c8d573d6000803e3d6000fd5b505050506040513d6080811015610ca357600080fd5b5060200151600b0b9050610cb78382611b45565b979650505050505050565b606060405162461bcd60e51b815260040180806020018281038252602f815260200180611ccd602f913960400191505060405180910390fd5b600154604051631fb6491d60e11b8152602060048201908152602482018790526060926000926001600160a01b0390911691633f6c923a918a918a918190604401848480828437600083820152604051601f909101601f1916909201955060a0945090925050508083038186803b158015610d7557600080fd5b505afa158015610d89573d6000803e3d6000fd5b505050506040513d60a0811015610d9f57600080fd5b5060409081015181516020601f8a0181900481028201810190935288815290925090889088908190840183828082843760009201829052509395505050505b6001600160a01b0382166000908152600260205260409020548110156111f357600154600080546001600160a01b03858116835260026020526040909220805493831693638d62bb019390921691635a5999e360e11b918e9130919088908110610e4457fe5b6000918252602080832091909101546040805184815292830190526001600160a01b0316915060405160240180856001600160a01b03168152602001846001600160a01b03168152602001836001600160a01b0316815260200180602001828103825283818151815260200191508051906020019080838360005b83811015610ed7578181015183820152602001610ebf565b50505050905090810190601f168015610f045780820380516001836020036101000a031916815260200191505b5095505050505050604051602081830303815290604052906001600160e01b0319166020820180516001600160e01b038381831617835250505050866040518463ffffffff1660e01b815260040180846001600160a01b031681526020018060200180602001838103835285818151815260200191508051906020019080838360005b83811015610f9f578181015183820152602001610f87565b50505050905090810190601f168015610fcc5780820380516001836020036101000a031916815260200191505b50838103825284518152845160209182019186019080838360005b83811015610fff578181015183820152602001610fe7565b50505050905090810190601f16801561102c5780820380516001836020036101000a031916815260200191505b5095505050505050600060405180830381600087803b15801561104e57600080fd5b505af1158015611062573d6000803e3d6000fd5b505050506040513d6000823e601f3d908101601f19168201604090815281101561108b57600080fd5b8101908080516040519392919084600160201b8211156110aa57600080fd5b9083019060208201858111156110bf57600080fd5b8251600160201b8111828201881017156110d857600080fd5b82525081516020918201929091019080838360005b838110156111055781810151838201526020016110ed565b50505050905090810190601f1680156111325780820380516001836020036101000a031916815260200191505b5060405260200180516040519392919084600160201b82111561115457600080fd5b90830190602082018581111561116957600080fd5b8251600160201b81118282018810171561118257600080fd5b82525081516020918201929091019080838360005b838110156111af578181015183820152602001611197565b50505050905090810190601f1680156111dc5780820380516001836020036101000a031916815260200191505b50604052509295505060019092019150610dde9050565b506001600160a01b038116600090815260026020526040812061121591611ba7565b509695505050505050565b600154604051631fb6491d60e11b8152602060048201908152602482018890526060926000926001600160a01b0390911691633f6c923a918b918b918190604401848480828437600083820152604051601f909101601f1916909201955060a0945090925050508083038186803b15801561129a57600080fd5b505afa1580156112ae573d6000803e3d6000fd5b505050506040513d60a08110156112c457600080fd5b506040908101516001600160a01b0381166000908152600260205291909120549091506113225760405162461bcd60e51b8152600401808060200182810382526027815260200180611c786027913960400191505060405180910390fd5b6000805460408051631557a4cd60e31b81526001600160a01b038d81166004830152602482018a90529151919092169163aabd2668916044808301926080929190829003018186803b15801561137757600080fd5b505afa15801561138b573d6000803e3d6000fd5b505050506040513d60808110156113a157600080fd5b50602001519050600b81900b6113ed576040805162461bcd60e51b815260206004820152600c60248201526b6e6f74207a65726f20706c7360a01b604482015290519081900360640190fd5b6001600160a01b0382166000908152600260209081526040808320805482518185028101850190935280835261147a93859084015b8282101561147157600084815260209081902060408051808201909152908401546001600160a01b0381168252600160a01b9004600b90810b810b900b81830152825260019092019101611422565b50505050611b6b565b905089898080601f01602080910402602001604051908101604052809392919081815260200183838082843760009201829052509397505050505b6001600160a01b038416600090815260026020526040902054811015611afd576001600160a01b03841660009081526002602052604081208054839081106114f957fe5b600091825260209091200154600160a01b9004600b90810b900b13611556576040805162461bcd60e51b815260206004820152600e60248201526d050726f706f7274696f6e203e20360941b604482015290519081900360640190fd5b600083600b0b136115a7576040805162461bcd60e51b8152602060048201526016602482015275526563656976696e6720666c6f77206973207a65726f60501b604482015290519081900360640190fd5b81600b0b600014156115f8576040805162461bcd60e51b815260206004820152601560248201527453756d206973207a65726f207a65726f207a65726f60581b604482015290519081900360640190fd5b6001600160a01b03841660009081526002602052604090208054600b84900b9185918490811061162457fe5b9060005260206000200160000160149054906101000a9004600b0b02600b0b8161164a57fe5b05600b0b61168d576040805162461bcd60e51b815260206004820152600b60248201526a53554d204953205a45524f60a81b604482015290519081900360640190fd5b600160009054906101000a90046001600160a01b03166001600160a01b0316638d62bb0160008054906101000a90046001600160a01b03166362fc305e60e01b8f600260008a6001600160a01b03166001600160a01b0316815260200190815260200160002086815481106116fe57fe5b60009182526020808320909101546001600160a01b038c811684526002909252604090922080549190921691600b8a900b918b91908a90811061173d57fe5b9060005260206000200160000160149054906101000a9004600b0b02600b0b8161176357fe5b604080516000808252602082019092529290910591905060405160240180856001600160a01b03168152602001846001600160a01b0316815260200183600b0b815260200180602001828103825283818151815260200191508051906020019080838360005b838110156117e15781810151838201526020016117c9565b50505050905090810190601f16801561180e5780820380516001836020036101000a031916815260200191505b5095505050505050604051602081830303815290604052906001600160e01b0319166020820180516001600160e01b038381831617835250505050886040518463ffffffff1660e01b815260040180846001600160a01b031681526020018060200180602001838103835285818151815260200191508051906020019080838360005b838110156118a9578181015183820152602001611891565b50505050905090810190601f1680156118d65780820380516001836020036101000a031916815260200191505b50838103825284518152845160209182019186019080838360005b838110156119095781810151838201526020016118f1565b50505050905090810190601f1680156119365780820380516001836020036101000a031916815260200191505b5095505050505050600060405180830381600087803b15801561195857600080fd5b505af115801561196c573d6000803e3d6000fd5b505050506040513d6000823e601f3d908101601f19168201604090815281101561199557600080fd5b8101908080516040519392919084600160201b8211156119b457600080fd5b9083019060208201858111156119c957600080fd5b8251600160201b8111828201881017156119e257600080fd5b82525081516020918201929091019080838360005b83811015611a0f5781810151838201526020016119f7565b50505050905090810190601f168015611a3c5780820380516001836020036101000a031916815260200191505b5060405260200180516040519392919084600160201b821115611a5e57600080fd5b908301906020820185811115611a7357600080fd5b8251600160201b811182820188101715611a8c57600080fd5b82525081516020918201929091019080838360005b83811015611ab9578181015183820152602001611aa1565b50505050905090810190601f168015611ae65780820380516001836020036101000a031916815260200191505b506040525092975050600190920191506114b59050565b50505050979650505050505050565b606060405162461bcd60e51b815260040180806020018281038252602e815260200180611c9f602e913960400191505060405180910390fd5b604080516020810193909352828101919091528051808303820181526060909201905290565b6000805b8251811015611ba157828181518110611b8457fe5b602002602001015160200151820191508080600101915050611b6f565b50919050565b5080546000825590600052602060002090810190611bc59190611bc8565b50565b5b80821115611bdd5760008155600101611bc9565b509056fe4d46413a205570646174657320617265206e6f7420737570706f727465642c20676f20746f2059414d4d46413a204f6e6c79206f6666696369616c207375706572666c75696420686f737420697320737570706f727465642062792074686520617070556e737570706f727465642063616c6c6261636b202d20204265666f72652041677265656d656e74205465726d696e617465644d46413a20437265617465204d756c746920466c6f77206669727374206f7220676f2061776179556e737570706f727465642063616c6c6261636b202d2041667465722041677265656d656e742055706461746564556e737570706f727465642063616c6c6261636b202d204265666f72652041677265656d656e7420437265617465644d46413a206e756d62657220726563656976657273206e6f7420657175616c20666c6f775261746573a264697066735822122042f971e760f938314b7a14e389360d8a41801a77cbde05b4a700f4fa6d054a6664736f6c634300070100334d46413a2063616e277420736574207a65726f206164647265737320617320636f6e7374616e7420466c6f774d46413a2063616e277420736574207a65726f2061646472657373206173205375706572666c756964",
  "immutableReferences": {},
  "sourcePath": "/home/hellwolf/Projects/superfluid/ethereum-contracts/contracts/apps/MultiFlowApp.sol",
  "compiler": {
    "name": "solc",
    "version": "0.7.1+commit.f4a555be.Emscripten.clang"
  },
  "schemaVersion": "3.2.5",
  "updatedAt": "2020-09-30T18:18:27.023Z",
  "devdoc": {
    "kind": "dev",
    "methods": {},
    "version": 1
  },
  "userdoc": {
    "kind": "user",
    "methods": {},
    "version": 1
  }
}