{
  "contractName": "SuperTokenStorageTester",
  "abi": [
    {
      "anonymous": false,
      "inputs": [
        {
          "indexed": true,
          "internalType": "address",
          "name": "agreementClass",
          "type": "address"
        },
        {
          "indexed": true,
          "internalType": "address",
          "name": "account",
          "type": "address"
        },
        {
          "indexed": false,
          "internalType": "bytes",
          "name": "state",
          "type": "bytes"
        }
      ],
      "name": "AgreementAccountStateUpdated",
      "type": "event"
    },
    {
      "anonymous": false,
      "inputs": [
        {
          "indexed": true,
          "internalType": "address",
          "name": "agreementClass",
          "type": "address"
        },
        {
          "indexed": false,
          "internalType": "bytes32",
          "name": "id",
          "type": "bytes32"
        },
        {
          "indexed": false,
          "internalType": "bytes32[]",
          "name": "data",
          "type": "bytes32[]"
        }
      ],
      "name": "AgreementCreated",
      "type": "event"
    },
    {
      "anonymous": false,
      "inputs": [
        {
          "indexed": true,
          "internalType": "address",
          "name": "agreementClass",
          "type": "address"
        },
        {
          "indexed": false,
          "internalType": "bytes32",
          "name": "id",
          "type": "bytes32"
        },
        {
          "indexed": true,
          "internalType": "address",
          "name": "penaltyAccount",
          "type": "address"
        },
        {
          "indexed": true,
          "internalType": "address",
          "name": "rewardAccount",
          "type": "address"
        },
        {
          "indexed": false,
          "internalType": "uint256",
          "name": "deposit",
          "type": "uint256"
        }
      ],
      "name": "AgreementLiquidated",
      "type": "event"
    },
    {
      "anonymous": false,
      "inputs": [
        {
          "indexed": true,
          "internalType": "address",
          "name": "agreementClass",
          "type": "address"
        },
        {
          "indexed": true,
          "internalType": "address",
          "name": "account",
          "type": "address"
        },
        {
          "indexed": false,
          "internalType": "uint256",
          "name": "slotId",
          "type": "uint256"
        }
      ],
      "name": "AgreementStateUpdated",
      "type": "event"
    },
    {
      "anonymous": false,
      "inputs": [
        {
          "indexed": true,
          "internalType": "address",
          "name": "agreementClass",
          "type": "address"
        },
        {
          "indexed": false,
          "internalType": "bytes32",
          "name": "id",
          "type": "bytes32"
        }
      ],
      "name": "AgreementTerminated",
      "type": "event"
    },
    {
      "anonymous": false,
      "inputs": [
        {
          "indexed": true,
          "internalType": "address",
          "name": "agreementClass",
          "type": "address"
        },
        {
          "indexed": false,
          "internalType": "bytes32",
          "name": "id",
          "type": "bytes32"
        },
        {
          "indexed": false,
          "internalType": "bytes32[]",
          "name": "data",
          "type": "bytes32[]"
        }
      ],
      "name": "AgreementUpdated",
      "type": "event"
    },
    {
      "anonymous": false,
      "inputs": [
        {
          "indexed": true,
          "internalType": "address",
          "name": "owner",
          "type": "address"
        },
        {
          "indexed": true,
          "internalType": "address",
          "name": "spender",
          "type": "address"
        },
        {
          "indexed": false,
          "internalType": "uint256",
          "name": "value",
          "type": "uint256"
        }
      ],
      "name": "Approval",
      "type": "event"
    },
    {
      "anonymous": false,
      "inputs": [
        {
          "indexed": true,
          "internalType": "address",
          "name": "previousOwner",
          "type": "address"
        },
        {
          "indexed": true,
          "internalType": "address",
          "name": "newOwner",
          "type": "address"
        }
      ],
      "name": "OwnershipTransferred",
      "type": "event"
    },
    {
      "anonymous": false,
      "inputs": [
        {
          "indexed": true,
          "internalType": "address",
          "name": "account",
          "type": "address"
        },
        {
          "indexed": false,
          "internalType": "uint256",
          "name": "amount",
          "type": "uint256"
        }
      ],
      "name": "TokenDowngraded",
      "type": "event"
    },
    {
      "anonymous": false,
      "inputs": [
        {
          "indexed": true,
          "internalType": "address",
          "name": "account",
          "type": "address"
        },
        {
          "indexed": false,
          "internalType": "uint256",
          "name": "amount",
          "type": "uint256"
        }
      ],
      "name": "TokenUpgraded",
      "type": "event"
    },
    {
      "anonymous": false,
      "inputs": [
        {
          "indexed": true,
          "internalType": "address",
          "name": "from",
          "type": "address"
        },
        {
          "indexed": true,
          "internalType": "address",
          "name": "to",
          "type": "address"
        },
        {
          "indexed": false,
          "internalType": "uint256",
          "name": "value",
          "type": "uint256"
        }
      ],
      "name": "Transfer",
      "type": "event"
    },
    {
      "inputs": [],
      "name": "STANDARD_DECIMALS",
      "outputs": [
        {
          "internalType": "uint8",
          "name": "",
          "type": "uint8"
        }
      ],
      "stateMutability": "view",
      "type": "function"
    },
    {
      "inputs": [
        {
          "internalType": "address",
          "name": "account",
          "type": "address"
        },
        {
          "internalType": "address",
          "name": "spender",
          "type": "address"
        }
      ],
      "name": "allowance",
      "outputs": [
        {
          "internalType": "uint256",
          "name": "",
          "type": "uint256"
        }
      ],
      "stateMutability": "view",
      "type": "function"
    },
    {
      "inputs": [
        {
          "internalType": "address",
          "name": "spender",
          "type": "address"
        },
        {
          "internalType": "uint256",
          "name": "amount",
          "type": "uint256"
        }
      ],
      "name": "approve",
      "outputs": [
        {
          "internalType": "bool",
          "name": "",
          "type": "bool"
        }
      ],
      "stateMutability": "nonpayable",
      "type": "function"
    },
    {
      "inputs": [
        {
          "internalType": "address",
          "name": "account",
          "type": "address"
        }
      ],
      "name": "balanceOf",
      "outputs": [
        {
          "internalType": "uint256",
          "name": "balance",
          "type": "uint256"
        }
      ],
      "stateMutability": "view",
      "type": "function"
    },
    {
      "inputs": [
        {
          "internalType": "bytes32",
          "name": "id",
          "type": "bytes32"
        },
        {
          "internalType": "bytes32[]",
          "name": "data",
          "type": "bytes32[]"
        }
      ],
      "name": "createAgreement",
      "outputs": [],
      "stateMutability": "nonpayable",
      "type": "function"
    },
    {
      "inputs": [],
      "name": "decimals",
      "outputs": [
        {
          "internalType": "uint8",
          "name": "",
          "type": "uint8"
        }
      ],
      "stateMutability": "pure",
      "type": "function"
    },
    {
      "inputs": [
        {
          "internalType": "uint256",
          "name": "amount",
          "type": "uint256"
        }
      ],
      "name": "downgrade",
      "outputs": [],
      "stateMutability": "nonpayable",
      "type": "function"
    },
    {
      "inputs": [
        {
          "internalType": "address",
          "name": "account",
          "type": "address"
        }
      ],
      "name": "getAccountActiveAgreements",
      "outputs": [
        {
          "internalType": "address[]",
          "name": "",
          "type": "address[]"
        }
      ],
      "stateMutability": "view",
      "type": "function"
    },
    {
      "inputs": [
        {
          "internalType": "address",
          "name": "agreementClass",
          "type": "address"
        },
        {
          "internalType": "bytes32",
          "name": "id",
          "type": "bytes32"
        },
        {
          "internalType": "uint256",
          "name": "dataLength",
          "type": "uint256"
        }
      ],
      "name": "getAgreementData",
      "outputs": [
        {
          "internalType": "bytes32[]",
          "name": "data",
          "type": "bytes32[]"
        }
      ],
      "stateMutability": "view",
      "type": "function"
    },
    {
      "inputs": [
        {
          "internalType": "address",
          "name": "agreementClass",
          "type": "address"
        },
        {
          "internalType": "address",
          "name": "account",
          "type": "address"
        },
        {
          "internalType": "uint256",
          "name": "slotId",
          "type": "uint256"
        },
        {
          "internalType": "uint256",
          "name": "dataLength",
          "type": "uint256"
        }
      ],
      "name": "getAgreementStateSlot",
      "outputs": [
        {
          "internalType": "bytes32[]",
          "name": "slotData",
          "type": "bytes32[]"
        }
      ],
      "stateMutability": "view",
      "type": "function"
    },
    {
      "inputs": [],
      "name": "getCodeAddress",
      "outputs": [
        {
          "internalType": "address",
          "name": "codeAddress",
          "type": "address"
        }
      ],
      "stateMutability": "view",
      "type": "function"
    },
    {
      "inputs": [],
      "name": "getHost",
      "outputs": [
        {
          "internalType": "address",
          "name": "host",
          "type": "address"
        }
      ],
      "stateMutability": "view",
      "type": "function"
    },
    {
      "inputs": [],
      "name": "getUnderlayingToken",
      "outputs": [
        {
          "internalType": "address",
          "name": "",
          "type": "address"
        }
      ],
      "stateMutability": "view",
      "type": "function"
    },
    {
      "inputs": [
        {
          "internalType": "contract IERC20",
          "name": "underlyingToken",
          "type": "address"
        },
        {
          "internalType": "uint8",
          "name": "underlyingDecimals",
          "type": "uint8"
        },
        {
          "internalType": "string",
          "name": "name",
          "type": "string"
        },
        {
          "internalType": "string",
          "name": "symbol",
          "type": "string"
        },
        {
          "internalType": "contract ISuperfluid",
          "name": "host",
          "type": "address"
        }
      ],
      "name": "initialize",
      "outputs": [],
      "stateMutability": "nonpayable",
      "type": "function"
    },
    {
      "inputs": [
        {
          "internalType": "address",
          "name": "account",
          "type": "address"
        }
      ],
      "name": "isAccountInsolvent",
      "outputs": [
        {
          "internalType": "bool",
          "name": "",
          "type": "bool"
        }
      ],
      "stateMutability": "view",
      "type": "function"
    },
    {
      "inputs": [],
      "name": "isOwner",
      "outputs": [
        {
          "internalType": "bool",
          "name": "",
          "type": "bool"
        }
      ],
      "stateMutability": "view",
      "type": "function"
    },
    {
      "inputs": [
        {
          "internalType": "address",
          "name": "liquidator",
          "type": "address"
        },
        {
          "internalType": "bytes32",
          "name": "id",
          "type": "bytes32"
        },
        {
          "internalType": "address",
          "name": "account",
          "type": "address"
        },
        {
          "internalType": "uint256",
          "name": "deposit",
          "type": "uint256"
        }
      ],
      "name": "liquidateAgreement",
      "outputs": [],
      "stateMutability": "nonpayable",
      "type": "function"
    },
    {
      "inputs": [],
      "name": "name",
      "outputs": [
        {
          "internalType": "string",
          "name": "",
          "type": "string"
        }
      ],
      "stateMutability": "view",
      "type": "function"
    },
    {
      "inputs": [
        {
          "internalType": "address",
          "name": "account",
          "type": "address"
        },
        {
          "internalType": "address",
          "name": "spender",
          "type": "address"
        },
        {
          "internalType": "uint256",
          "name": "amount",
          "type": "uint256"
        }
      ],
      "name": "operationApprove",
      "outputs": [],
      "stateMutability": "nonpayable",
      "type": "function"
    },
    {
      "inputs": [
        {
          "internalType": "address",
          "name": "account",
          "type": "address"
        },
        {
          "internalType": "uint256",
          "name": "amount",
          "type": "uint256"
        }
      ],
      "name": "operationDowngrade",
      "outputs": [],
      "stateMutability": "nonpayable",
      "type": "function"
    },
    {
      "inputs": [
        {
          "internalType": "address",
          "name": "account",
          "type": "address"
        },
        {
          "internalType": "address",
          "name": "sender",
          "type": "address"
        },
        {
          "internalType": "address",
          "name": "recipient",
          "type": "address"
        },
        {
          "internalType": "uint256",
          "name": "amount",
          "type": "uint256"
        }
      ],
      "name": "operationTransferFrom",
      "outputs": [],
      "stateMutability": "nonpayable",
      "type": "function"
    },
    {
      "inputs": [
        {
          "internalType": "address",
          "name": "account",
          "type": "address"
        },
        {
          "internalType": "uint256",
          "name": "amount",
          "type": "uint256"
        }
      ],
      "name": "operationUpgrade",
      "outputs": [],
      "stateMutability": "nonpayable",
      "type": "function"
    },
    {
      "inputs": [],
      "name": "owner",
      "outputs": [
        {
          "internalType": "address",
          "name": "",
          "type": "address"
        }
      ],
      "stateMutability": "view",
      "type": "function"
    },
    {
      "inputs": [],
      "name": "proxiableUUID",
      "outputs": [
        {
          "internalType": "bytes32",
          "name": "",
          "type": "bytes32"
        }
      ],
      "stateMutability": "pure",
      "type": "function"
    },
    {
      "inputs": [
        {
          "internalType": "address",
          "name": "account",
          "type": "address"
        },
        {
          "internalType": "uint256",
          "name": "timestamp",
          "type": "uint256"
        }
      ],
      "name": "realtimeBalanceOf",
      "outputs": [
        {
          "internalType": "int256",
          "name": "availableBalance",
          "type": "int256"
        },
        {
          "internalType": "uint256",
          "name": "deposit",
          "type": "uint256"
        },
        {
          "internalType": "uint256",
          "name": "owedDeposit",
          "type": "uint256"
        }
      ],
      "stateMutability": "view",
      "type": "function"
    },
    {
      "inputs": [
        {
          "internalType": "address",
          "name": "account",
          "type": "address"
        }
      ],
      "name": "realtimeBalanceOfNow",
      "outputs": [
        {
          "internalType": "int256",
          "name": "availableBalance",
          "type": "int256"
        },
        {
          "internalType": "uint256",
          "name": "deposit",
          "type": "uint256"
        },
        {
          "internalType": "uint256",
          "name": "owedDeposit",
          "type": "uint256"
        }
      ],
      "stateMutability": "view",
      "type": "function"
    },
    {
      "inputs": [],
      "name": "renounceOwnership",
      "outputs": [],
      "stateMutability": "nonpayable",
      "type": "function"
    },
    {
      "inputs": [
        {
          "internalType": "address",
          "name": "account",
          "type": "address"
        },
        {
          "internalType": "int256",
          "name": "delta",
          "type": "int256"
        }
      ],
      "name": "settleBalance",
      "outputs": [],
      "stateMutability": "nonpayable",
      "type": "function"
    },
    {
      "inputs": [],
      "name": "symbol",
      "outputs": [
        {
          "internalType": "string",
          "name": "",
          "type": "string"
        }
      ],
      "stateMutability": "view",
      "type": "function"
    },
    {
      "inputs": [
        {
          "internalType": "bytes32",
          "name": "id",
          "type": "bytes32"
        },
        {
          "internalType": "uint256",
          "name": "dataLength",
          "type": "uint256"
        }
      ],
      "name": "terminateAgreement",
      "outputs": [],
      "stateMutability": "nonpayable",
      "type": "function"
    },
    {
      "inputs": [],
      "name": "totalSupply",
      "outputs": [
        {
          "internalType": "uint256",
          "name": "",
          "type": "uint256"
        }
      ],
      "stateMutability": "view",
      "type": "function"
    },
    {
      "inputs": [
        {
          "internalType": "address",
          "name": "recipient",
          "type": "address"
        },
        {
          "internalType": "uint256",
          "name": "amount",
          "type": "uint256"
        }
      ],
      "name": "transfer",
      "outputs": [
        {
          "internalType": "bool",
          "name": "",
          "type": "bool"
        }
      ],
      "stateMutability": "nonpayable",
      "type": "function"
    },
    {
      "inputs": [
        {
          "internalType": "address",
          "name": "recipient",
          "type": "address"
        }
      ],
      "name": "transferAll",
      "outputs": [],
      "stateMutability": "nonpayable",
      "type": "function"
    },
    {
      "inputs": [
        {
          "internalType": "address",
          "name": "sender",
          "type": "address"
        },
        {
          "internalType": "address",
          "name": "recipient",
          "type": "address"
        },
        {
          "internalType": "uint256",
          "name": "amount",
          "type": "uint256"
        }
      ],
      "name": "transferFrom",
      "outputs": [
        {
          "internalType": "bool",
          "name": "",
          "type": "bool"
        }
      ],
      "stateMutability": "nonpayable",
      "type": "function"
    },
    {
      "inputs": [
        {
          "internalType": "address",
          "name": "newOwner",
          "type": "address"
        }
      ],
      "name": "transferOwnership",
      "outputs": [],
      "stateMutability": "nonpayable",
      "type": "function"
    },
    {
      "inputs": [
        {
          "internalType": "bytes32",
          "name": "id",
          "type": "bytes32"
        },
        {
          "internalType": "bytes32[]",
          "name": "data",
          "type": "bytes32[]"
        }
      ],
      "name": "updateAgreementData",
      "outputs": [],
      "stateMutability": "nonpayable",
      "type": "function"
    },
    {
      "inputs": [
        {
          "internalType": "address",
          "name": "account",
          "type": "address"
        },
        {
          "internalType": "uint256",
          "name": "slotId",
          "type": "uint256"
        },
        {
          "internalType": "bytes32[]",
          "name": "slotData",
          "type": "bytes32[]"
        }
      ],
      "name": "updateAgreementStateSlot",
      "outputs": [],
      "stateMutability": "nonpayable",
      "type": "function"
    },
    {
      "inputs": [
        {
          "internalType": "address",
          "name": "newAddress",
          "type": "address"
        }
      ],
      "name": "updateCode",
      "outputs": [],
      "stateMutability": "nonpayable",
      "type": "function"
    },
    {
      "inputs": [
        {
          "internalType": "uint256",
          "name": "amount",
          "type": "uint256"
        }
      ],
      "name": "upgrade",
      "outputs": [],
      "stateMutability": "nonpayable",
      "type": "function"
    },
    {
      "inputs": [],
      "name": "validate",
      "outputs": [],
      "stateMutability": "pure",
      "type": "function"
    }
  ],
  "bytecode": "0x608060405234801561001057600080fd5b50612fdf806100206000396000f3fe608060405234801561001057600080fd5b50600436106102485760003560e01c806362aa52871161013b578063a1b2bf8b116100b8578063cf97256d1161007c578063cf97256d14610977578063dd62ed3e146109a3578063eb3537cc146109d1578063f2fde38b146109fd578063f3c70aad14610a2357610248565b8063a1b2bf8b146107a5578063a3a7e7f31461081a578063a9059cbb14610840578063b6f972261461086c578063ca7894641461094b57610248565b80638960bb19116100ff5780638960bb191461072d5780638da5cb5b146107675780638f32d59b1461076f5780638fb4c9951461077757806395d89b411461079d57610248565b806362aa52871461068f5780636901f668146106c55780636c2d9f2f146106cd57806370a08231146106ff578063715018a61461072557610248565b806327048397116101c957806345977d031161018d57806345977d0314610600578063469519541461061d5780634b61cc331461064357806350d75d251461067f57806352d1902d1461068757610248565b806327048397146104fd5780632ec8eec714610520578063313ce56714610564578063386fa221146105825780633f3dc491146105f857610248565b806316d055d61161021057806316d055d61461042157806318160ddd1461045d57806320bc44251461047757806323b872dd1461049b578063245887fc146104d157610248565b806306fdde031461024d578063090c415e146102ca578063095ea7b31461034f57806311bcc81e1461038f57806312a6a3f8146103ac575b600080fd5b610255610a2b565b6040805160208082528351818301528351919283929083019185019080838360005b8381101561028f578181015183820152602001610277565b50505050905090810190601f1680156102bc5780820380516001836020036101000a031916815260200191505b509250505060405180910390f35b61034d600480360360608110156102e057600080fd5b6001600160a01b0382351691602081013591810190606081016040820135600160201b81111561030f57600080fd5b82018360208201111561032157600080fd5b803590602001918460208302840111600160201b8311171561034257600080fd5b509092509050610abe565b005b61037b6004803603604081101561036557600080fd5b506001600160a01b038135169060200135610cd0565b604080519115158252519081900360200190f35b61034d600480360360208110156103a557600080fd5b5035610ce6565b61034d600480360360408110156103c257600080fd5b81359190810190604081016020820135600160201b8111156103e357600080fd5b8201836020820111156103f557600080fd5b803590602001918460208302840111600160201b8311171561041657600080fd5b509092509050610cf3565b61034d6004803603608081101561043757600080fd5b506001600160a01b03813581169160208101358216916040820135169060600135610f30565b610465610fb9565b60408051918252519081900360200190f35b61047f611035565b604080516001600160a01b039092168252519081900360200190f35b61037b600480360360608110156104b157600080fd5b506001600160a01b03813581169160208101359091169060400135611044565b61034d600480360360408110156104e757600080fd5b506001600160a01b03813516906020013561105c565b61034d6004803603604081101561051357600080fd5b50803590602001356110b7565b6105466004803603602081101561053657600080fd5b50356001600160a01b0316611281565b60408051938452602084019290925282820152519081900360600190f35b61056c61129d565b6040805160ff9092168252519081900360200190f35b6105a86004803603602081101561059857600080fd5b50356001600160a01b03166112a2565b60408051602080825283518183015283519192839290830191858101910280838360005b838110156105e45781810151838201526020016105cc565b505050509050019250505060405180910390f35b61047f61143b565b61034d6004803603602081101561061657600080fd5b503561144a565b61034d6004803603602081101561063357600080fd5b50356001600160a01b0316611454565b6105a86004803603608081101561065957600080fd5b506001600160a01b038135811691602081013590911690604081013590606001356114b6565b61047f611534565b610465611543565b61034d600480360360608110156106a557600080fd5b506001600160a01b03813581169160208101359091169060400135611567565b61034d6115c4565b6105a8600480360360608110156106e357600080fd5b506001600160a01b0381351690602081013590604001356115cd565b6104656004803603602081101561071557600080fd5b50356001600160a01b031661163c565b61034d611665565b61034d6004803603608081101561074357600080fd5b506001600160a01b0381358116916020810135916040820135169060600135611708565b61047f611b15565b61037b611b24565b61037b6004803603602081101561078d57600080fd5b50356001600160a01b0316611b35565b610255611b4e565b61034d600480360360408110156107bb57600080fd5b81359190810190604081016020820135600160201b8111156107dc57600080fd5b8201836020820111156107ee57600080fd5b803590602001918460208302840111600160201b8311171561080f57600080fd5b509092509050611baf565b61034d6004803603602081101561083057600080fd5b50356001600160a01b0316611dec565b61037b6004803603604081101561085657600080fd5b506001600160a01b038135169060200135611dff565b61034d600480360360a081101561088257600080fd5b6001600160a01b038235169160ff60208201351691810190606081016040820135600160201b8111156108b457600080fd5b8201836020820111156108c657600080fd5b803590602001918460018302840111600160201b831117156108e757600080fd5b919390929091602081019035600160201b81111561090457600080fd5b82018360208201111561091657600080fd5b803590602001918460018302840111600160201b8311171561093757600080fd5b9193509150356001600160a01b0316611e0c565b61034d6004803603604081101561096157600080fd5b506001600160a01b038135169060200135611eeb565b61034d6004803603604081101561098d57600080fd5b506001600160a01b038135169060200135611f42565b610465600480360360408110156109b957600080fd5b506001600160a01b03813581169160200135166120b3565b610546600480360360408110156109e757600080fd5b506001600160a01b0381351690602001356120de565b61034d60048036036020811015610a1357600080fd5b50356001600160a01b03166120fb565b61056c61215d565b60028054604080516020601f6000196101006001871615020190941685900493840181900481028201810190925282815260609390929091830182828015610ab45780601f10610a8957610100808354040283529160200191610ab4565b820191906000526020600020905b815481529060010190602001808311610a9757829003601f168201915b5050505050905090565b6000600460009054906101000a90046001600160a01b03166001600160a01b031663289b3c0d6040518163ffffffff1660e01b815260040160206040518083038186803b158015610b0e57600080fd5b505afa158015610b22573d6000803e3d6000fd5b505050506040513d6020811015610b3857600080fd5b50516040805163f9029be560e01b815233600482015290519192506001600160a01b0383169163f9029be591602480820192602092909190829003018186803b158015610b8457600080fd5b505afa158015610b98573d6000803e3d6000fd5b505050506040513d6020811015610bae57600080fd5b5051610beb5760405162461bcd60e51b8152600401808060200182810382526022815260200180612ecf6022913960400191505060405180910390fd5b6040805133818301526001600160a01b03871660608201526080808201879052602080830191909152600e60a08301526d41677265656d656e74537461746560901b60c0808401919091528351808403909101815260e08301808552815191830191909120610100928702808501840190955286825293610c88938593899289928392019084908082843760009201919091525061216292505050565b6040805186815290516001600160a01b0388169133917f30f416fa68fca014a0f334464c64b000ba53e99b6d2afdea9d5ca756372d59859181900360200190a3505050505050565b6000610cdd338484612194565b50600192915050565b610cf033826122ac565b50565b6000600460009054906101000a90046001600160a01b03166001600160a01b031663289b3c0d6040518163ffffffff1660e01b815260040160206040518083038186803b158015610d4357600080fd5b505afa158015610d57573d6000803e3d6000fd5b505050506040513d6020811015610d6d57600080fd5b50516040805163f9029be560e01b815233600482015290519192506001600160a01b0383169163f9029be591602480820192602092909190829003018186803b158015610db957600080fd5b505afa158015610dcd573d6000803e3d6000fd5b505050506040513d6020811015610de357600080fd5b5051610e205760405162461bcd60e51b8152600401808060200182810382526022815260200180612ecf6022913960400191505060405180910390fd5b60408051338183018190526060808301889052602080840191909152600d60808401526c41677265656d656e744461746160981b60a0808501919091528451808503909101815260c0840180865281519183019190912060e0928802808601840190965287825292949293610eb39385938a928a9283929091019084908082843760009201919091525061216292505050565b816001600160a01b03167f770ea40a13a4644573ed785e5c7116890709947918747febc5add46feb531e2d87878760405180848152602001806020018281038252848482818152602001925060200280828437600083820152604051601f909101601f1916909201829003965090945050505050a2505050505050565b6004546001600160a01b03163314610f7d576040805162461bcd60e51b815260206004820152601e6024820152600080516020612f12833981519152604482015290519081900360640190fd5b826001600160a01b0316846001600160a01b03161415610fa757610fa28483836123d2565b610fb3565b610fb384848484612538565b50505050565b600154604080516370a0823160e01b815230600482015290516000926001600160a01b0316916370a08231916024808301926020929190829003018186803b15801561100457600080fd5b505afa158015611018573d6000803e3d6000fd5b505050506040513d602081101561102e57600080fd5b5051905090565b6004546001600160a01b031690565b600061105233858585612538565b5060019392505050565b6004546001600160a01b031633146110a9576040805162461bcd60e51b815260206004820152601e6024820152600080516020612f12833981519152604482015290519081900360640190fd5b6110b382826122ac565b5050565b6000600460009054906101000a90046001600160a01b03166001600160a01b031663289b3c0d6040518163ffffffff1660e01b815260040160206040518083038186803b15801561110757600080fd5b505afa15801561111b573d6000803e3d6000fd5b505050506040513d602081101561113157600080fd5b50516040805163f9029be560e01b815233600482015290519192506001600160a01b0383169163f9029be591602480820192602092909190829003018186803b15801561117d57600080fd5b505afa158015611191573d6000803e3d6000fd5b505050506040513d60208110156111a757600080fd5b50516111e45760405162461bcd60e51b8152600401808060200182810382526022815260200180612ecf6022913960400191505060405180910390fd5b60408051338183018190526060808301879052602080840191909152600d60808401526c41677265656d656e744461746160981b60a0808501919091528451808503909101815260c0909301909352815191909201206112448185612597565b60408051868152905133917f71a63dc095de07aa5512ad57a7596a39516317e316981a1cd71000057be1537b919081900360200190a25050505050565b600080600061129084426120de565b9250925092509193909250565b601290565b600480546040805163289b3c0d60e01b815290516060936000936001600160a01b03169263289b3c0d9281830192602092829003018186803b1580156112e757600080fd5b505afa1580156112fb573d6000803e3d6000fd5b505050506040513d602081101561131157600080fd5b50516001600160a01b0384811660009081526007602052604080822054815163bebb6f2f60e01b81529019600482015290519394509184169263bebb6f2f926024808201939291829003018186803b15801561136c57600080fd5b505afa158015611380573d6000803e3d6000fd5b505050506040513d6000823e601f3d908101601f1916820160405260208110156113a957600080fd5b8101908080516040519392919084600160201b8211156113c857600080fd5b9083019060208201858111156113dd57600080fd5b82518660208202830111600160201b821117156113f957600080fd5b82525081516020918201928201910280838360005b8381101561142657818101518382015260200161140e565b50505050905001604052505050915050919050565b6001546001600160a01b031690565b610cf033826125b0565b61145c611b24565b6114ad576040805162461bcd60e51b815260206004820181905260248201527f4f776e61626c653a2063616c6c6572206973206e6f7420746865206f776e6572604482015290519081900360640190fd5b610cf081612695565b604080516001600160a01b038087168284015285166060828101919091526080808301869052602080840191909152600e60a08401526d41677265656d656e74537461746560901b60c0808501919091528451808503909101815260e09093019093528151919092012061152a818461275d565b9695505050505050565b600061153e6127de565b905090565b7f6bfbb132610e56cb96575dba244667b9d6dbfeffe22b68a79fa16f2d18eb001990565b6004546001600160a01b031633146115b4576040805162461bcd60e51b815260206004820152601e6024820152600080516020612f12833981519152604482015290519081900360640190fd5b6115bf838383612194565b505050565b600760006110b3565b604080516001600160a01b0385168183015260608181018590526020808301829052600d60808401526c41677265656d656e744461746160981b60a0808501919091528451808503909101815260c090930190935281519190920120611633818461275d565b95945050505050565b6000806116498342612803565b505090506000811261165b578061165e565b60005b9392505050565b61166d611b24565b6116be576040805162461bcd60e51b815260206004820181905260248201527f4f776e61626c653a2063616c6c6572206973206e6f7420746865206f776e6572604482015290519081900360640190fd5b600080546040516001600160a01b03909116907f8be0079c531659141344cd1fd0a4f28419497f9722a3daafe3b4186f6b6457e0908390a3600080546001600160a01b0319169055565b6000600460009054906101000a90046001600160a01b03166001600160a01b031663289b3c0d6040518163ffffffff1660e01b815260040160206040518083038186803b15801561175857600080fd5b505afa15801561176c573d6000803e3d6000fd5b505050506040513d602081101561178257600080fd5b50516040805163f9029be560e01b815233600482015290519192506001600160a01b0383169163f9029be591602480820192602092909190829003018186803b1580156117ce57600080fd5b505afa1580156117e2573d6000803e3d6000fd5b505050506040513d60208110156117f857600080fd5b50516118355760405162461bcd60e51b8152600401808060200182810382526022815260200180612ecf6022913960400191505060405180910390fd5b6000600460009054906101000a90046001600160a01b03166001600160a01b031663289b3c0d6040518163ffffffff1660e01b815260040160206040518083038186803b15801561188557600080fd5b505afa158015611899573d6000803e3d6000fd5b505050506040513d60208110156118af57600080fd5b5051604080516301c64fdd60e31b815230600482015290519192506000916001600160a01b03841691630e327ee8916024808301926020929190829003018186803b1580156118fd57600080fd5b505afa158015611911573d6000803e3d6000fd5b505050506040513d602081101561192757600080fd5b505190506001600160a01b03811661193c5750855b600061194886426120de565b509091506000905061195a8287612953565b90506000811315611a1b576001600160a01b0383166000908152600560205260409020546119889087612953565b6001600160a01b0380851660009081526005602052604080822093909355908916815220546119b790876129b8565b6001600160a01b038089166000818152600560209081526040918290209490945580518c81529384018a9052805192871693919233927f8505c3d8f1f184f032cf0bc4cd80ee61c8b9d94f8907c3281bf0101a2610fe8092908290030190a4611b0a565b6001600160a01b038916600090815260056020526040902054611a3e9087612953565b6001600160a01b03808b166000908152600560205260408082209390935590891681522054611a79908790611a7390856129b8565b906129b8565b6001600160a01b038089166000908152600560205260408082209390935590851681522054611aa89083612953565b6001600160a01b038085166000908152600560209081526040918290209390935580518b815292830189905280518c831693928b169233927f8505c3d8f1f184f032cf0bc4cd80ee61c8b9d94f8907c3281bf0101a2610fe8092918290030190a45b505050505050505050565b6000546001600160a01b031690565b6000546001600160a01b0316331490565b600080611b4283426120de565b50506000139392505050565b60038054604080516020601f6002600019610100600188161502019095169490940493840181900481028201810190925282815260609390929091830182828015610ab45780601f10610a8957610100808354040283529160200191610ab4565b6000600460009054906101000a90046001600160a01b03166001600160a01b031663289b3c0d6040518163ffffffff1660e01b815260040160206040518083038186803b158015611bff57600080fd5b505afa158015611c13573d6000803e3d6000fd5b505050506040513d6020811015611c2957600080fd5b50516040805163f9029be560e01b815233600482015290519192506001600160a01b0383169163f9029be591602480820192602092909190829003018186803b158015611c7557600080fd5b505afa158015611c89573d6000803e3d6000fd5b505050506040513d6020811015611c9f57600080fd5b5051611cdc5760405162461bcd60e51b8152600401808060200182810382526022815260200180612ecf6022913960400191505060405180910390fd5b60408051338183018190526060808301889052602080840191909152600d60808401526c41677265656d656e744461746160981b60a0808501919091528451808503909101815260c0840180865281519183019190912060e0928802808601840190965287825292949293611d6f9385938a928a9283929091019084908082843760009201919091525061216292505050565b336001600160a01b03167f0c4c547b3a4fcaa5be8353b3111472b124155bccc86de811d4a481c9e6e9faca87878760405180848152602001806020018281038252848482818152602001925060200280828437600083820152604051601f909101601f1916909201829003965090945050505050a2505050505050565b610cf03382611dfa3361163c565b6123d2565b6000610cdd3384846123d2565b600054600160a01b900460ff1615611e61576040805162461bcd60e51b8152602060048201526013602482015272185b1c9958591e481a5b9a5d1a585b1a5e9959606a1b604482015290519081900360640190fd5b600080546001600160a01b031960ff60a01b19918216600160a01b908117821633179093556001805460ff8b169094026001600160a01b038c169490921693909317909116179055611eb560028686612e15565b50611ec260038484612e15565b50600480546001600160a01b0319166001600160a01b0392909216919091179055505050505050565b6004546001600160a01b03163314611f38576040805162461bcd60e51b815260206004820152601e6024820152600080516020612f12833981519152604482015290519081900360640190fd5b6110b382826125b0565b6000600460009054906101000a90046001600160a01b03166001600160a01b031663289b3c0d6040518163ffffffff1660e01b815260040160206040518083038186803b158015611f9257600080fd5b505afa158015611fa6573d6000803e3d6000fd5b505050506040513d6020811015611fbc57600080fd5b50516040805163f9029be560e01b815233600482015290519192506001600160a01b0383169163f9029be591602480820192602092909190829003018186803b15801561200857600080fd5b505afa15801561201c573d6000803e3d6000fd5b505050506040513d602081101561203257600080fd5b505161206f5760405162461bcd60e51b8152600401808060200182810382526022815260200180612ecf6022913960400191505060405180910390fd5b6001600160a01b0383166000908152600560205260409020546120929083612953565b6001600160a01b039093166000908152600560205260409020929092555050565b6001600160a01b03918216600090815260066020908152604080832093909416825291909152205490565b60008060006120ed8585612803565b919790965090945092505050565b612103611b24565b612154576040805162461bcd60e51b815260206004820181905260248201527f4f776e61626c653a2063616c6c6572206973206e6f7420746865206f776e6572604482015290519081900360640190fd5b610cf081612a1d565b601281565b60005b81518110156115bf57600082828151811061217c57fe5b60209081029190910101518483015550600101612165565b6001600160a01b0383166121ef576040805162461bcd60e51b815260206004820152601960248201527f617070726f76652066726f6d207a65726f206164647265737300000000000000604482015290519081900360640190fd5b6001600160a01b03821661224a576040805162461bcd60e51b815260206004820152601760248201527f617070726f766520746f207a65726f2061646472657373000000000000000000604482015290519081900360640190fd5b6001600160a01b03808416600081815260066020908152604080832094871680845294825291829020859055815185815291517f8c5be1e5ebec7d5bd14f71427d1e84f3dd0314c0f7b2291e5b200ac8c7c3b9259281900390910190a3505050565b806122b68361163c565b10156122f35760405162461bcd60e51b815260040180806020018281038252602c815260200180612f7e602c913960400191505060405180910390fd5b60006122fe82612abd565b9250905061230c8383612b4f565b6001546040805163a9059cbb60e01b81526001600160a01b038681166004830152602482018590529151919092169163a9059cbb9160448083019260209291908290030181600087803b15801561236257600080fd5b505af1158015612376573d6000803e3d6000fd5b505050506040513d602081101561238c57600080fd5b50506040805183815290516001600160a01b038516917f3bc27981aebbb57f9247dc00fde9d6cd91e4b230083fec3238fedbcba1f9ab3d919081900360200190a2505050565b6001600160a01b03821661242d576040805162461bcd60e51b815260206004820152601860248201527f7472616e7366657220746f207a65726f20616464726573730000000000000000604482015290519081900360640190fd5b806124378461163c565b101561248a576040805162461bcd60e51b815260206004820152601f60248201527f7472616e7366657220616d6f756e7420657863656564732062616c616e636500604482015290519081900360640190fd5b6001600160a01b0383166000908152600560205260409020546124ad90826129b8565b6001600160a01b0380851660009081526005602052604080822093909355908416815220546124dc9082612953565b6001600160a01b0380841660008181526005602090815260409182902094909455805185815290519193928716927fddf252ad1be2c89b69c2b068fc378daa952ba7f163c4a11628f55a4df523b3ef92918290030190a3505050565b6125438383836123d2565b610fb3838561259284604051806060016040528060288152602001612f32602891396001600160a01b03808a166000908152600660209081526040808320938e16835292905220549190612c1d565b612194565b60005b818110156115bf5760008382015560010161259a565b60006125bb82612abd565b600154604080516323b872dd60e01b81526001600160a01b03888116600483015230602483015260448201869052915193965093945016916323b872dd9160648083019260209291908290030181600087803b15801561261a57600080fd5b505af115801561262e573d6000803e3d6000fd5b505050506040513d602081101561264457600080fd5b5061265190508383612cb4565b6040805183815290516001600160a01b038516917f25ca84076773b0455db53621c459ddc84fe40840e4932a62706a032566f399df919081900360200190a2505050565b806001600160a01b03166352d1902d6040518163ffffffff1660e01b815260040160206040518083038186803b1580156126ce57600080fd5b505afa1580156126e2573d6000803e3d6000fd5b505050506040513d60208110156126f857600080fd5b5051612702611543565b14612754576040805162461bcd60e51b815260206004820152601960248201527f50726f786961626c653a204e4f545f434f4d50415449424c4500000000000000604482015290519081900360640190fd5b610cf081612d81565b60608167ffffffffffffffff8111801561277657600080fd5b506040519080825280602002602001820160405280156127a0578160200160208202803683370190505b50905060005b828110156127d7576000818501549050808383815181106127c357fe5b6020908102919091010152506001016127a6565b5092915050565b7f360894a13ba1a3210667c828492db98dca3e2076cc3735a920a3ca505d382bbc5490565b6001600160a01b03821660009081526005602052604081205481908190606061282b876112a2565b905060005b815181101561292a57600080600084848151811061284a57fe5b60200260200101516001600160a01b0316639b2e48bc308d8d6040518463ffffffff1660e01b815260040180846001600160a01b03168152602001836001600160a01b03168152602001828152602001935050505060606040518083038186803b1580156128b757600080fd5b505afa1580156128cb573d6000803e3d6000fd5b505050506040513d60608110156128e157600080fd5b508051602082015160409092015190945090925090506129018684612953565b955061290d8883612da5565b97506129198782612da5565b965050600190920191506128309050565b506129486129388585612dff565b61294284876129b8565b90612953565b945050509250925092565b60008282018183128015906129685750838112155b8061297d575060008312801561297d57508381125b61165e5760405162461bcd60e51b8152600401808060200182810382526021815260200180612ef16021913960400191505060405180910390fd5b60008183038183128015906129cd5750838113155b806129e257506000831280156129e257508381135b61165e5760405162461bcd60e51b8152600401808060200182810382526024815260200180612f5a6024913960400191505060405180910390fd5b6001600160a01b038116612a625760405162461bcd60e51b8152600401808060200182810382526026815260200180612ea96026913960400191505060405180910390fd5b600080546040516001600160a01b03808516939216917f8be0079c531659141344cd1fd0a4f28419497f9722a3daafe3b4186f6b6457e091a3600080546001600160a01b0319166001600160a01b0392909216919091179055565b600154600090819081906012600160a01b90910460ff161015612b07575060015460ff600160a01b909104811660120316600a0a808481612afa57fe5b0492508083029150612b49565b6001546012600160a01b90910460ff161115612b4257505060015460111960ff600160a01b90920482160116600a0a82810291508290612b49565b8391508192505b50915091565b6001600160a01b038216612ba3576040805162461bcd60e51b81526020600482015260166024820152756275726e2066726f6d207a65726f206164647265737360501b604482015290519081900360640190fd5b6001600160a01b038216600090815260056020526040902054612bc690826129b8565b6001600160a01b0383166000818152600560209081526040808320949094558351858152935191937fddf252ad1be2c89b69c2b068fc378daa952ba7f163c4a11628f55a4df523b3ef929081900390910190a35050565b60008184841115612cac5760405162461bcd60e51b81526004018080602001828103825283818151815260200191508051906020019080838360005b83811015612c71578181015183820152602001612c59565b50505050905090810190601f168015612c9e5780820380516001836020036101000a031916815260200191505b509250505060405180910390fd5b505050900390565b6001600160a01b038216612d06576040805162461bcd60e51b81526020600482015260146024820152736d696e7420746f207a65726f206164647265737360601b604482015290519081900360640190fd5b6001600160a01b038216600090815260056020526040902054612d299082612953565b6001600160a01b03831660008181526005602090815260408083209490945583518581529351929391927fddf252ad1be2c89b69c2b068fc378daa952ba7f163c4a11628f55a4df523b3ef9281900390910190a35050565b7f360894a13ba1a3210667c828492db98dca3e2076cc3735a920a3ca505d382bbc55565b60008282018381101561165e576040805162461bcd60e51b815260206004820152601b60248201527f536166654d6174683a206164646974696f6e206f766572666c6f770000000000604482015290519081900360640190fd5b6000818310612e0e578161165e565b5090919050565b828054600181600116156101000203166002900490600052602060002090601f016020900481019282601f10612e565782800160ff19823516178555612e83565b82800160010185558215612e83579182015b82811115612e83578235825591602001919060010190612e68565b50612e8f929150612e93565b5090565b5b80821115612e8f5760008155600101612e9456fe4f776e61626c653a206e6577206f776e657220697320746865207a65726f206164647265737353463a204f6e6c79206c6973746564206167726565656d656e7420616c6c6f7765645369676e6564536166654d6174683a206164646974696f6e206f766572666c6f7753463a204f6e6c7920686f737420636f6e747261637420616c6c6f776564000045524332303a207472616e7366657220616d6f756e74206578636565647320616c6c6f77616e63655369676e6564536166654d6174683a207375627472616374696f6e206f766572666c6f775375706572546f6b656e3a20646f776e677261646520616d6f756e7420657863656564732062616c616e6365a2646970667358221220674d2a26a8bc1ea9df4edc099b9587bb31b8633ce87bc25529206ad7229a208f64736f6c63430007010033",
  "immutableReferences": {},
  "sourcePath": "/home/hellwolf/Projects/superfluid/ethereum-contracts/contracts/test/SuperTokenStorageTester.sol",
  "compiler": {
    "name": "solc",
    "version": "0.7.1+commit.f4a555be.Emscripten.clang"
  },
  "schemaVersion": "3.2.5",
  "updatedAt": "2020-09-30T18:18:27.104Z",
  "devdoc": {
    "details": "Test SuperTokenStorag Layout changes",
    "kind": "dev",
    "methods": {
      "allowance(address,address)": {
        "details": "See {IERC20-allowance}."
      },
      "approve(address,uint256)": {
        "details": "See {IERC20-approve}. Requirements: - `spender` cannot be the zero address."
      },
      "balanceOf(address)": {
        "details": "ERC20.balanceOf implementation"
      },
      "createAgreement(bytes32,bytes32[])": {
        "details": "ISuperToken.createAgreement implementation"
      },
      "decimals()": {
        "details": "Returns the number of decimals used to get its user representation. For example, if `decimals` equals `2`, a balance of `505` tokens should be displayed to a user as `5,05` (`505 / 10 ** 2`). Tokens usually opt for a value of 18, imitating the relationship between Ether and Wei. This is the value {ERC20} uses, unless {_setupDecimals} is called. NOTE: SuperToken always uses 18 decimals. Note: This information is only used for _display_ purposes: it in no way affects any of the arithmetic of the contract, including {IERC20-balanceOf} and {IERC20-transfer}."
      },
      "downgrade(uint256)": {
        "details": "ISuperToken.downgrade implementation"
      },
      "getAccountActiveAgreements(address)": {
        "details": "ISuperToken.getAccountActiveAgreements implementation"
      },
      "getAgreementData(address,bytes32,uint256)": {
        "details": "ISuperToken.getAgreementData implementation"
      },
      "getAgreementStateSlot(address,address,uint256,uint256)": {
        "details": "ISuperToken.getAgreementState implementation"
      },
      "getCodeAddress()": {
        "details": "Get current implementation code address."
      },
      "getHost()": {
        "details": "Get the contract address that is hosting this token.",
        "returns": {
          "host": "Superfluid host contract address"
        }
      },
      "getUnderlayingToken()": {
        "details": "ISuperfluidGovernance.getUnderlayingToken implementation"
      },
      "isAccountInsolvent(address)": {
        "details": "ISuperToken.isAccountInsolvent implementation"
      },
      "isOwner()": {
        "details": "Returns true if the caller is the current owner."
      },
      "liquidateAgreement(address,bytes32,address,uint256)": {
        "details": "ISuperToken.liquidateAgreement implementation"
      },
      "name()": {
        "details": "Returns the name of the token."
      },
      "operationApprove(address,address,uint256)": {
        "details": "Perform ERC20 approve by host contract.",
        "params": {
          "account": "The account owner to be approved.",
          "amount": "Number of tokens to be approved.",
          "spender": "The spender of account owner's funds."
        }
      },
      "operationDowngrade(address,uint256)": {
        "details": "Downgrade ERC20 to SuperToken by host contract.",
        "params": {
          "account": "The account to be changed.",
          "amount": "Number of tokens to be downgraded (in 18 decimals)"
        }
      },
      "operationTransferFrom(address,address,address,uint256)": {
        "details": "Perform ERC20 transfer from by host contract.",
        "params": {
          "account": "The account to spend sender's funds.",
          "amount": "Number of tokens to be transferred.",
          "recipient": "The recipient of thefunds.",
          "sender": "The account where the funds is sent from."
        }
      },
      "operationUpgrade(address,uint256)": {
        "details": "Upgrade ERC20 to SuperToken by host contract.",
        "params": {
          "account": "The account to be changed.",
          "amount": "Number of tokens to be upgraded (in 18 decimals)"
        }
      },
      "owner()": {
        "details": "Returns the address of the current owner."
      },
      "proxiableUUID()": {
        "details": "Proxiable UUID marker function.      This would help to avoid wrong logic contract to be used for upgrading."
      },
      "realtimeBalanceOf(address,uint256)": {
        "details": "ISuperToken.realtimeBalanceOf implementation"
      },
      "realtimeBalanceOfNow(address)": {
        "details": "realtimeBalanceOf with timestamp equals to block.timestamp"
      },
      "renounceOwnership()": {
        "details": "Leaves the contract without owner. It will not be possible to call `onlyOwner` functions anymore. Can only be called by the current owner. > Note: Renouncing ownership will leave the contract without an owner, thereby removing any functionality that is only available to the owner."
      },
      "settleBalance(address,int256)": {
        "details": "Settle balance from an account by the agreement.      The agreement needs to make sure that the balance delta is balanced afterwards",
        "params": {
          "account": "Account to query.",
          "delta": "Amount of balance delta to be settled"
        }
      },
      "symbol()": {
        "details": "Returns the symbol of the token, usually a shorter version of the name."
      },
      "terminateAgreement(bytes32,uint256)": {
        "details": "ISuperToken.terminateAgreement implementation"
      },
      "totalSupply()": {
        "details": "See {IERC20-totalSupply}."
      },
      "transfer(address,uint256)": {
        "details": "See {IERC20-transfer}. Requirements: - `recipient` cannot be the zero address. - the caller must have a balance of at least `amount`."
      },
      "transferFrom(address,address,uint256)": {
        "details": "See {IERC20-transferFrom}. Emits an {Approval} event indicating the updated allowance. This is not required by the EIP. See the note at the beginning of {ERC20}; Requirements: - `sender` and `recipient` cannot be the zero address. - `sender` must have a balance of at least `amount`. - the caller must have allowance for ``sender``'s tokens of at least `amount`."
      },
      "transferOwnership(address)": {
        "details": "Transfers ownership of the contract to a new account (`newOwner`). Can only be called by the current owner."
      },
      "updateAgreementData(bytes32,bytes32[])": {
        "details": "ISuperToken.updateAgreementData implementation"
      },
      "updateAgreementStateSlot(address,uint256,bytes32[])": {
        "details": "ISuperToken.updateAgreementState implementation"
      },
      "upgrade(uint256)": {
        "details": "ISuperToken.upgrade implementation"
      }
    },
    "version": 1
  },
  "userdoc": {
    "kind": "user",
    "methods": {},
    "version": 1
  }
}