{
  "contractName": "Superfluid",
  "abi": [
    {
      "anonymous": false,
      "inputs": [
        {
          "indexed": false,
          "internalType": "contract ISuperApp",
          "name": "app",
          "type": "address"
        },
        {
          "indexed": false,
          "internalType": "uint256",
          "name": "info",
          "type": "uint256"
        }
      ],
      "name": "Jail",
      "type": "event"
    },
    {
      "anonymous": false,
      "inputs": [
        {
          "indexed": true,
          "internalType": "address",
          "name": "previousOwner",
          "type": "address"
        },
        {
          "indexed": true,
          "internalType": "address",
          "name": "newOwner",
          "type": "address"
        }
      ],
      "name": "OwnershipTransferred",
      "type": "event"
    },
    {
      "inputs": [],
      "name": "getCodeAddress",
      "outputs": [
        {
          "internalType": "address",
          "name": "codeAddress",
          "type": "address"
        }
      ],
      "stateMutability": "view",
      "type": "function"
    },
    {
      "inputs": [],
      "name": "isOwner",
      "outputs": [
        {
          "internalType": "bool",
          "name": "",
          "type": "bool"
        }
      ],
      "stateMutability": "view",
      "type": "function"
    },
    {
      "inputs": [],
      "name": "owner",
      "outputs": [
        {
          "internalType": "address",
          "name": "",
          "type": "address"
        }
      ],
      "stateMutability": "view",
      "type": "function"
    },
    {
      "inputs": [],
      "name": "renounceOwnership",
      "outputs": [],
      "stateMutability": "nonpayable",
      "type": "function"
    },
    {
      "inputs": [
        {
          "internalType": "address",
          "name": "newOwner",
          "type": "address"
        }
      ],
      "name": "transferOwnership",
      "outputs": [],
      "stateMutability": "nonpayable",
      "type": "function"
    },
    {
      "inputs": [],
      "name": "initialize",
      "outputs": [],
      "stateMutability": "nonpayable",
      "type": "function"
    },
    {
      "inputs": [],
      "name": "proxiableUUID",
      "outputs": [
        {
          "internalType": "bytes32",
          "name": "",
          "type": "bytes32"
        }
      ],
      "stateMutability": "pure",
      "type": "function"
    },
    {
      "inputs": [
        {
          "internalType": "address",
          "name": "newAddress",
          "type": "address"
        }
      ],
      "name": "updateCode",
      "outputs": [],
      "stateMutability": "nonpayable",
      "type": "function"
    },
    {
      "inputs": [],
      "name": "getGovernance",
      "outputs": [
        {
          "internalType": "contract ISuperfluidGovernance",
          "name": "",
          "type": "address"
        }
      ],
      "stateMutability": "view",
      "type": "function"
    },
    {
      "inputs": [
        {
          "internalType": "contract ISuperfluidGovernance",
          "name": "gov",
          "type": "address"
        }
      ],
      "name": "setGovernance",
      "outputs": [],
      "stateMutability": "nonpayable",
      "type": "function"
    },
    {
      "inputs": [
        {
          "internalType": "contract ISuperToken",
          "name": "logic",
          "type": "address"
        }
      ],
      "name": "setSuperTokenLogic",
      "outputs": [],
      "stateMutability": "nonpayable",
      "type": "function"
    },
    {
      "inputs": [],
      "name": "getSuperTokenLogic",
      "outputs": [
        {
          "internalType": "contract ISuperToken",
          "name": "",
          "type": "address"
        }
      ],
      "stateMutability": "view",
      "type": "function"
    },
    {
      "inputs": [
        {
          "internalType": "contract IERC20",
          "name": "underlyingToken",
          "type": "address"
        },
        {
          "internalType": "string",
          "name": "symbol",
          "type": "string"
        }
      ],
      "name": "getERC20Wrapper",
      "outputs": [
        {
          "internalType": "address",
          "name": "wrapperAddress",
          "type": "address"
        },
        {
          "internalType": "bool",
          "name": "created",
          "type": "bool"
        }
      ],
      "stateMutability": "view",
      "type": "function"
    },
    {
      "inputs": [
        {
          "internalType": "contract IERC20",
          "name": "underlyingToken",
          "type": "address"
        },
        {
          "internalType": "uint8",
          "name": "underlyingDecimals",
          "type": "uint8"
        },
        {
          "internalType": "string",
          "name": "name",
          "type": "string"
        },
        {
          "internalType": "string",
          "name": "symbol",
          "type": "string"
        }
      ],
      "name": "createERC20Wrapper",
      "outputs": [
        {
          "internalType": "contract ISuperToken",
          "name": "",
          "type": "address"
        }
      ],
      "stateMutability": "nonpayable",
      "type": "function"
    },
    {
      "inputs": [
        {
          "internalType": "uint256",
          "name": "configWord",
          "type": "uint256"
        }
      ],
      "name": "registerApp",
      "outputs": [],
      "stateMutability": "nonpayable",
      "type": "function"
    },
    {
      "inputs": [
        {
          "internalType": "contract ISuperApp",
          "name": "app",
          "type": "address"
        }
      ],
      "name": "isApp",
      "outputs": [
        {
          "internalType": "bool",
          "name": "",
          "type": "bool"
        }
      ],
      "stateMutability": "view",
      "type": "function"
    },
    {
      "inputs": [
        {
          "internalType": "contract ISuperApp",
          "name": "appAddr",
          "type": "address"
        }
      ],
      "name": "getAppLevel",
      "outputs": [
        {
          "internalType": "uint8",
          "name": "",
          "type": "uint8"
        }
      ],
      "stateMutability": "view",
      "type": "function"
    },
    {
      "inputs": [
        {
          "internalType": "contract ISuperApp",
          "name": "app",
          "type": "address"
        }
      ],
      "name": "getAppManifest",
      "outputs": [
        {
          "internalType": "bool",
          "name": "exist",
          "type": "bool"
        },
        {
          "internalType": "uint256",
          "name": "configWord",
          "type": "uint256"
        }
      ],
      "stateMutability": "view",
      "type": "function"
    },
    {
      "inputs": [
        {
          "internalType": "contract ISuperApp",
          "name": "app",
          "type": "address"
        }
      ],
      "name": "isAppJailed",
      "outputs": [
        {
          "internalType": "bool",
          "name": "",
          "type": "bool"
        }
      ],
      "stateMutability": "view",
      "type": "function"
    },
    {
      "inputs": [
        {
          "internalType": "contract ISuperApp",
          "name": "targetApp",
          "type": "address"
        }
      ],
      "name": "allowCompositeApp",
      "outputs": [],
      "stateMutability": "nonpayable",
      "type": "function"
    },
    {
      "inputs": [
        {
          "internalType": "contract ISuperApp",
          "name": "app",
          "type": "address"
        },
        {
          "internalType": "contract ISuperApp",
          "name": "targetApp",
          "type": "address"
        }
      ],
      "name": "isCompositeAppAllowed",
      "outputs": [
        {
          "internalType": "bool",
          "name": "",
          "type": "bool"
        }
      ],
      "stateMutability": "view",
      "type": "function"
    },
    {
      "inputs": [
        {
          "internalType": "contract ISuperApp",
          "name": "app",
          "type": "address"
        },
        {
          "internalType": "bytes",
          "name": "data",
          "type": "bytes"
        },
        {
          "internalType": "bytes",
          "name": "ctx",
          "type": "bytes"
        }
      ],
      "name": "callAppBeforeCallback",
      "outputs": [
        {
          "internalType": "bytes",
          "name": "cbdata",
          "type": "bytes"
        },
        {
          "internalType": "bytes",
          "name": "newCtx",
          "type": "bytes"
        }
      ],
      "stateMutability": "nonpayable",
      "type": "function"
    },
    {
      "inputs": [
        {
          "internalType": "contract ISuperApp",
          "name": "app",
          "type": "address"
        },
        {
          "internalType": "bytes",
          "name": "data",
          "type": "bytes"
        },
        {
          "internalType": "bytes",
          "name": "",
          "type": "bytes"
        }
      ],
      "name": "callAppAfterCallback",
      "outputs": [
        {
          "internalType": "bytes",
          "name": "newCtx",
          "type": "bytes"
        }
      ],
      "stateMutability": "nonpayable",
      "type": "function"
    },
    {
      "inputs": [
        {
          "internalType": "bytes",
          "name": "ctx",
          "type": "bytes"
        },
        {
          "internalType": "uint8",
          "name": "appLevel",
          "type": "uint8"
        },
        {
          "internalType": "uint256",
          "name": "allowance",
          "type": "uint256"
        },
        {
          "internalType": "uint256",
          "name": "allowanceUsed",
          "type": "uint256"
        }
      ],
      "name": "ctxUpdate",
      "outputs": [
        {
          "internalType": "bytes",
          "name": "newCtx",
          "type": "bytes"
        }
      ],
      "stateMutability": "nonpayable",
      "type": "function"
    },
    {
      "inputs": [
        {
          "internalType": "contract ISuperAgreement",
          "name": "agreementClass",
          "type": "address"
        },
        {
          "internalType": "bytes",
          "name": "data",
          "type": "bytes"
        }
      ],
      "name": "callAgreement",
      "outputs": [
        {
          "internalType": "bytes",
          "name": "returnedData",
          "type": "bytes"
        }
      ],
      "stateMutability": "nonpayable",
      "type": "function"
    },
    {
      "inputs": [
        {
          "internalType": "contract ISuperApp",
          "name": "app",
          "type": "address"
        },
        {
          "internalType": "bytes",
          "name": "data",
          "type": "bytes"
        }
      ],
      "name": "callAppAction",
      "outputs": [
        {
          "internalType": "bytes",
          "name": "returnedData",
          "type": "bytes"
        }
      ],
      "stateMutability": "nonpayable",
      "type": "function"
    },
    {
      "inputs": [
        {
          "components": [
            {
              "internalType": "enum ISuperfluid.OperationType",
              "name": "opType",
              "type": "uint8"
            },
            {
              "internalType": "address",
              "name": "target",
              "type": "address"
            },
            {
              "internalType": "bytes",
              "name": "data",
              "type": "bytes"
            }
          ],
          "internalType": "struct ISuperfluid.Operation[]",
          "name": "operations",
          "type": "tuple[]"
        }
      ],
      "name": "batchCall",
      "outputs": [],
      "stateMutability": "nonpayable",
      "type": "function"
    },
    {
      "inputs": [
        {
          "internalType": "contract ISuperAgreement",
          "name": "agreementClass",
          "type": "address"
        },
        {
          "internalType": "bytes",
          "name": "data",
          "type": "bytes"
        },
        {
          "internalType": "bytes",
          "name": "ctx",
          "type": "bytes"
        }
      ],
      "name": "callAgreementWithContext",
      "outputs": [
        {
          "internalType": "bytes",
          "name": "newCtx",
          "type": "bytes"
        },
        {
          "internalType": "bytes",
          "name": "returnedData",
          "type": "bytes"
        }
      ],
      "stateMutability": "nonpayable",
      "type": "function"
    },
    {
      "inputs": [
        {
          "internalType": "contract ISuperApp",
          "name": "app",
          "type": "address"
        },
        {
          "internalType": "bytes",
          "name": "data",
          "type": "bytes"
        },
        {
          "internalType": "bytes",
          "name": "ctx",
          "type": "bytes"
        }
      ],
      "name": "callAppActionWithContext",
      "outputs": [
        {
          "internalType": "bytes",
          "name": "newCtx",
          "type": "bytes"
        }
      ],
      "stateMutability": "nonpayable",
      "type": "function"
    },
    {
      "inputs": [
        {
          "internalType": "bytes",
          "name": "ctx",
          "type": "bytes"
        },
        {
          "internalType": "uint256",
          "name": "fee",
          "type": "uint256"
        }
      ],
      "name": "chargeGasFee",
      "outputs": [
        {
          "internalType": "bytes",
          "name": "newCtx",
          "type": "bytes"
        }
      ],
      "stateMutability": "nonpayable",
      "type": "function"
    },
    {
      "inputs": [
        {
          "internalType": "bytes",
          "name": "ctx",
          "type": "bytes"
        }
      ],
      "name": "decodeCtx",
      "outputs": [
        {
          "internalType": "bytes4",
          "name": "agreementSelector",
          "type": "bytes4"
        },
        {
          "internalType": "uint8",
          "name": "appLevel",
          "type": "uint8"
        },
        {
          "internalType": "address",
          "name": "msgSender",
          "type": "address"
        },
        {
          "internalType": "uint256",
          "name": "allowance",
          "type": "uint256"
        },
        {
          "internalType": "uint256",
          "name": "allowanceUsed",
          "type": "uint256"
        }
      ],
      "stateMutability": "pure",
      "type": "function"
    }
  ],
  "bytecode": "0x608060405234801561001057600080fd5b5061320f806100206000396000f3fe608060405234801561001057600080fd5b50600436106101e55760003560e01c80636b4f33351161010f5780639470a5b2116100a2578063bb84cfa111610071578063bb84cfa11461040c578063d0197c5a1461041f578063f2fde38b14610432578063f9f522f414610445576101e5565b80639470a5b2146103cb578063ab033ea9146103d3578063ad3915c8146103e6578063ba48b5f8146103f9576101e5565b80638bbe0f26116100de5780638bbe0f26146103875780638d62bb011461039a5780638da5cb5b146103bb5780638f32d59b146103c3576101e5565b80636b4f333514610351578063715018a61461036457806372d3297e1461036c5780638129fc1c1461037f576101e5565b80633ca3ad4e1161018757806350d75d251161015657806350d75d251461030e57806352d1902d1461031657806357121e0c1461032b57806361d164d31461033e576101e5565b80633ca3ad4e146102a45780633f6c923a146102c4578063431f1481146102e857806346951954146102fb576101e5565b806321b45bfd116101c357806321b45bfd14610246578063220a75571461025b578063289b3c0d1461026e578063393a2bfd14610283576101e5565b806313349046146101ea57806318a1d3de146102135780631e855cf314610233575b600080fd5b6101fd6101f83660046121b3565b610466565b60405161020a9190612eb8565b60405180910390f35b610226610221366004612458565b6104c1565b60405161020a919061293c565b610226610241366004612690565b6105db565b6102596102543660046121b3565b6106e3565b005b610226610269366004612611565b610729565b6102766108f8565b60405161020a9190612847565b61029661029136600461252e565b610907565b60405161020a9291906128c2565b6102b76102b23660046121b3565b610963565b60405161020a91906128dd565b6102d76102d23660046123d0565b610980565b60405161020a959493929190612901565b6102766102f6366004612580565b6109f9565b6102596103093660046121b3565b610bae565b610276610bde565b61031e610bed565b60405161020a91906128f8565b6102596103393660046121b3565b610c11565b61022661034c366004612690565b610c8c565b6102b761035f3660046121b3565b610e72565b610259610e93565b61022661037a36600461240f565b610f01565b610259610fe5565b61025961039536600461223e565b611032565b6103ad6103a8366004612611565b6113d2565b60405161020a92919061294f565b6102766115f7565b6102b7611606565b610276611617565b6102596103e13660046121b3565b611626565b6102596103f4366004612715565b61166c565b610226610407366004612611565b6116da565b6102b761041a3660046126dd565b61185e565b6103ad61042d366004612611565b61188e565b6102596104403660046121b3565b611a43565b6104586104533660046121b3565b611a70565b60405161020a9291906128e8565b6001600160a01b0381166000908152600360205260408120546001161561048f575060016104bc565b6001600160a01b038216600090815260036020526040902054600216156104b8575060026104bc565b5060005b919050565b60015460405163f9029be560e01b81526060916001600160a01b03169063f9029be5906104f2903390600401612847565b60206040518083038186803b15801561050a57600080fd5b505afa15801561051e573d6000803e3d6000fd5b505050506040513d601f19601f82011682018060405250810190610542919061232f565b6105675760405162461bcd60e51b815260040161055e90612bb4565b60405180910390fd5b61056f6120b2565b6105ae87878080601f016020809104026020016040519081016040528093929190818152602001838380828437600092019190915250611aad92505050565b60ff86166020820152606081018590526080810184905290506105d081611afa565b979650505050505050565b600554606090156105fe5760405162461bcd60e51b815260040161055e90612d9a565b6001600160a01b0383166000908152600360205260409020548390801580159061062a57506180008116155b6106465760405162461bcd60e51b815260040161055e90612a79565b61064f85610e72565b1561066c5760405162461bcd60e51b815260040161055e90612c38565b6040805160a0810182526000808252602082018190523392820192909252606081810183905260808201839052906106a390611afa565b90506106b0878783611b6b565b95509150816106d3578460405162461bcd60e51b815260040161055e919061293c565b5050600060055550909392505050565b6106eb611606565b6107075760405162461bcd60e51b815260040161055e90612d65565b600280546001600160a01b0319166001600160a01b0392909216919091179055565b60015460405163f9029be560e01b81526060916001600160a01b03169063f9029be59061075a903390600401612847565b60206040518083038186803b15801561077257600080fd5b505afa158015610786573d6000803e3d6000fd5b505050506040513d601f19601f820116820180604052508101906107aa919061232f565b6107c65760405162461bcd60e51b815260040161055e90612bb4565b6001600160a01b038616600090815260036020526040902054869080158015906107f257506180008116155b61080e5760405162461bcd60e51b815260040161055e90612a79565b61081788610e72565b156108345760405162461bcd60e51b815260040161055e90612c38565b600060606108788a8a8a8080601f01602080910402602001604051908101604052809392919081815260200183838082843760009201829052509250611cd3915050565b915091508080602001905181019061089091906124bc565b945081156108d3576108a185611de4565b6108ce576000805160206131ba8339815191528a60036040516108c59291906128a9565b60405180910390a15b6108eb565b60405162461bcd60e51b815260040161055e90612c9f565b5050505095945050505050565b6001546001600160a01b031690565b6000806000610917868686611e22565b905061094d816040518060200161092d906120e0565b6020820181038252601f19601f8201166040525080519060200120611e58565b925061095883611e6c565b915050935093915050565b6001600160a01b0316600090815260036020526040902054151590565b60008060008060006109906120b2565b6109cf88888080601f016020809104026020016040519081016040528093929190818152602001838380828437600092019190915250611aad92505050565b8051602082015160408301516060840151608090940151929c919b50995091975095509350505050565b60006001600160a01b038716610a215760405162461bcd60e51b815260040161055e90612a00565b6000610a2e888585611e22565b90506000610a46826040518060200161092d906120e0565b9050610a5181611e6c565b15610a6e5760405162461bcd60e51b815260040161055e90612ab0565b600082604051610a7d906120e0565b8190604051809103906000f5905080158015610a9d573d6000803e3d6000fd5b50600254604051634a0687ef60e01b81529192506001600160a01b0380841692634a0687ef92610ad1921690600401612847565b600060405180830381600087803b158015610aeb57600080fd5b505af1158015610aff573d6000803e3d6000fd5b50505050806001600160a01b0316826001600160a01b031614610b345760405162461bcd60e51b815260040161055e90612b37565b604051635b7cb91360e11b815281906001600160a01b0382169063b6f9722690610b6e908e908e908e908e908e908e903090600401612974565b600060405180830381600087803b158015610b8857600080fd5b505af1158015610b9c573d6000803e3d6000fd5b50505050505050509695505050505050565b610bb6611606565b610bd25760405162461bcd60e51b815260040161055e90612d65565b610bdb81611ea8565b50565b6000610be8611f47565b905090565b7fd18535e8b9050e123f35980bd696fe9efdf11a19677913233e8ad233310732a890565b610c1a33610963565b610c365760405162461bcd60e51b815260040161055e90612a35565b610c3f81610963565b610c5b5760405162461bcd60e51b815260040161055e906129cb565b3360009081526004602090815260408083206001600160a01b0394909416835292905220805460ff19166001179055565b60055460609015610caf5760405162461bcd60e51b815260040161055e90612d9a565b60015460405163f9029be560e01b815284916001600160a01b03169063f9029be590610cdf908490600401612847565b60206040518083038186803b158015610cf757600080fd5b505afa158015610d0b573d6000803e3d6000fd5b505050506040513d601f19601f82011682018060405250810190610d2f919061232f565b610d4b5760405162461bcd60e51b815260040161055e90612bb4565b60606000601885600081518110610d5e57fe5b602001015160f81c60f81b60f81c60ff1663ffffffff16901b601086600181518110610d8657fe5b602001015160f81c60f81b60f81c60ff1663ffffffff16901b600887600281518110610dae57fe5b0160200151885160f89190911c90911b9088906003908110610dcc57fe5b602001015160f81c60f81b60f81c60ff1617171760e01b9050610e2d6040518060a00160405280836001600160e01b0319168152602001600060ff168152602001336001600160a01b03168152602001600081526020016000815250611afa565b91506000610e3c878785611b6b565b955090508015610e50576000600555610e68565b60405162461bcd60e51b815260040161055e90612cd6565b5050505092915050565b6001600160a01b031660009081526003602052604090205461800016151590565b610e9b611606565b610eb75760405162461bcd60e51b815260040161055e90612d65565b600080546040516001600160a01b03909116907f8be0079c531659141344cd1fd0a4f28419497f9722a3daafe3b4186f6b6457e0908390a3600080546001600160a01b0319169055565b606083838080601f016020809104026020016040519081016040528093929190818152602001838380828437600092019190915250610f459250839150611de49050565b610f8f5733600081815260036020819052604090912080546180001790556000805160206131ba8339815191529190604051610f829291906128a9565b60405180910390a1610fdd565b60005b83811015610fa257600101610f92565b5084848080601f0160208091040260200160405190810160405280939291908181526020018383808284376000920191909152509294505050505b509392505050565b600054600160a01b900460ff161561100f5760405162461bcd60e51b815260040161055e90612d38565b6000805460ff60a01b196001600160a01b0319909116331716600160a01b179055565b60018151116110535760405162461bcd60e51b815260040161055e90612dd1565b60005b81518110156113ce57600082828151811061106d57fe5b6020908102919091010151519050600081600581111561108957fe5b14156111415760008084848151811061109e57fe5b6020026020010151604001518060200190518101906110bd9190612211565b915091508484815181106110cd57fe5b6020026020010151602001516001600160a01b03166362aa52873384846040518463ffffffff1660e01b815260040161110893929190612885565b600060405180830381600087803b15801561112257600080fd5b505af1158015611136573d6000803e3d6000fd5b5050505050506113c5565b600181600581111561114f57fe5b141561120e57600080600085858151811061116657fe5b60200260200101516040015180602001905181019061118591906121cf565b92509250925085858151811061119757fe5b6020026020010151602001516001600160a01b03166316d055d6338585856040518563ffffffff1660e01b81526004016111d4949392919061285b565b600060405180830381600087803b1580156111ee57600080fd5b505af1158015611202573d6000803e3d6000fd5b505050505050506113c5565b600281600581111561121c57fe5b14156112c85782828151811061122e57fe5b6020026020010151602001516001600160a01b031663ca7894643385858151811061125557fe5b602002602001015160400151806020019051810190611274919061234f565b6040518363ffffffff1660e01b81526004016112919291906128a9565b600060405180830381600087803b1580156112ab57600080fd5b505af11580156112bf573d6000803e3d6000fd5b505050506113c5565b60038160058111156112d657fe5b141561130f578282815181106112e857fe5b6020026020010151602001516001600160a01b031663245887fc3385858151811061125557fe5b600481600581111561131d57fe5b14156113615761135b83838151811061133257fe5b60200260200101516020015184848151811061134a57fe5b602002602001015160400151610c8c565b506113c5565b600581600581111561136f57fe5b14156113ad5761135b83838151811061138457fe5b60200260200101516020015184848151811061139c57fe5b6020026020010151604001516105db565b60405162461bcd60e51b815260040161055e90612c68565b50600101611056565b5050565b60015460405163f9029be560e01b8152606091829188916001600160a01b03169063f9029be590611407908490600401612847565b60206040518083038186803b15801561141f57600080fd5b505afa158015611433573d6000803e3d6000fd5b505050506040513d601f19601f82011682018060405250810190611457919061232f565b6114735760405162461bcd60e51b815260040161055e90612bb4565b84848080601f0160208091040260200160405190810160405280939291908181526020018383808284376000920191909152506114b59250839150611de49050565b6114ff5733600081815260036020819052604090912080546180001790556000805160206131ba83398151915291906040516114f29291906128a9565b60405180910390a16115eb565b6115076120b2565b61154687878080601f016020809104026020016040519081016040528093929190818152602001838380828437600092019190915250611aad92505050565b6040810180513390915290915061155c82611afa565b955060006115a28c8c8c8080601f0160208091040260200160405190810160405280939291908181526020018383808284376000920191909152508c9250611b6b915050565b965090508015610e5057858060200190518101906115c091906124bc565b96506115cb87611aad565b6001600160a01b038316604082015292506115e583611afa565b96505050505b50509550959350505050565b6000546001600160a01b031690565b6000546001600160a01b0316331490565b6002546001600160a01b031690565b61162e611606565b61164a5760405162461bcd60e51b815260040161055e90612d65565b600180546001600160a01b0319166001600160a01b0392909216919091179055565b6000811161168c5760405162461bcd60e51b815260040161055e90612e4a565b33600090815260036020526040902054156116b95760405162461bcd60e51b815260040161055e90612e08565b60408051602080820183529281523360009081526003909352912090519055565b606082828080601f01602080910402602001604051908101604052809392919081815260200183838082843760009201919091525061171e9250839150611de49050565b6117685733600081815260036020819052604090912080546180001790556000805160206131ba833981519152919060405161175b9291906128a9565b60405180910390a1611854565b6117706120b2565b6117af85858080601f016020809104026020016040519081016040528093929190818152602001838380828437600092019190915250611aad92505050565b60208101805160010160ff16908190529091506117cd903390611f6c565b6117e95760405162461bcd60e51b815260040161055e90612b7d565b6117f281611afa565b92506118368888888080601f016020809104026020016040519081016040528093929190818152602001838380828437600092019190915250889250611b6b915050565b50506020810180516000190160ff16905261185081611afa565b9250505b5095945050505050565b6001600160a01b0380831660009081526004602090815260408083209385168352929052205460ff165b92915050565b60015460405163f9029be560e01b815260609182916001600160a01b039091169063f9029be5906118c3903390600401612847565b60206040518083038186803b1580156118db57600080fd5b505afa1580156118ef573d6000803e3d6000fd5b505050506040513d601f19601f82011682018060405250810190611913919061232f565b61192f5760405162461bcd60e51b815260040161055e90612bb4565b6001600160a01b0387166000908152600360205260409020548790801580159061195b57506180008116155b6119775760405162461bcd60e51b815260040161055e90612a79565b600060606119be8b8b8b8080601f01602080910402602001604051908101604052809392919081815260200183838082843760009201919091525060019250611cd3915050565b915091508115611a1d57808060200190518101906119dc91906124bc565b955087878080601f016020809104026020016040519081016040528093929190818152602001838380828437600092019190915250929750611a3592505050565b60405162461bcd60e51b815260040161055e90612bf6565b505050509550959350505050565b611a4b611606565b611a675760405162461bcd60e51b815260040161055e90612d65565b610bdb81611fce565b600080611a7b6120ed565b5050506001600160a01b0316600090815260036020908152604091829020825191820190925290549081905280151591565b611ab56120b2565b81806020019051810190611ac99190612367565b608086015260608501526001600160a01b0316604084015260ff1660208301526001600160e01b0319168152919050565b606081600001518260200151836040015184606001518560800151604051602001611b29959493929190612901565b604051602081830303815290604052905080604051602001611b4b91906127bc565b60408051601f198184030181529190528051602090910120600555919050565b6000606060006020845181611b7c57fe5b04600101602002905060088451901c60f81b85600287510381518110611b9e57fe5b60200101906001600160f81b031916908160001a905350835160f81b85600187510381518110611bca57fe5b60200101906001600160f81b031916908160001a9053508484855183036001600160401b0381118015611bfc57600080fd5b506040519080825280601f01601f191660200182016040528015611c27576020820181803683370190505b50604051602001611c3a939291906127d8565b6040516020818303038152906040529350856001600160a01b031684604051611c6391906127bc565b6000604051808303816000865af19150503d8060008114611ca0576040519150601f19603f3d011682016040523d82523d6000602084013e611ca5565b606091505b50909350915082611cca578160405162461bcd60e51b815260040161055e919061293c565b50935093915050565b6000606082611d3c57846001600160a01b031684604051611cf491906127bc565b6000604051808303816000865af19150503d8060008114611d31576040519150601f19603f3d011682016040523d82523d6000602084013e611d36565b606091505b50611d96565b846001600160a01b031684604051611d5491906127bc565b600060405180830381855afa9150503d8060008114611d8f576040519150601f19603f3d011682016040523d82523d6000602084013e611d94565b606091505b505b909250905081611ddc576113885a1015611dc25760405162461bcd60e51b815260040161055e90612d0d565b8060405162461bcd60e51b815260040161055e919061293c565b935093915050565b6000808251118015611888575060055482604051602001611e0591906127bc565b604051602081830303815290604052805190602001201492915050565b6000838383604051602001611e399392919061281b565b6040516020818303038152906040528051906020012090509392505050565b6000611e6583833061204f565b9392505050565b6000813f7fc5d2460186f7233c927e7db2dcc703c0e500b653ca82273b7bfad8045d85a470818114801590611ea057508115155b949350505050565b806001600160a01b03166352d1902d6040518163ffffffff1660e01b815260040160206040518083038186803b158015611ee157600080fd5b505afa158015611ef5573d6000803e3d6000fd5b505050506040513d601f19601f82011682018060405250810190611f19919061234f565b611f21610bed565b14611f3e5760405162461bcd60e51b815260040161055e90612e81565b610bdb8161208e565b7f360894a13ba1a3210667c828492db98dca3e2076cc3735a920a3ca505d382bbc5490565b600080611f7884610466565b90508060ff166001148015611f90575060018360ff16115b15611f9f576000915050611888565b8060ff166002148015611fb5575060028360ff16115b15611fc4576000915050611888565b5060019392505050565b6001600160a01b038116611ff45760405162461bcd60e51b815260040161055e90612af1565b600080546040516001600160a01b03808516939216917f8be0079c531659141344cd1fd0a4f28419497f9722a3daafe3b4186f6b6457e091a3600080546001600160a01b0319166001600160a01b0392909216919091179055565b60008060ff60f81b83868660405160200161206d9493929190612783565b60408051808303601f19018152919052805160209091012095945050505050565b7f360894a13ba1a3210667c828492db98dca3e2076cc3735a920a3ca505d382bbc55565b6040805160a08101825260008082526020820181905291810182905260608101829052608081019190915290565b61025680612f6483390190565b6040518060200160405280600081525090565b803561188881612f3f565b60008083601f84011261211c578182fd5b5081356001600160401b03811115612132578182fd5b60208301915083602082850101111561214a57600080fd5b9250929050565b600082601f830112612161578081fd5b813561217461216f82612eec565b612ec6565b915080825283602082850101111561218b57600080fd5b8060208401602084013760009082016020015292915050565b80356006811061188857600080fd5b6000602082840312156121c4578081fd5b8135611e6581612f3f565b6000806000606084860312156121e3578182fd5b83516121ee81612f3f565b60208501519093506121ff81612f3f565b80925050604084015190509250925092565b60008060408385031215612223578182fd5b825161222e81612f3f565b6020939093015192949293505050565b60006020808385031215612250578182fd5b82356001600160401b0380821115612266578384fd5b818501915085601f830112612279578384fd5b813581811115612287578485fd5b6122948485830201612ec6565b81815284810190848601875b848110156123205781358701606080601f19838f030112156122c0578a8bfd5b6122c981612ec6565b6122d58e8c85016121a4565b815260406122e58f828601612100565b828d01529183013591898311156122fa578c8dfd5b6123088f8d85870101612151565b908201528652505092870192908701906001016122a0565b50909998505050505050505050565b600060208284031215612340578081fd5b81518015158114611e65578182fd5b600060208284031215612360578081fd5b5051919050565b600080600080600060a0868803121561237e578081fd5b85516001600160e01b031981168114612395578182fd5b60208701519095506123a681612f54565b60408701519094506123b781612f3f565b6060870151608090970151959894975095949392505050565b600080602083850312156123e2578182fd5b82356001600160401b038111156123f7578283fd5b6124038582860161210b565b90969095509350505050565b600080600060408486031215612423578081fd5b83356001600160401b03811115612438578182fd5b6124448682870161210b565b909790965060209590950135949350505050565b60008060008060006080868803121561246f578283fd5b85356001600160401b03811115612484578384fd5b6124908882890161210b565b90965094505060208601356124a481612f54565b94979396509394604081013594506060013592915050565b6000602082840312156124cd578081fd5b81516001600160401b038111156124e2578182fd5b8201601f810184136124f2578182fd5b805161250061216f82612eec565b818152856020838501011115612514578384fd5b612525826020830160208601612f0f565b95945050505050565b600080600060408486031215612542578081fd5b833561254d81612f3f565b925060208401356001600160401b03811115612567578182fd5b6125738682870161210b565b9497909650939450505050565b60008060008060008060808789031215612598578384fd5b86356125a381612f3f565b955060208701356125b381612f54565b945060408701356001600160401b03808211156125ce578586fd5b6125da8a838b0161210b565b909650945060608901359150808211156125f2578283fd5b506125ff89828a0161210b565b979a9699509497509295939492505050565b600080600080600060608688031215612628578283fd5b853561263381612f3f565b945060208601356001600160401b038082111561264e578485fd5b61265a89838a0161210b565b90965094506040880135915080821115612672578283fd5b5061267f8882890161210b565b969995985093965092949392505050565b600080604083850312156126a2578182fd5b82356126ad81612f3f565b915060208301356001600160401b038111156126c7578182fd5b6126d385828601612151565b9150509250929050565b600080604083850312156126ef578182fd5b82356126fa81612f3f565b9150602083013561270a81612f3f565b809150509250929050565b600060208284031215612726578081fd5b5035919050565b60008151808452612745816020860160208601612f0f565b601f01601f19169290920160200192915050565b60008284528282602086013780602084860101526020601f19601f85011685010190509392505050565b6001600160f81b031994909416845260609290921b6bffffffffffffffffffffffff191660018401526015830152603582015260550190565b600082516127ce818460208701612f0f565b9190910192915050565b600084516127ea818460208901612f0f565b8451908301906127fe818360208901612f0f565b8451910190612811818360208801612f0f565b0195945050505050565b60006bffffffffffffffffffffffff198560601b16825282846014840137910160140190815292915050565b6001600160a01b0391909116815260200190565b6001600160a01b039485168152928416602084015292166040820152606081019190915260800190565b6001600160a01b039384168152919092166020820152604081019190915260600190565b6001600160a01b03929092168252602082015260400190565b6001600160a01b039290921682521515602082015260400190565b901515815260200190565b9115158252602082015260400190565b90815260200190565b6001600160e01b031995909516855260ff9390931660208501526001600160a01b039190911660408401526060830152608082015260a00190565b600060208252611e65602083018461272d565b600060408252612962604083018561272d565b8281036020840152612525818561272d565b600060018060a01b03808a16835260ff8916602084015260a060408401526129a060a08401888a612759565b83810360608501526129b3818789612759565b92505080841660808401525098975050505050505050565b6020808252818101527f5375706572666c7569643a20746172676574206973206e6f7420616e20617070604082015260600190565b6020808252818101527f5375706572666c75696452656769737472793a205a45524f5f41444452455353604082015260600190565b60208082526024908201527f5375706572666c7569643a206d73672e73656e646572206973206e6f7420616e6040820152630206170760e41b606082015260800190565b6020808252601d908201527f5375706572666c7569643a206e6f7420616e2061637469766520617070000000604082015260600190565b60208082526021908201527f5375706572666c75696452656769737472793a20575241505045525f455849536040820152601560fa1b606082015260800190565b60208082526026908201527f4f776e61626c653a206e6577206f776e657220697320746865207a65726f206160408201526564647265737360d01b606082015260800190565b60208082526026908201527f5375706572666c7569643a20554e45585045435445445f575241505045525f4160408201526544445245535360d01b606082015260800190565b6020808252601b908201527f53463a204170702043616c6c20537461636b20746f6f20646565700000000000604082015260600190565b60208082526022908201527f53463a204f6e6c79206c6973746564206167726565656d656e7420616c6c6f77604082015261195960f21b606082015260800190565b60208082526022908201527f5375706572666c7569643a206265666f72652063616c6c6261636b206661696c604082015261195960f21b606082015260800190565b60208082526016908201527514d18e88105c1c08185b1c9958591e481a985a5b195960521b604082015260600190565b6020808252601a908201527f53463a20556e6b6e6f776e206f7065726174696f6e2074797065000000000000604082015260600190565b6020808252601e908201527f53463a20496e7375636365737366756c2065787465726e616c2063616c6c0000604082015260600190565b60208082526019908201527f53463a2063616c6c2061677265656d656e74206661696c656400000000000000604082015260600190565b60208082526011908201527053463a2053656e64206d6f72652067617360781b604082015260600190565b602080825260139082015272185b1c9958591e481a5b9a5d1a585b1a5e9959606a1b604082015260600190565b6020808252818101527f4f776e61626c653a2063616c6c6572206973206e6f7420746865206f776e6572604082015260600190565b6020808252601c908201527f5375706572666c7569643a20437478206973206e6f7420636c65616e00000000604082015260600190565b60208082526019908201527f53463a20557365207468652073696e676c65206d6574686f6400000000000000604082015260600190565b60208082526022908201527f5375706572666c7569643a2061707020616c7265616479207265676973746572604082015261195960f21b606082015260800190565b6020808252601f908201527f5375706572666c7569643a20696e76616c696420636f6e66696720776f726400604082015260600190565b60208082526019908201527f50726f786961626c653a204e4f545f434f4d50415449424c4500000000000000604082015260600190565b60ff91909116815260200190565b6040518181016001600160401b0381118282101715612ee457600080fd5b604052919050565b60006001600160401b03821115612f01578081fd5b50601f01601f191660200190565b60005b83811015612f2a578181015183820152602001612f12565b83811115612f39576000848401525b50505050565b6001600160a01b0381168114610bdb57600080fd5b60ff81168114610bdb57600080fdfe608060405234801561001057600080fd5b50610236806100206000396000f3fe6080604052600436106100225760003560e01c80634a0687ef1461008657610076565b36610076576040805162461bcd60e51b815260206004820152601860248201527f50726f78793a20524543454956455f464f5242494444454e0000000000000000604482015290519081900360640190fd5b005b6100746100816100b9565b6100de565b34801561009257600080fd5b50610074600480360360208110156100a957600080fd5b50356001600160a01b0316610102565b7f360894a13ba1a3210667c828492db98dca3e2076cc3735a920a3ca505d382bbc5490565b3660008037600080366000845af43d6000803e8080156100fd573d6000f35b3d6000fd5b6001600160a01b0381166101475760405162461bcd60e51b81526004018080602001828103825260248152602001806101dd6024913960400191505060405180910390fd5b60006101516100b9565b6001600160a01b0316146101ac576040805162461bcd60e51b815260206004820152601a60248201527f50726f78793a20414c52454144595f494e495449414c495a4544000000000000604482015290519081900360640190fd5b6101b5816101b8565b50565b7f360894a13ba1a3210667c828492db98dca3e2076cc3735a920a3ca505d382bbc5556fe50726f78793a20494e495449414c495a45445f574954485f5a45524f5f41444452455353a2646970667358221220e9284c61073e32b2007759f90952348720fbac6d92b8a7bff5fe5f288c49f59e64736f6c63430007010033be3aa33bd245135e4e26b223d79d14ea479a47bff09f2b03c53838af1edbb14ba2646970667358221220b31789889dfda08ba193a4f5ff1d398a3fa6c8a3ad731dc576aa4887ba10d56e64736f6c63430007010033",
  "immutableReferences": {},
  "compiler": {
    "name": "solc",
    "version": "0.7.1+commit.f4a555be.Emscripten.clang"
  },
  "schemaVersion": "3.2.5",
  "updatedAt": "2020-09-30T18:18:27.071Z",
  "devdoc": {
    "kind": "dev",
    "methods": {
      "allowCompositeApp(address)": {
        "params": {
          "targetApp": "The taget super app address"
        }
      },
      "batchCall((uint8,address,bytes)[])": {
        "details": "Batch call function.",
        "params": {
          "operations": "Array of batch operations."
        }
      },
      "callAgreement(address,bytes)": {
        "details": "Call agreement function",
        "params": {
          "data": "The contextual call data. NOTE: The contextual call data should be generated using abi.encodeWithSelector. The context parameter should be set to \"0x\", an empty bytes array as a placeholder to be replaced by the host contract."
        }
      },
      "callAppAction(address,bytes)": {
        "details": "Call agreement function",
        "params": {
          "data": "The contextual call data. NOTE: See callAgreement about contextual call data."
        }
      },
      "getAppManifest(address)": {
        "details": "Get the manifest of the super app",
        "params": {
          "app": "Super app address"
        }
      },
      "getCodeAddress()": {
        "details": "Get current implementation code address."
      },
      "getERC20Wrapper(address,string)": {
        "details": "Query the token wrapper.",
        "params": {
          "symbol": "The super token symbol. NOTE: Deterministic address is generated based on the input.",
          "underlyingToken": "The underlrying token to wrap."
        }
      },
      "isApp(address)": {
        "details": "Query if the app is registered",
        "params": {
          "app": "Super app address"
        }
      },
      "isAppJailed(address)": {
        "details": "Query if the app has been jailed",
        "params": {
          "app": "Super app address"
        }
      },
      "isCompositeAppAllowed(address,address)": {
        "details": "Query if source app  is allowed to call the target app as downstream app.",
        "params": {
          "app": "Super app address",
          "targetApp": "The taget super app address"
        }
      },
      "isOwner()": {
        "details": "Returns true if the caller is the current owner."
      },
      "owner()": {
        "details": "Returns the address of the current owner."
      },
      "proxiableUUID()": {
        "details": "Proxiable UUID marker function.      This would help to avoid wrong logic contract to be used for upgrading."
      },
      "registerApp(uint256)": {
        "params": {
          "configWord": "The super app manifest configuration"
        }
      },
      "renounceOwnership()": {
        "details": "Leaves the contract without owner. It will not be possible to call `onlyOwner` functions anymore. Can only be called by the current owner. > Note: Renouncing ownership will leave the contract without an owner, thereby removing any functionality that is only available to the owner."
      },
      "transferOwnership(address)": {
        "details": "Transfers ownership of the contract to a new account (`newOwner`). Can only be called by the current owner."
      }
    },
    "version": 1
  },
  "userdoc": {
    "kind": "user",
    "methods": {
      "allowCompositeApp(address)": {
        "notice": "White-list the target app for app composition for the source app `msg.sender`"
      },
      "registerApp(uint256)": {
        "notice": "Message sender declares it as a super app."
      }
    },
    "version": 1
  }
}