{
  "contractName": "SuperAppDefinitions",
  "abi": [
    {
      "inputs": [],
      "name": "AFTER_AGREEMENT_CREATED_NOOP",
      "outputs": [
        {
          "internalType": "uint256",
          "name": "",
          "type": "uint256"
        }
      ],
      "stateMutability": "view",
      "type": "function"
    },
    {
      "inputs": [],
      "name": "AFTER_AGREEMENT_TERMINATED_NOOP",
      "outputs": [
        {
          "internalType": "uint256",
          "name": "",
          "type": "uint256"
        }
      ],
      "stateMutability": "view",
      "type": "function"
    },
    {
      "inputs": [],
      "name": "AFTER_AGREEMENT_UPDATED_NOOP",
      "outputs": [
        {
          "internalType": "uint256",
          "name": "",
          "type": "uint256"
        }
      ],
      "stateMutability": "view",
      "type": "function"
    },
    {
      "inputs": [],
      "name": "BEFORE_AGREEMENT_CREATED_NOOP",
      "outputs": [
        {
          "internalType": "uint256",
          "name": "",
          "type": "uint256"
        }
      ],
      "stateMutability": "view",
      "type": "function"
    },
    {
      "inputs": [],
      "name": "BEFORE_AGREEMENT_TERMINATED_NOOP",
      "outputs": [
        {
          "internalType": "uint256",
          "name": "",
          "type": "uint256"
        }
      ],
      "stateMutability": "view",
      "type": "function"
    },
    {
      "inputs": [],
      "name": "BEFORE_AGREEMENT_UPDATED_NOOP",
      "outputs": [
        {
          "internalType": "uint256",
          "name": "",
          "type": "uint256"
        }
      ],
      "stateMutability": "view",
      "type": "function"
    },
    {
      "inputs": [],
      "name": "JAIL",
      "outputs": [
        {
          "internalType": "uint256",
          "name": "",
          "type": "uint256"
        }
      ],
      "stateMutability": "view",
      "type": "function"
    },
    {
      "inputs": [],
      "name": "TYPE_APP_FINAL",
      "outputs": [
        {
          "internalType": "uint256",
          "name": "",
          "type": "uint256"
        }
      ],
      "stateMutability": "view",
      "type": "function"
    },
    {
      "inputs": [],
      "name": "TYPE_APP_SECOND",
      "outputs": [
        {
          "internalType": "uint256",
          "name": "",
          "type": "uint256"
        }
      ],
      "stateMutability": "view",
      "type": "function"
    }
  ],
  "bytecode": "0x610178610026600b82828239805160001a60731461001957fe5b30600052607381538281f3fe730000000000000000000000000000000000000000301460806040526004361061009d5760003560e01c8063796795c311610070578063796795c3146100d45780639ac3237d146100dc578063b732da18146100e4578063c23ddadc146100ec578063c8e63d13146100f45761009d565b806346062cc9146100a2578063596ef58d146100bc5780635c510c46146100c45780636ecccafe146100cc575b600080fd5b6100aa6100fc565b60408051918252519081900360200190f35b6100aa610101565b6100aa61010a565b6100aa610113565b6100aa61011c565b6100aa610125565b6100aa61012a565b6100aa610133565b6100aa610139565b600181565b64100000000081565b64010000000081565b64080000000081565b64040000000081565b600281565b64020000000081565b61800081565b6420000000008156fea26469706673582212204a6c8fdfccf862c7a7dbf17348a4f5ca58adf5f4d2d5fab6f04b25c90abe48c964736f6c63430007010033",
  "immutableReferences": {},
  "sourcePath": "/home/hellwolf/Projects/superfluid/ethereum-contracts/contracts/interfaces/superfluid/SuperAppDefinitions.sol",
  "compiler": {
    "name": "solc",
    "version": "0.7.1+commit.f4a555be.Emscripten.clang"
  },
  "schemaVersion": "3.2.5",
  "updatedAt": "2020-09-28T17:04:34.263Z",
  "devdoc": {
    "details": "Super app definitions library",
    "kind": "dev",
    "methods": {},
    "version": 1
  },
  "userdoc": {
    "kind": "user",
    "methods": {},
    "version": 1
  }
}