{
  "contractName": "SuperTokenStorageTester",
  "abi": [
    {
      "anonymous": false,
      "inputs": [
        {
          "indexed": true,
          "internalType": "address",
          "name": "agreementClass",
          "type": "address"
        },
        {
          "indexed": true,
          "internalType": "address",
          "name": "account",
          "type": "address"
        },
        {
          "indexed": false,
          "internalType": "bytes",
          "name": "state",
          "type": "bytes"
        }
      ],
      "name": "AgreementAccountStateUpdated",
      "type": "event"
    },
    {
      "anonymous": false,
      "inputs": [
        {
          "indexed": true,
          "internalType": "address",
          "name": "agreementClass",
          "type": "address"
        },
        {
          "indexed": false,
          "internalType": "bytes32",
          "name": "id",
          "type": "bytes32"
        },
        {
          "indexed": false,
          "internalType": "bytes32[]",
          "name": "data",
          "type": "bytes32[]"
        }
      ],
      "name": "AgreementCreated",
      "type": "event"
    },
    {
      "anonymous": false,
      "inputs": [
        {
          "indexed": true,
          "internalType": "address",
          "name": "agreementClass",
          "type": "address"
        },
        {
          "indexed": false,
          "internalType": "bytes32",
          "name": "id",
          "type": "bytes32"
        },
        {
          "indexed": true,
          "internalType": "address",
          "name": "penaltyAccount",
          "type": "address"
        },
        {
          "indexed": true,
          "internalType": "address",
          "name": "rewardAccount",
          "type": "address"
        },
        {
          "indexed": false,
          "internalType": "uint256",
          "name": "deposit",
          "type": "uint256"
        }
      ],
      "name": "AgreementLiquidated",
      "type": "event"
    },
    {
      "anonymous": false,
      "inputs": [
        {
          "indexed": true,
          "internalType": "address",
          "name": "agreementClass",
          "type": "address"
        },
        {
          "indexed": true,
          "internalType": "address",
          "name": "account",
          "type": "address"
        },
        {
          "indexed": false,
          "internalType": "uint256",
          "name": "slotId",
          "type": "uint256"
        }
      ],
      "name": "AgreementStateUpdated",
      "type": "event"
    },
    {
      "anonymous": false,
      "inputs": [
        {
          "indexed": true,
          "internalType": "address",
          "name": "agreementClass",
          "type": "address"
        },
        {
          "indexed": false,
          "internalType": "bytes32",
          "name": "id",
          "type": "bytes32"
        }
      ],
      "name": "AgreementTerminated",
      "type": "event"
    },
    {
      "anonymous": false,
      "inputs": [
        {
          "indexed": true,
          "internalType": "address",
          "name": "agreementClass",
          "type": "address"
        },
        {
          "indexed": false,
          "internalType": "bytes32",
          "name": "id",
          "type": "bytes32"
        },
        {
          "indexed": false,
          "internalType": "bytes32[]",
          "name": "data",
          "type": "bytes32[]"
        }
      ],
      "name": "AgreementUpdated",
      "type": "event"
    },
    {
      "anonymous": false,
      "inputs": [
        {
          "indexed": true,
          "internalType": "address",
          "name": "owner",
          "type": "address"
        },
        {
          "indexed": true,
          "internalType": "address",
          "name": "spender",
          "type": "address"
        },
        {
          "indexed": false,
          "internalType": "uint256",
          "name": "value",
          "type": "uint256"
        }
      ],
      "name": "Approval",
      "type": "event"
    },
    {
      "anonymous": false,
      "inputs": [
        {
          "indexed": true,
          "internalType": "address",
          "name": "previousOwner",
          "type": "address"
        },
        {
          "indexed": true,
          "internalType": "address",
          "name": "newOwner",
          "type": "address"
        }
      ],
      "name": "OwnershipTransferred",
      "type": "event"
    },
    {
      "anonymous": false,
      "inputs": [
        {
          "indexed": true,
          "internalType": "address",
          "name": "account",
          "type": "address"
        },
        {
          "indexed": false,
          "internalType": "uint256",
          "name": "amount",
          "type": "uint256"
        }
      ],
      "name": "TokenDowngraded",
      "type": "event"
    },
    {
      "anonymous": false,
      "inputs": [
        {
          "indexed": true,
          "internalType": "address",
          "name": "account",
          "type": "address"
        },
        {
          "indexed": false,
          "internalType": "uint256",
          "name": "amount",
          "type": "uint256"
        }
      ],
      "name": "TokenUpgraded",
      "type": "event"
    },
    {
      "anonymous": false,
      "inputs": [
        {
          "indexed": true,
          "internalType": "address",
          "name": "from",
          "type": "address"
        },
        {
          "indexed": true,
          "internalType": "address",
          "name": "to",
          "type": "address"
        },
        {
          "indexed": false,
          "internalType": "uint256",
          "name": "value",
          "type": "uint256"
        }
      ],
      "name": "Transfer",
      "type": "event"
    },
    {
      "inputs": [],
      "name": "STANDARD_DECIMALS",
      "outputs": [
        {
          "internalType": "uint8",
          "name": "",
          "type": "uint8"
        }
      ],
      "stateMutability": "view",
      "type": "function"
    },
    {
      "inputs": [
        {
          "internalType": "address",
          "name": "account",
          "type": "address"
        },
        {
          "internalType": "address",
          "name": "spender",
          "type": "address"
        }
      ],
      "name": "allowance",
      "outputs": [
        {
          "internalType": "uint256",
          "name": "",
          "type": "uint256"
        }
      ],
      "stateMutability": "view",
      "type": "function"
    },
    {
      "inputs": [
        {
          "internalType": "address",
          "name": "spender",
          "type": "address"
        },
        {
          "internalType": "uint256",
          "name": "amount",
          "type": "uint256"
        }
      ],
      "name": "approve",
      "outputs": [
        {
          "internalType": "bool",
          "name": "",
          "type": "bool"
        }
      ],
      "stateMutability": "nonpayable",
      "type": "function"
    },
    {
      "inputs": [
        {
          "internalType": "address",
          "name": "account",
          "type": "address"
        }
      ],
      "name": "balanceOf",
      "outputs": [
        {
          "internalType": "uint256",
          "name": "balance",
          "type": "uint256"
        }
      ],
      "stateMutability": "view",
      "type": "function"
    },
    {
      "inputs": [
        {
          "internalType": "bytes32",
          "name": "id",
          "type": "bytes32"
        },
        {
          "internalType": "bytes32[]",
          "name": "data",
          "type": "bytes32[]"
        }
      ],
      "name": "createAgreement",
      "outputs": [],
      "stateMutability": "nonpayable",
      "type": "function"
    },
    {
      "inputs": [],
      "name": "decimals",
      "outputs": [
        {
          "internalType": "uint8",
          "name": "",
          "type": "uint8"
        }
      ],
      "stateMutability": "pure",
      "type": "function"
    },
    {
      "inputs": [
        {
          "internalType": "uint256",
          "name": "amount",
          "type": "uint256"
        }
      ],
      "name": "downgrade",
      "outputs": [],
      "stateMutability": "nonpayable",
      "type": "function"
    },
    {
      "inputs": [
        {
          "internalType": "address",
          "name": "account",
          "type": "address"
        }
      ],
      "name": "getAccountActiveAgreements",
      "outputs": [
        {
          "internalType": "address[]",
          "name": "",
          "type": "address[]"
        }
      ],
      "stateMutability": "view",
      "type": "function"
    },
    {
      "inputs": [
        {
          "internalType": "address",
          "name": "agreementClass",
          "type": "address"
        },
        {
          "internalType": "bytes32",
          "name": "id",
          "type": "bytes32"
        },
        {
          "internalType": "uint256",
          "name": "dataLength",
          "type": "uint256"
        }
      ],
      "name": "getAgreementData",
      "outputs": [
        {
          "internalType": "bytes32[]",
          "name": "data",
          "type": "bytes32[]"
        }
      ],
      "stateMutability": "view",
      "type": "function"
    },
    {
      "inputs": [
        {
          "internalType": "address",
          "name": "agreementClass",
          "type": "address"
        },
        {
          "internalType": "address",
          "name": "account",
          "type": "address"
        },
        {
          "internalType": "uint256",
          "name": "slotId",
          "type": "uint256"
        },
        {
          "internalType": "uint256",
          "name": "dataLength",
          "type": "uint256"
        }
      ],
      "name": "getAgreementStateSlot",
      "outputs": [
        {
          "internalType": "bytes32[]",
          "name": "slotData",
          "type": "bytes32[]"
        }
      ],
      "stateMutability": "view",
      "type": "function"
    },
    {
      "inputs": [],
      "name": "getCodeAddress",
      "outputs": [
        {
          "internalType": "address",
          "name": "codeAddress",
          "type": "address"
        }
      ],
      "stateMutability": "view",
      "type": "function"
    },
    {
      "inputs": [],
      "name": "getHost",
      "outputs": [
        {
          "internalType": "address",
          "name": "host",
          "type": "address"
        }
      ],
      "stateMutability": "view",
      "type": "function"
    },
    {
      "inputs": [],
      "name": "getUnderlayingToken",
      "outputs": [
        {
          "internalType": "address",
          "name": "",
          "type": "address"
        }
      ],
      "stateMutability": "view",
      "type": "function"
    },
    {
      "inputs": [
        {
          "internalType": "contract IERC20",
          "name": "underlyingToken",
          "type": "address"
        },
        {
          "internalType": "uint8",
          "name": "underlyingDecimals",
          "type": "uint8"
        },
        {
          "internalType": "string",
          "name": "name",
          "type": "string"
        },
        {
          "internalType": "string",
          "name": "symbol",
          "type": "string"
        },
        {
          "internalType": "contract ISuperfluid",
          "name": "host",
          "type": "address"
        }
      ],
      "name": "initialize",
      "outputs": [],
      "stateMutability": "nonpayable",
      "type": "function"
    },
    {
      "inputs": [
        {
          "internalType": "address",
          "name": "account",
          "type": "address"
        }
      ],
      "name": "isAccountInsolvent",
      "outputs": [
        {
          "internalType": "bool",
          "name": "",
          "type": "bool"
        }
      ],
      "stateMutability": "view",
      "type": "function"
    },
    {
      "inputs": [],
      "name": "isOwner",
      "outputs": [
        {
          "internalType": "bool",
          "name": "",
          "type": "bool"
        }
      ],
      "stateMutability": "view",
      "type": "function"
    },
    {
      "inputs": [
        {
          "internalType": "address",
          "name": "liquidator",
          "type": "address"
        },
        {
          "internalType": "bytes32",
          "name": "id",
          "type": "bytes32"
        },
        {
          "internalType": "address",
          "name": "account",
          "type": "address"
        },
        {
          "internalType": "uint256",
          "name": "deposit",
          "type": "uint256"
        }
      ],
      "name": "liquidateAgreement",
      "outputs": [],
      "stateMutability": "nonpayable",
      "type": "function"
    },
    {
      "inputs": [],
      "name": "name",
      "outputs": [
        {
          "internalType": "string",
          "name": "",
          "type": "string"
        }
      ],
      "stateMutability": "view",
      "type": "function"
    },
    {
      "inputs": [
        {
          "internalType": "address",
          "name": "account",
          "type": "address"
        },
        {
          "internalType": "address",
          "name": "spender",
          "type": "address"
        },
        {
          "internalType": "uint256",
          "name": "amount",
          "type": "uint256"
        }
      ],
      "name": "operationApprove",
      "outputs": [],
      "stateMutability": "nonpayable",
      "type": "function"
    },
    {
      "inputs": [
        {
          "internalType": "address",
          "name": "account",
          "type": "address"
        },
        {
          "internalType": "uint256",
          "name": "amount",
          "type": "uint256"
        }
      ],
      "name": "operationDowngrade",
      "outputs": [],
      "stateMutability": "nonpayable",
      "type": "function"
    },
    {
      "inputs": [
        {
          "internalType": "address",
          "name": "account",
          "type": "address"
        },
        {
          "internalType": "address",
          "name": "sender",
          "type": "address"
        },
        {
          "internalType": "address",
          "name": "recipient",
          "type": "address"
        },
        {
          "internalType": "uint256",
          "name": "amount",
          "type": "uint256"
        }
      ],
      "name": "operationTransferFrom",
      "outputs": [],
      "stateMutability": "nonpayable",
      "type": "function"
    },
    {
      "inputs": [
        {
          "internalType": "address",
          "name": "account",
          "type": "address"
        },
        {
          "internalType": "uint256",
          "name": "amount",
          "type": "uint256"
        }
      ],
      "name": "operationUpgrade",
      "outputs": [],
      "stateMutability": "nonpayable",
      "type": "function"
    },
    {
      "inputs": [],
      "name": "owner",
      "outputs": [
        {
          "internalType": "address",
          "name": "",
          "type": "address"
        }
      ],
      "stateMutability": "view",
      "type": "function"
    },
    {
      "inputs": [],
      "name": "proxiableUUID",
      "outputs": [
        {
          "internalType": "bytes32",
          "name": "",
          "type": "bytes32"
        }
      ],
      "stateMutability": "pure",
      "type": "function"
    },
    {
      "inputs": [
        {
          "internalType": "address",
          "name": "account",
          "type": "address"
        },
        {
          "internalType": "uint256",
          "name": "timestamp",
          "type": "uint256"
        }
      ],
      "name": "realtimeBalanceOf",
      "outputs": [
        {
          "internalType": "int256",
          "name": "availableBalance",
          "type": "int256"
        },
        {
          "internalType": "uint256",
          "name": "deposit",
          "type": "uint256"
        },
        {
          "internalType": "uint256",
          "name": "owedDeposit",
          "type": "uint256"
        }
      ],
      "stateMutability": "view",
      "type": "function"
    },
    {
      "inputs": [],
      "name": "renounceOwnership",
      "outputs": [],
      "stateMutability": "nonpayable",
      "type": "function"
    },
    {
      "inputs": [
        {
          "internalType": "address",
          "name": "account",
          "type": "address"
        },
        {
          "internalType": "int256",
          "name": "delta",
          "type": "int256"
        }
      ],
      "name": "settleBalance",
      "outputs": [],
      "stateMutability": "nonpayable",
      "type": "function"
    },
    {
      "inputs": [],
      "name": "symbol",
      "outputs": [
        {
          "internalType": "string",
          "name": "",
          "type": "string"
        }
      ],
      "stateMutability": "view",
      "type": "function"
    },
    {
      "inputs": [
        {
          "internalType": "bytes32",
          "name": "id",
          "type": "bytes32"
        },
        {
          "internalType": "uint256",
          "name": "dataLength",
          "type": "uint256"
        }
      ],
      "name": "terminateAgreement",
      "outputs": [],
      "stateMutability": "nonpayable",
      "type": "function"
    },
    {
      "inputs": [],
      "name": "totalSupply",
      "outputs": [
        {
          "internalType": "uint256",
          "name": "",
          "type": "uint256"
        }
      ],
      "stateMutability": "view",
      "type": "function"
    },
    {
      "inputs": [
        {
          "internalType": "address",
          "name": "recipient",
          "type": "address"
        },
        {
          "internalType": "uint256",
          "name": "amount",
          "type": "uint256"
        }
      ],
      "name": "transfer",
      "outputs": [
        {
          "internalType": "bool",
          "name": "",
          "type": "bool"
        }
      ],
      "stateMutability": "nonpayable",
      "type": "function"
    },
    {
      "inputs": [
        {
          "internalType": "address",
          "name": "sender",
          "type": "address"
        },
        {
          "internalType": "address",
          "name": "recipient",
          "type": "address"
        },
        {
          "internalType": "uint256",
          "name": "amount",
          "type": "uint256"
        }
      ],
      "name": "transferFrom",
      "outputs": [
        {
          "internalType": "bool",
          "name": "",
          "type": "bool"
        }
      ],
      "stateMutability": "nonpayable",
      "type": "function"
    },
    {
      "inputs": [
        {
          "internalType": "address",
          "name": "newOwner",
          "type": "address"
        }
      ],
      "name": "transferOwnership",
      "outputs": [],
      "stateMutability": "nonpayable",
      "type": "function"
    },
    {
      "inputs": [
        {
          "internalType": "bytes32",
          "name": "id",
          "type": "bytes32"
        },
        {
          "internalType": "bytes32[]",
          "name": "data",
          "type": "bytes32[]"
        }
      ],
      "name": "updateAgreementData",
      "outputs": [],
      "stateMutability": "nonpayable",
      "type": "function"
    },
    {
      "inputs": [
        {
          "internalType": "address",
          "name": "account",
          "type": "address"
        },
        {
          "internalType": "uint256",
          "name": "slotId",
          "type": "uint256"
        },
        {
          "internalType": "bytes32[]",
          "name": "slotData",
          "type": "bytes32[]"
        }
      ],
      "name": "updateAgreementStateSlot",
      "outputs": [],
      "stateMutability": "nonpayable",
      "type": "function"
    },
    {
      "inputs": [
        {
          "internalType": "address",
          "name": "newAddress",
          "type": "address"
        }
      ],
      "name": "updateCode",
      "outputs": [],
      "stateMutability": "nonpayable",
      "type": "function"
    },
    {
      "inputs": [
        {
          "internalType": "uint256",
          "name": "amount",
          "type": "uint256"
        }
      ],
      "name": "upgrade",
      "outputs": [],
      "stateMutability": "nonpayable",
      "type": "function"
    },
    {
      "inputs": [],
      "name": "validate",
      "outputs": [],
      "stateMutability": "pure",
      "type": "function"
    }
  ],
  "bytecode": "0x608060405234801561001057600080fd5b50612f45806100206000396000f3fe608060405234801561001057600080fd5b50600436106102325760003560e01c806362aa52871161013057806395d89b41116100b8578063cf97256d1161007c578063cf97256d146108f7578063dd62ed3e14610923578063eb3537cc14610951578063f2fde38b1461099b578063f3c70aad146109c157610232565b806395d89b4114610743578063a1b2bf8b1461074b578063a9059cbb146107c0578063b6f97226146107ec578063ca789464146108cb57610232565b8063715018a6116100ff578063715018a6146106cb5780638960bb19146106d35780638da5cb5b1461070d5780638f32d59b146107155780638fb4c9951461071d57610232565b806362aa5287146106355780636901f6681461066b5780636c2d9f2f1461067357806370a08231146106a557610232565b8063245887fc116101be57806345977d031161018257806345977d03146105a657806346951954146105c35780634b61cc33146105e957806350d75d251461062557806352d1902d1461062d57610232565b8063245887fc146104bb57806327048397146104e7578063313ce5671461050a578063386fa221146105285780633f3dc4911461059e57610232565b806312a6a3f81161020557806312a6a3f81461039657806316d055d61461040b57806318160ddd1461044757806320bc44251461046157806323b872dd1461048557610232565b806306fdde0314610237578063090c415e146102b4578063095ea7b31461033957806311bcc81e14610379575b600080fd5b61023f6109c9565b6040805160208082528351818301528351919283929083019185019080838360005b83811015610279578181015183820152602001610261565b50505050905090810190601f1680156102a65780820380516001836020036101000a031916815260200191505b509250505060405180910390f35b610337600480360360608110156102ca57600080fd5b6001600160a01b0382351691602081013591810190606081016040820135600160201b8111156102f957600080fd5b82018360208201111561030b57600080fd5b803590602001918460208302840111600160201b8311171561032c57600080fd5b509092509050610a5c565b005b6103656004803603604081101561034f57600080fd5b506001600160a01b038135169060200135610c6e565b604080519115158252519081900360200190f35b6103376004803603602081101561038f57600080fd5b5035610c84565b610337600480360360408110156103ac57600080fd5b81359190810190604081016020820135600160201b8111156103cd57600080fd5b8201836020820111156103df57600080fd5b803590602001918460208302840111600160201b8311171561040057600080fd5b509092509050610c91565b6103376004803603608081101561042157600080fd5b506001600160a01b03813581169160208101358216916040820135169060600135610ece565b61044f610f57565b60408051918252519081900360200190f35b610469610fd3565b604080516001600160a01b039092168252519081900360200190f35b6103656004803603606081101561049b57600080fd5b506001600160a01b03813581169160208101359091169060400135610fe2565b610337600480360360408110156104d157600080fd5b506001600160a01b038135169060200135610ffa565b610337600480360360408110156104fd57600080fd5b5080359060200135611055565b61051261121f565b6040805160ff9092168252519081900360200190f35b61054e6004803603602081101561053e57600080fd5b50356001600160a01b0316611224565b60408051602080825283518183015283519192839290830191858101910280838360005b8381101561058a578181015183820152602001610572565b505050509050019250505060405180910390f35b6104696113bd565b610337600480360360208110156105bc57600080fd5b50356113cc565b610337600480360360208110156105d957600080fd5b50356001600160a01b03166113d6565b61054e600480360360808110156105ff57600080fd5b506001600160a01b03813581169160208101359091169060408101359060600135611438565b6104696114b6565b61044f6114c5565b6103376004803603606081101561064b57600080fd5b506001600160a01b038135811691602081013590911690604001356114e9565b610337611546565b61054e6004803603606081101561068957600080fd5b506001600160a01b03813516906020810135906040013561154f565b61044f600480360360208110156106bb57600080fd5b50356001600160a01b03166115be565b6103376115e7565b610337600480360360808110156106e957600080fd5b506001600160a01b038135811691602081013591604082013516906060013561168a565b610469611a8e565b610365611a9d565b6103656004803603602081101561073357600080fd5b50356001600160a01b0316611aae565b61023f611ac7565b6103376004803603604081101561076157600080fd5b81359190810190604081016020820135600160201b81111561078257600080fd5b82018360208201111561079457600080fd5b803590602001918460208302840111600160201b831117156107b557600080fd5b509092509050611b28565b610365600480360360408110156107d657600080fd5b506001600160a01b038135169060200135611d65565b610337600480360360a081101561080257600080fd5b6001600160a01b038235169160ff60208201351691810190606081016040820135600160201b81111561083457600080fd5b82018360208201111561084657600080fd5b803590602001918460018302840111600160201b8311171561086757600080fd5b919390929091602081019035600160201b81111561088457600080fd5b82018360208201111561089657600080fd5b803590602001918460018302840111600160201b831117156108b757600080fd5b9193509150356001600160a01b0316611d72565b610337600480360360408110156108e157600080fd5b506001600160a01b038135169060200135611e51565b6103376004803603604081101561090d57600080fd5b506001600160a01b038135169060200135611ea8565b61044f6004803603604081101561093957600080fd5b506001600160a01b0381358116916020013516612019565b61097d6004803603604081101561096757600080fd5b506001600160a01b038135169060200135612044565b60408051938452602084019290925282820152519081900360600190f35b610337600480360360208110156109b157600080fd5b50356001600160a01b0316612061565b6105126120c3565b60028054604080516020601f6000196101006001871615020190941685900493840181900481028201810190925282815260609390929091830182828015610a525780601f10610a2757610100808354040283529160200191610a52565b820191906000526020600020905b815481529060010190602001808311610a3557829003601f168201915b5050505050905090565b6000600460009054906101000a90046001600160a01b03166001600160a01b031663289b3c0d6040518163ffffffff1660e01b815260040160206040518083038186803b158015610aac57600080fd5b505afa158015610ac0573d6000803e3d6000fd5b505050506040513d6020811015610ad657600080fd5b50516040805163f9029be560e01b815233600482015290519192506001600160a01b0383169163f9029be591602480820192602092909190829003018186803b158015610b2257600080fd5b505afa158015610b36573d6000803e3d6000fd5b505050506040513d6020811015610b4c57600080fd5b5051610b895760405162461bcd60e51b8152600401808060200182810382526022815260200180612e356022913960400191505060405180910390fd5b6040805133818301526001600160a01b03871660608201526080808201879052602080830191909152600e60a08301526d41677265656d656e74537461746560901b60c0808401919091528351808403909101815260e08301808552815191830191909120610100928702808501840190955286825293610c2693859389928992839201908490808284376000920191909152506120c892505050565b6040805186815290516001600160a01b0388169133917f30f416fa68fca014a0f334464c64b000ba53e99b6d2afdea9d5ca756372d59859181900360200190a3505050505050565b6000610c7b3384846120fa565b50600192915050565b610c8e3382612212565b50565b6000600460009054906101000a90046001600160a01b03166001600160a01b031663289b3c0d6040518163ffffffff1660e01b815260040160206040518083038186803b158015610ce157600080fd5b505afa158015610cf5573d6000803e3d6000fd5b505050506040513d6020811015610d0b57600080fd5b50516040805163f9029be560e01b815233600482015290519192506001600160a01b0383169163f9029be591602480820192602092909190829003018186803b158015610d5757600080fd5b505afa158015610d6b573d6000803e3d6000fd5b505050506040513d6020811015610d8157600080fd5b5051610dbe5760405162461bcd60e51b8152600401808060200182810382526022815260200180612e356022913960400191505060405180910390fd5b60408051338183018190526060808301889052602080840191909152600d60808401526c41677265656d656e744461746160981b60a0808501919091528451808503909101815260c0840180865281519183019190912060e0928802808601840190965287825292949293610e519385938a928a928392909101908490808284376000920191909152506120c892505050565b816001600160a01b03167f770ea40a13a4644573ed785e5c7116890709947918747febc5add46feb531e2d87878760405180848152602001806020018281038252848482818152602001925060200280828437600083820152604051601f909101601f1916909201829003965090945050505050a2505050505050565b6004546001600160a01b03163314610f1b576040805162461bcd60e51b815260206004820152601e6024820152600080516020612e78833981519152604482015290519081900360640190fd5b826001600160a01b0316846001600160a01b03161415610f4557610f40848383612338565b610f51565b610f518484848461249e565b50505050565b600154604080516370a0823160e01b815230600482015290516000926001600160a01b0316916370a08231916024808301926020929190829003018186803b158015610fa257600080fd5b505afa158015610fb6573d6000803e3d6000fd5b505050506040513d6020811015610fcc57600080fd5b5051905090565b6004546001600160a01b031690565b6000610ff03385858561249e565b5060019392505050565b6004546001600160a01b03163314611047576040805162461bcd60e51b815260206004820152601e6024820152600080516020612e78833981519152604482015290519081900360640190fd5b6110518282612212565b5050565b6000600460009054906101000a90046001600160a01b03166001600160a01b031663289b3c0d6040518163ffffffff1660e01b815260040160206040518083038186803b1580156110a557600080fd5b505afa1580156110b9573d6000803e3d6000fd5b505050506040513d60208110156110cf57600080fd5b50516040805163f9029be560e01b815233600482015290519192506001600160a01b0383169163f9029be591602480820192602092909190829003018186803b15801561111b57600080fd5b505afa15801561112f573d6000803e3d6000fd5b505050506040513d602081101561114557600080fd5b50516111825760405162461bcd60e51b8152600401808060200182810382526022815260200180612e356022913960400191505060405180910390fd5b60408051338183018190526060808301879052602080840191909152600d60808401526c41677265656d656e744461746160981b60a0808501919091528451808503909101815260c0909301909352815191909201206111e281856124fd565b60408051868152905133917f71a63dc095de07aa5512ad57a7596a39516317e316981a1cd71000057be1537b919081900360200190a25050505050565b601290565b600480546040805163289b3c0d60e01b815290516060936000936001600160a01b03169263289b3c0d9281830192602092829003018186803b15801561126957600080fd5b505afa15801561127d573d6000803e3d6000fd5b505050506040513d602081101561129357600080fd5b50516001600160a01b0384811660009081526007602052604080822054815163bebb6f2f60e01b81529019600482015290519394509184169263bebb6f2f926024808201939291829003018186803b1580156112ee57600080fd5b505afa158015611302573d6000803e3d6000fd5b505050506040513d6000823e601f3d908101601f19168201604052602081101561132b57600080fd5b8101908080516040519392919084600160201b82111561134a57600080fd5b90830190602082018581111561135f57600080fd5b82518660208202830111600160201b8211171561137b57600080fd5b82525081516020918201928201910280838360005b838110156113a8578181015183820152602001611390565b50505050905001604052505050915050919050565b6001546001600160a01b031690565b610c8e3382612516565b6113de611a9d565b61142f576040805162461bcd60e51b815260206004820181905260248201527f4f776e61626c653a2063616c6c6572206973206e6f7420746865206f776e6572604482015290519081900360640190fd5b610c8e816125fb565b604080516001600160a01b038087168284015285166060828101919091526080808301869052602080840191909152600e60a08401526d41677265656d656e74537461746560901b60c0808501919091528451808503909101815260e0909301909352815191909201206114ac81846126c3565b9695505050505050565b60006114c0612744565b905090565b7f6bfbb132610e56cb96575dba244667b9d6dbfeffe22b68a79fa16f2d18eb001990565b6004546001600160a01b03163314611536576040805162461bcd60e51b815260206004820152601e6024820152600080516020612e78833981519152604482015290519081900360640190fd5b6115418383836120fa565b505050565b60076000611051565b604080516001600160a01b0385168183015260608181018590526020808301829052600d60808401526c41677265656d656e744461746160981b60a0808501919091528451808503909101815260c0909301909352815191909201206115b581846126c3565b95945050505050565b6000806115cb8342612769565b50509050600081126115dd57806115e0565b60005b9392505050565b6115ef611a9d565b611640576040805162461bcd60e51b815260206004820181905260248201527f4f776e61626c653a2063616c6c6572206973206e6f7420746865206f776e6572604482015290519081900360640190fd5b600080546040516001600160a01b03909116907f8be0079c531659141344cd1fd0a4f28419497f9722a3daafe3b4186f6b6457e0908390a3600080546001600160a01b0319169055565b6000600460009054906101000a90046001600160a01b03166001600160a01b031663289b3c0d6040518163ffffffff1660e01b815260040160206040518083038186803b1580156116da57600080fd5b505afa1580156116ee573d6000803e3d6000fd5b505050506040513d602081101561170457600080fd5b50516040805163f9029be560e01b815233600482015290519192506001600160a01b0383169163f9029be591602480820192602092909190829003018186803b15801561175057600080fd5b505afa158015611764573d6000803e3d6000fd5b505050506040513d602081101561177a57600080fd5b50516117b75760405162461bcd60e51b8152600401808060200182810382526022815260200180612e356022913960400191505060405180910390fd5b6000600460009054906101000a90046001600160a01b03166001600160a01b031663289b3c0d6040518163ffffffff1660e01b815260040160206040518083038186803b15801561180757600080fd5b505afa15801561181b573d6000803e3d6000fd5b505050506040513d602081101561183157600080fd5b5051604080516301c64fdd60e31b815230600482015290519192506000916001600160a01b03841691630e327ee8916024808301926020929190829003018186803b15801561187f57600080fd5b505afa158015611893573d6000803e3d6000fd5b505050506040513d60208110156118a957600080fd5b5051905060006118b98642612044565b50909150600090506118cb82876128b9565b90506000811315611946576001600160a01b0387166000908152600560205260409020546118f990876128b9565b6001600160a01b038089166000908152600560205260408082209390935590851681522054611928908761291e565b6001600160a01b0384166000908152600560205260409020556119e1565b6001600160a01b03871660009081526005602052604090205461196990836128b9565b6001600160a01b038089166000908152600560205260408082209390935590851681522054611998908261291e565b6001600160a01b0380851660009081526005602052604080822093909355908b16815220546119c7908761291e565b6001600160a01b038a166000908152600560205260409020555b60408051898152905133917f71a63dc095de07aa5512ad57a7596a39516317e316981a1cd71000057be1537b919081900360200190a260008113611a255788611a27565b825b6001600160a01b0316876001600160a01b0316336001600160a01b03167f8505c3d8f1f184f032cf0bc4cd80ee61c8b9d94f8907c3281bf0101a2610fe808b8a604051808381526020018281526020019250505060405180910390a4505050505050505050565b6000546001600160a01b031690565b6000546001600160a01b0316331490565b600080611abb8342612044565b50506000139392505050565b60038054604080516020601f6002600019610100600188161502019095169490940493840181900481028201810190925282815260609390929091830182828015610a525780601f10610a2757610100808354040283529160200191610a52565b6000600460009054906101000a90046001600160a01b03166001600160a01b031663289b3c0d6040518163ffffffff1660e01b815260040160206040518083038186803b158015611b7857600080fd5b505afa158015611b8c573d6000803e3d6000fd5b505050506040513d6020811015611ba257600080fd5b50516040805163f9029be560e01b815233600482015290519192506001600160a01b0383169163f9029be591602480820192602092909190829003018186803b158015611bee57600080fd5b505afa158015611c02573d6000803e3d6000fd5b505050506040513d6020811015611c1857600080fd5b5051611c555760405162461bcd60e51b8152600401808060200182810382526022815260200180612e356022913960400191505060405180910390fd5b60408051338183018190526060808301889052602080840191909152600d60808401526c41677265656d656e744461746160981b60a0808501919091528451808503909101815260c0840180865281519183019190912060e0928802808601840190965287825292949293611ce89385938a928a928392909101908490808284376000920191909152506120c892505050565b336001600160a01b03167f0c4c547b3a4fcaa5be8353b3111472b124155bccc86de811d4a481c9e6e9faca87878760405180848152602001806020018281038252848482818152602001925060200280828437600083820152604051601f909101601f1916909201829003965090945050505050a2505050505050565b6000610c7b338484612338565b600054600160a01b900460ff1615611dc7576040805162461bcd60e51b8152602060048201526013602482015272185b1c9958591e481a5b9a5d1a585b1a5e9959606a1b604482015290519081900360640190fd5b600080546001600160a01b031960ff60a01b19918216600160a01b908117821633179093556001805460ff8b169094026001600160a01b038c169490921693909317909116179055611e1b60028686612d7b565b50611e2860038484612d7b565b50600480546001600160a01b0319166001600160a01b0392909216919091179055505050505050565b6004546001600160a01b03163314611e9e576040805162461bcd60e51b815260206004820152601e6024820152600080516020612e78833981519152604482015290519081900360640190fd5b6110518282612516565b6000600460009054906101000a90046001600160a01b03166001600160a01b031663289b3c0d6040518163ffffffff1660e01b815260040160206040518083038186803b158015611ef857600080fd5b505afa158015611f0c573d6000803e3d6000fd5b505050506040513d6020811015611f2257600080fd5b50516040805163f9029be560e01b815233600482015290519192506001600160a01b0383169163f9029be591602480820192602092909190829003018186803b158015611f6e57600080fd5b505afa158015611f82573d6000803e3d6000fd5b505050506040513d6020811015611f9857600080fd5b5051611fd55760405162461bcd60e51b8152600401808060200182810382526022815260200180612e356022913960400191505060405180910390fd5b6001600160a01b038316600090815260056020526040902054611ff8908361291e565b6001600160a01b039093166000908152600560205260409020929092555050565b6001600160a01b03918216600090815260066020908152604080832093909416825291909152205490565b60008060006120538585612769565b919790965090945092505050565b612069611a9d565b6120ba576040805162461bcd60e51b815260206004820181905260248201527f4f776e61626c653a2063616c6c6572206973206e6f7420746865206f776e6572604482015290519081900360640190fd5b610c8e81612983565b601281565b60005b81518110156115415760008282815181106120e257fe5b602090810291909101015184830155506001016120cb565b6001600160a01b038316612155576040805162461bcd60e51b815260206004820152601960248201527f617070726f76652066726f6d207a65726f206164647265737300000000000000604482015290519081900360640190fd5b6001600160a01b0382166121b0576040805162461bcd60e51b815260206004820152601760248201527f617070726f766520746f207a65726f2061646472657373000000000000000000604482015290519081900360640190fd5b6001600160a01b03808416600081815260066020908152604080832094871680845294825291829020859055815185815291517f8c5be1e5ebec7d5bd14f71427d1e84f3dd0314c0f7b2291e5b200ac8c7c3b9259281900390910190a3505050565b8061221c836115be565b10156122595760405162461bcd60e51b815260040180806020018281038252602c815260200180612ee4602c913960400191505060405180910390fd5b600061226482612a23565b925090506122728383612ab5565b6001546040805163a9059cbb60e01b81526001600160a01b038681166004830152602482018590529151919092169163a9059cbb9160448083019260209291908290030181600087803b1580156122c857600080fd5b505af11580156122dc573d6000803e3d6000fd5b505050506040513d60208110156122f257600080fd5b50506040805183815290516001600160a01b038516917f3bc27981aebbb57f9247dc00fde9d6cd91e4b230083fec3238fedbcba1f9ab3d919081900360200190a2505050565b6001600160a01b038216612393576040805162461bcd60e51b815260206004820152601860248201527f7472616e7366657220746f207a65726f20616464726573730000000000000000604482015290519081900360640190fd5b8061239d846115be565b10156123f0576040805162461bcd60e51b815260206004820152601f60248201527f7472616e7366657220616d6f756e7420657863656564732062616c616e636500604482015290519081900360640190fd5b6001600160a01b03831660009081526005602052604090205461241390826128b9565b6001600160a01b038085166000908152600560205260408082209390935590841681522054612442908261291e565b6001600160a01b0380841660008181526005602090815260409182902094909455805185815290519193928716927fddf252ad1be2c89b69c2b068fc378daa952ba7f163c4a11628f55a4df523b3ef92918290030190a3505050565b6124a9838383612338565b610f5183856124f884604051806060016040528060288152602001612e98602891396001600160a01b03808a166000908152600660209081526040808320938e16835292905220549190612b83565b6120fa565b60005b8181101561154157600083820155600101612500565b600061252182612a23565b600154604080516323b872dd60e01b81526001600160a01b03888116600483015230602483015260448201869052915193965093945016916323b872dd9160648083019260209291908290030181600087803b15801561258057600080fd5b505af1158015612594573d6000803e3d6000fd5b505050506040513d60208110156125aa57600080fd5b506125b790508383612c1a565b6040805183815290516001600160a01b038516917f25ca84076773b0455db53621c459ddc84fe40840e4932a62706a032566f399df919081900360200190a2505050565b806001600160a01b03166352d1902d6040518163ffffffff1660e01b815260040160206040518083038186803b15801561263457600080fd5b505afa158015612648573d6000803e3d6000fd5b505050506040513d602081101561265e57600080fd5b50516126686114c5565b146126ba576040805162461bcd60e51b815260206004820152601960248201527f50726f786961626c653a204e4f545f434f4d50415449424c4500000000000000604482015290519081900360640190fd5b610c8e81612ce7565b60608167ffffffffffffffff811180156126dc57600080fd5b50604051908082528060200260200182016040528015612706578160200160208202803683370190505b50905060005b8281101561273d5760008185015490508083838151811061272957fe5b60209081029190910101525060010161270c565b5092915050565b7f360894a13ba1a3210667c828492db98dca3e2076cc3735a920a3ca505d382bbc5490565b6001600160a01b03821660009081526005602052604081205481908190606061279187611224565b905060005b81518110156128905760008060008484815181106127b057fe5b60200260200101516001600160a01b0316639b2e48bc308d8d6040518463ffffffff1660e01b815260040180846001600160a01b03168152602001836001600160a01b03168152602001828152602001935050505060606040518083038186803b15801561281d57600080fd5b505afa158015612831573d6000803e3d6000fd5b505050506040513d606081101561284757600080fd5b50805160208201516040909201519094509092509050612867868461291e565b95506128738883612d0b565b975061287f8782612d0b565b965050600190920191506127969050565b506128ae61289e8585612d65565b6128a884876128b9565b9061291e565b945050509250925092565b60008183038183128015906128ce5750838113155b806128e357506000831280156128e357508381135b6115e05760405162461bcd60e51b8152600401808060200182810382526024815260200180612ec06024913960400191505060405180910390fd5b60008282018183128015906129335750838112155b80612948575060008312801561294857508381125b6115e05760405162461bcd60e51b8152600401808060200182810382526021815260200180612e576021913960400191505060405180910390fd5b6001600160a01b0381166129c85760405162461bcd60e51b8152600401808060200182810382526026815260200180612e0f6026913960400191505060405180910390fd5b600080546040516001600160a01b03808516939216917f8be0079c531659141344cd1fd0a4f28419497f9722a3daafe3b4186f6b6457e091a3600080546001600160a01b0319166001600160a01b0392909216919091179055565b600154600090819081906012600160a01b90910460ff161015612a6d575060015460ff600160a01b909104811660120316600a0a808481612a6057fe5b0492508083029150612aaf565b6001546012600160a01b90910460ff161115612aa857505060015460111960ff600160a01b90920482160116600a0a82810291508290612aaf565b8391508192505b50915091565b6001600160a01b038216612b09576040805162461bcd60e51b81526020600482015260166024820152756275726e2066726f6d207a65726f206164647265737360501b604482015290519081900360640190fd5b6001600160a01b038216600090815260056020526040902054612b2c90826128b9565b6001600160a01b0383166000818152600560209081526040808320949094558351858152935191937fddf252ad1be2c89b69c2b068fc378daa952ba7f163c4a11628f55a4df523b3ef929081900390910190a35050565b60008184841115612c125760405162461bcd60e51b81526004018080602001828103825283818151815260200191508051906020019080838360005b83811015612bd7578181015183820152602001612bbf565b50505050905090810190601f168015612c045780820380516001836020036101000a031916815260200191505b509250505060405180910390fd5b505050900390565b6001600160a01b038216612c6c576040805162461bcd60e51b81526020600482015260146024820152736d696e7420746f207a65726f206164647265737360601b604482015290519081900360640190fd5b6001600160a01b038216600090815260056020526040902054612c8f908261291e565b6001600160a01b03831660008181526005602090815260408083209490945583518581529351929391927fddf252ad1be2c89b69c2b068fc378daa952ba7f163c4a11628f55a4df523b3ef9281900390910190a35050565b7f360894a13ba1a3210667c828492db98dca3e2076cc3735a920a3ca505d382bbc55565b6000828201838110156115e0576040805162461bcd60e51b815260206004820152601b60248201527f536166654d6174683a206164646974696f6e206f766572666c6f770000000000604482015290519081900360640190fd5b6000818310612d7457816115e0565b5090919050565b828054600181600116156101000203166002900490600052602060002090601f016020900481019282601f10612dbc5782800160ff19823516178555612de9565b82800160010185558215612de9579182015b82811115612de9578235825591602001919060010190612dce565b50612df5929150612df9565b5090565b5b80821115612df55760008155600101612dfa56fe4f776e61626c653a206e6577206f776e657220697320746865207a65726f206164647265737353463a204f6e6c79206c6973746564206167726565656d656e7420616c6c6f7765645369676e6564536166654d6174683a206164646974696f6e206f766572666c6f7753463a204f6e6c7920686f737420636f6e747261637420616c6c6f776564000045524332303a207472616e7366657220616d6f756e74206578636565647320616c6c6f77616e63655369676e6564536166654d6174683a207375627472616374696f6e206f766572666c6f775375706572546f6b656e3a20646f776e677261646520616d6f756e7420657863656564732062616c616e6365a264697066735822122000c4f85e3f6938f8b960b8eaa26d772e24323fec8b80e15c3865aa70f9bbe7e864736f6c63430007010033",
  "immutableReferences": {},
  "sourcePath": "/home/hellwolf/Projects/superfluid/ethereum-contracts/contracts/test/SuperTokenStorageTester.sol",
  "compiler": {
    "name": "solc",
    "version": "0.7.1+commit.f4a555be.Emscripten.clang"
  },
  "schemaVersion": "3.2.5",
  "updatedAt": "2020-09-28T17:04:34.337Z",
  "devdoc": {
    "details": "Test SuperTokenStorag Layout changes",
    "kind": "dev",
    "methods": {
      "allowance(address,address)": {
        "details": "See {IERC20-allowance}."
      },
      "approve(address,uint256)": {
        "details": "See {IERC20-approve}. Requirements: - `spender` cannot be the zero address."
      },
      "balanceOf(address)": {
        "details": "ERC20.balanceOf implementation"
      },
      "createAgreement(bytes32,bytes32[])": {
        "details": "ISuperToken.createAgreement implementation"
      },
      "decimals()": {
        "details": "Returns the number of decimals used to get its user representation. For example, if `decimals` equals `2`, a balance of `505` tokens should be displayed to a user as `5,05` (`505 / 10 ** 2`). Tokens usually opt for a value of 18, imitating the relationship between Ether and Wei. This is the value {ERC20} uses, unless {_setupDecimals} is called. NOTE: SuperToken always uses 18 decimals. Note: This information is only used for _display_ purposes: it in no way affects any of the arithmetic of the contract, including {IERC20-balanceOf} and {IERC20-transfer}."
      },
      "downgrade(uint256)": {
        "details": "ISuperToken.downgrade implementation"
      },
      "getAccountActiveAgreements(address)": {
        "details": "ISuperToken.getAccountActiveAgreements implementation"
      },
      "getAgreementData(address,bytes32,uint256)": {
        "details": "ISuperToken.getAgreementData implementation"
      },
      "getAgreementStateSlot(address,address,uint256,uint256)": {
        "details": "ISuperToken.getAgreementState implementation"
      },
      "getCodeAddress()": {
        "details": "Get current implementation code address."
      },
      "getHost()": {
        "details": "Get the contract address that is hosting this token.",
        "returns": {
          "host": "Superfluid host contract address"
        }
      },
      "getUnderlayingToken()": {
        "details": "ISuperfluidGovernance.getUnderlayingToken implementation"
      },
      "isAccountInsolvent(address)": {
        "details": "ISuperToken.isAccountInsolvent implementation"
      },
      "isOwner()": {
        "details": "Returns true if the caller is the current owner."
      },
      "liquidateAgreement(address,bytes32,address,uint256)": {
        "details": "ISuperToken.liquidateAgreement implementation"
      },
      "name()": {
        "details": "Returns the name of the token."
      },
      "operationApprove(address,address,uint256)": {
        "details": "Perform ERC20 approve by host contract.",
        "params": {
          "account": "The account owner to be approved.",
          "amount": "Number of tokens to be approved.",
          "spender": "The spender of account owner's funds."
        }
      },
      "operationDowngrade(address,uint256)": {
        "details": "Downgrade ERC20 to SuperToken by host contract.",
        "params": {
          "account": "The account to be changed.",
          "amount": "Number of tokens to be downgraded (in 18 decimals)"
        }
      },
      "operationTransferFrom(address,address,address,uint256)": {
        "details": "Perform ERC20 transfer from by host contract.",
        "params": {
          "account": "The account to spend sender's funds.",
          "amount": "Number of tokens to be transferred.",
          "recipient": "The recipient of thefunds.",
          "sender": "The account where the funds is sent from."
        }
      },
      "operationUpgrade(address,uint256)": {
        "details": "Upgrade ERC20 to SuperToken by host contract.",
        "params": {
          "account": "The account to be changed.",
          "amount": "Number of tokens to be upgraded (in 18 decimals)"
        }
      },
      "owner()": {
        "details": "Returns the address of the current owner."
      },
      "proxiableUUID()": {
        "details": "Proxiable UUID marker function.      This would help to avoid wrong logic contract to be used for upgrading."
      },
      "realtimeBalanceOf(address,uint256)": {
        "details": "ISuperToken.realtimeBalanceOf implementation"
      },
      "renounceOwnership()": {
        "details": "Leaves the contract without owner. It will not be possible to call `onlyOwner` functions anymore. Can only be called by the current owner. > Note: Renouncing ownership will leave the contract without an owner, thereby removing any functionality that is only available to the owner."
      },
      "settleBalance(address,int256)": {
        "details": "Settle balance from an account by the agreement.      The agreement needs to make sure that the balance delta is balanced afterwards",
        "params": {
          "account": "Account to query.",
          "delta": "Amount of balance delta to be settled"
        }
      },
      "symbol()": {
        "details": "Returns the symbol of the token, usually a shorter version of the name."
      },
      "terminateAgreement(bytes32,uint256)": {
        "details": "ISuperToken.terminateAgreement implementation"
      },
      "totalSupply()": {
        "details": "See {IERC20-totalSupply}."
      },
      "transfer(address,uint256)": {
        "details": "See {IERC20-transfer}. Requirements: - `recipient` cannot be the zero address. - the caller must have a balance of at least `amount`."
      },
      "transferFrom(address,address,uint256)": {
        "details": "See {IERC20-transferFrom}. Emits an {Approval} event indicating the updated allowance. This is not required by the EIP. See the note at the beginning of {ERC20}; Requirements: - `sender` and `recipient` cannot be the zero address. - `sender` must have a balance of at least `amount`. - the caller must have allowance for ``sender``'s tokens of at least `amount`."
      },
      "transferOwnership(address)": {
        "details": "Transfers ownership of the contract to a new account (`newOwner`). Can only be called by the current owner."
      },
      "updateAgreementData(bytes32,bytes32[])": {
        "details": "ISuperToken.updateAgreementData implementation"
      },
      "updateAgreementStateSlot(address,uint256,bytes32[])": {
        "details": "ISuperToken.updateAgreementState implementation"
      },
      "upgrade(uint256)": {
        "details": "ISuperToken.upgrade implementation"
      }
    },
    "version": 1
  },
  "userdoc": {
    "kind": "user",
    "methods": {},
    "version": 1
  }
}