{
  "contractName": "TestGovernance",
  "abi": [
    {
      "inputs": [
        {
          "internalType": "address",
          "name": "rewardAddress",
          "type": "address"
        },
        {
          "internalType": "uint256",
          "name": "liquidationPeriod",
          "type": "uint256"
        }
      ],
      "stateMutability": "nonpayable",
      "type": "constructor"
    },
    {
      "anonymous": false,
      "inputs": [
        {
          "indexed": true,
          "internalType": "address",
          "name": "previousOwner",
          "type": "address"
        },
        {
          "indexed": true,
          "internalType": "address",
          "name": "newOwner",
          "type": "address"
        }
      ],
      "name": "OwnershipTransferred",
      "type": "event"
    },
    {
      "inputs": [],
      "name": "isOwner",
      "outputs": [
        {
          "internalType": "bool",
          "name": "",
          "type": "bool"
        }
      ],
      "stateMutability": "view",
      "type": "function"
    },
    {
      "inputs": [],
      "name": "owner",
      "outputs": [
        {
          "internalType": "address",
          "name": "",
          "type": "address"
        }
      ],
      "stateMutability": "view",
      "type": "function"
    },
    {
      "inputs": [],
      "name": "renounceOwnership",
      "outputs": [],
      "stateMutability": "nonpayable",
      "type": "function"
    },
    {
      "inputs": [
        {
          "internalType": "address",
          "name": "newOwner",
          "type": "address"
        }
      ],
      "name": "transferOwnership",
      "outputs": [],
      "stateMutability": "nonpayable",
      "type": "function"
    },
    {
      "inputs": [
        {
          "internalType": "address",
          "name": "",
          "type": "address"
        }
      ],
      "name": "getRewardAddress",
      "outputs": [
        {
          "internalType": "address",
          "name": "rewardAddress",
          "type": "address"
        }
      ],
      "stateMutability": "view",
      "type": "function"
    },
    {
      "inputs": [
        {
          "internalType": "address",
          "name": "rewardAddress",
          "type": "address"
        }
      ],
      "name": "setRewardAddress",
      "outputs": [],
      "stateMutability": "nonpayable",
      "type": "function"
    },
    {
      "inputs": [
        {
          "internalType": "address",
          "name": "",
          "type": "address"
        }
      ],
      "name": "getLiquidationPeriod",
      "outputs": [
        {
          "internalType": "uint256",
          "name": "period",
          "type": "uint256"
        }
      ],
      "stateMutability": "view",
      "type": "function"
    },
    {
      "inputs": [
        {
          "internalType": "address",
          "name": "agreementClass",
          "type": "address"
        }
      ],
      "name": "addAgreement",
      "outputs": [],
      "stateMutability": "nonpayable",
      "type": "function"
    },
    {
      "inputs": [
        {
          "internalType": "address",
          "name": "agreementClass",
          "type": "address"
        }
      ],
      "name": "isAgreementListed",
      "outputs": [
        {
          "internalType": "bool",
          "name": "yes",
          "type": "bool"
        }
      ],
      "stateMutability": "view",
      "type": "function"
    },
    {
      "inputs": [
        {
          "internalType": "uint256",
          "name": "bitmap",
          "type": "uint256"
        }
      ],
      "name": "mapAgreements",
      "outputs": [
        {
          "internalType": "address[]",
          "name": "agreementClasses",
          "type": "address[]"
        }
      ],
      "stateMutability": "view",
      "type": "function"
    },
    {
      "inputs": [
        {
          "internalType": "uint256",
          "name": "bitmap",
          "type": "uint256"
        },
        {
          "internalType": "address",
          "name": "agreementClass",
          "type": "address"
        }
      ],
      "name": "maskAgreementBit",
      "outputs": [
        {
          "internalType": "uint256",
          "name": "newBitmap",
          "type": "uint256"
        }
      ],
      "stateMutability": "view",
      "type": "function"
    },
    {
      "inputs": [
        {
          "internalType": "uint256",
          "name": "bitmap",
          "type": "uint256"
        },
        {
          "internalType": "address",
          "name": "agreementClass",
          "type": "address"
        }
      ],
      "name": "unmaskAgreementBit",
      "outputs": [
        {
          "internalType": "uint256",
          "name": "newBitmap",
          "type": "uint256"
        }
      ],
      "stateMutability": "view",
      "type": "function"
    }
  ],
  "bytecode": "0x608060405234801561001057600080fd5b506040516108f23803806108f28339818101604052604081101561003357600080fd5b508051602090910151600080546001600160a01b03199081163317909155600180546001600160a01b0390941693909116929092179091556002556108758061007d6000396000f3fe608060405234801561001057600080fd5b50600436106100b45760003560e01c80638da5cb5b116100715780638da5cb5b146101bb5780638f32d59b146101c3578063bebb6f2f146101df578063bf9149f21461024c578063f2fde38b14610272578063f9029be514610298576100b4565b806309fa423e146100b95780630e327ee8146100e15780632444d97e146101235780632765f6b7146101615780635e00e6791461018d578063715018a6146101b3575b600080fd5b6100df600480360360208110156100cf57600080fd5b50356001600160a01b03166102be565b005b610107600480360360208110156100f757600080fd5b50356001600160a01b03166103a6565b604080516001600160a01b039092168252519081900360200190f35b61014f6004803603604081101561013957600080fd5b50803590602001356001600160a01b03166103b6565b60408051918252519081900360200190f35b61014f6004803603604081101561017757600080fd5b50803590602001356001600160a01b0316610430565b6100df600480360360208110156101a357600080fd5b50356001600160a01b03166104ab565b6100df610514565b6101076105a5565b6101cb6105b4565b604080519115158252519081900360200190f35b6101fc600480360360208110156101f557600080fd5b50356105c5565b60408051602080825283518183015283519192839290830191858101910280838360005b83811015610238578181015183820152602001610220565b505050509050019250505060405180910390f35b61014f6004803603602081101561026257600080fd5b50356001600160a01b031661069b565b6100df6004803603602081101561028857600080fd5b50356001600160a01b03166106a2565b6101cb600480360360208110156102ae57600080fd5b50356001600160a01b03166106f5565b6102c66105b4565b610305576040805162461bcd60e51b81526020600482018190526024820152600080516020610820833981519152604482015290519081900360640190fd5b6001600160a01b03811661034a5760405162461bcd60e51b81526004018080602001828103825260238152602001806107d76023913960400191505060405180910390fd5b600380546001810182557fc2575a0e9e593c00f959f8c92f12db2869c3395a3b0502d05e2516446f71f85b0180546001600160a01b039093166001600160a01b0319909316831790555460009182526004602052604090912055565b506001546001600160a01b031690565b6001600160a01b03811660009081526004602052604081205461040a5760405162461bcd60e51b81526004018080602001828103825260248152602001806107b36024913960400191505060405180910390fd5b506001600160a01b031660009081526004602052604090205460016000199091011b1790565b6001600160a01b0381166000908152600460205260408120546104845760405162461bcd60e51b81526004018080602001828103825260248152602001806107b36024913960400191505060405180910390fd5b506001600160a01b031660009081526004602052604090205460016000199091011b191690565b6104b36105b4565b6104f2576040805162461bcd60e51b81526020600482018190526024820152600080516020610820833981519152604482015290519081900360640190fd5b600180546001600160a01b0319166001600160a01b0392909216919091179055565b61051c6105b4565b61055b576040805162461bcd60e51b81526020600482018190526024820152600080516020610820833981519152604482015290519081900360640190fd5b600080546040516001600160a01b03909116907f8be0079c531659141344cd1fd0a4f28419497f9722a3daafe3b4186f6b6457e0908390a3600080546001600160a01b0319169055565b6000546001600160a01b031690565b6000546001600160a01b0316331490565b606060008060038054905067ffffffffffffffff811180156105e657600080fd5b50604051908082528060200260200182016040528015610610578160200160208202803683370190505b50925060009050600091505b600354821015610693576001821b841615610688576003828154811061063e57fe5b600091825260209091200154835160018301926001600160a01b03909216918591811061066757fe5b60200260200101906001600160a01b031690816001600160a01b0316815250505b81600101915061061c565b825250919050565b5060025490565b6106aa6105b4565b6106e9576040805162461bcd60e51b81526020600482018190526024820152600080516020610820833981519152604482015290519081900360640190fd5b6106f281610712565b50565b6001600160a01b0316600090815260046020526040902054151590565b6001600160a01b0381166107575760405162461bcd60e51b81526004018080602001828103825260268152602001806107fa6026913960400191505060405180910390fd5b600080546040516001600160a01b03808516939216917f8be0079c531659141344cd1fd0a4f28419497f9722a3daafe3b4186f6b6457e091a3600080546001600160a01b0319166001600160a01b039290921691909117905556fe54657374476f7665726e616e63653a2041677265656d656e74206e6f74206c697374656454657374476f7665726e616e63653a20307820616464726573732064657465637465644f776e61626c653a206e6577206f776e657220697320746865207a65726f20616464726573734f776e61626c653a2063616c6c6572206973206e6f7420746865206f776e6572a2646970667358221220c1960ad2b56af87dedbf478a56401b15db8c3496c4125ca081349ac2c7519e8364736f6c63430007010033",
  "immutableReferences": {},
  "compiler": {
    "name": "solc",
    "version": "0.7.1+commit.f4a555be.Emscripten.clang"
  },
  "schemaVersion": "3.2.5",
  "updatedAt": "2020-09-30T18:18:27.107Z",
  "devdoc": {
    "kind": "dev",
    "methods": {
      "addAgreement(address)": {
        "details": "Add an agreement to the whitelist"
      },
      "isAgreementListed(address)": {
        "details": "Check if the agreement is whitelisted"
      },
      "isOwner()": {
        "details": "Returns true if the caller is the current owner."
      },
      "mapAgreements(uint256)": {
        "details": "Map list of the agreements using a bitmap",
        "params": {
          "bitmap": "Agreement class ID based bitmap"
        }
      },
      "maskAgreementBit(uint256,address)": {
        "details": "Create a new bitmask by adding agreement class to it."
      },
      "owner()": {
        "details": "Returns the address of the current owner."
      },
      "renounceOwnership()": {
        "details": "Leaves the contract without owner. It will not be possible to call `onlyOwner` functions anymore. Can only be called by the current owner. > Note: Renouncing ownership will leave the contract without an owner, thereby removing any functionality that is only available to the owner."
      },
      "transferOwnership(address)": {
        "details": "Transfers ownership of the contract to a new account (`newOwner`). Can only be called by the current owner."
      },
      "unmaskAgreementBit(uint256,address)": {
        "details": "Create a new bitmask by removing agreement class from it."
      }
    },
    "version": 1
  },
  "userdoc": {
    "kind": "user",
    "methods": {},
    "version": 1
  }
}