{
  "contractName": "TestGovernance",
  "abi": [
    {
      "inputs": [
        {
          "internalType": "address",
          "name": "rewardAddress",
          "type": "address"
        },
        {
          "internalType": "uint256",
          "name": "liquidationPeriod",
          "type": "uint256"
        }
      ],
      "stateMutability": "nonpayable",
      "type": "constructor"
    },
    {
      "anonymous": false,
      "inputs": [
        {
          "indexed": true,
          "internalType": "address",
          "name": "previousOwner",
          "type": "address"
        },
        {
          "indexed": true,
          "internalType": "address",
          "name": "newOwner",
          "type": "address"
        }
      ],
      "name": "OwnershipTransferred",
      "type": "event"
    },
    {
      "inputs": [],
      "name": "isOwner",
      "outputs": [
        {
          "internalType": "bool",
          "name": "",
          "type": "bool"
        }
      ],
      "stateMutability": "view",
      "type": "function"
    },
    {
      "inputs": [],
      "name": "owner",
      "outputs": [
        {
          "internalType": "address",
          "name": "",
          "type": "address"
        }
      ],
      "stateMutability": "view",
      "type": "function"
    },
    {
      "inputs": [],
      "name": "renounceOwnership",
      "outputs": [],
      "stateMutability": "nonpayable",
      "type": "function"
    },
    {
      "inputs": [
        {
          "internalType": "address",
          "name": "newOwner",
          "type": "address"
        }
      ],
      "name": "transferOwnership",
      "outputs": [],
      "stateMutability": "nonpayable",
      "type": "function"
    },
    {
      "inputs": [
        {
          "internalType": "address",
          "name": "",
          "type": "address"
        }
      ],
      "name": "getRewardAddress",
      "outputs": [
        {
          "internalType": "address",
          "name": "rewardAddress",
          "type": "address"
        }
      ],
      "stateMutability": "view",
      "type": "function"
    },
    {
      "inputs": [
        {
          "internalType": "address",
          "name": "",
          "type": "address"
        }
      ],
      "name": "getLiquidationPeriod",
      "outputs": [
        {
          "internalType": "uint256",
          "name": "period",
          "type": "uint256"
        }
      ],
      "stateMutability": "view",
      "type": "function"
    },
    {
      "inputs": [
        {
          "internalType": "address",
          "name": "agreementClass",
          "type": "address"
        }
      ],
      "name": "addAgreement",
      "outputs": [],
      "stateMutability": "nonpayable",
      "type": "function"
    },
    {
      "inputs": [
        {
          "internalType": "address",
          "name": "agreementClass",
          "type": "address"
        }
      ],
      "name": "isAgreementListed",
      "outputs": [
        {
          "internalType": "bool",
          "name": "yes",
          "type": "bool"
        }
      ],
      "stateMutability": "view",
      "type": "function"
    },
    {
      "inputs": [
        {
          "internalType": "uint256",
          "name": "bitmap",
          "type": "uint256"
        }
      ],
      "name": "mapAgreements",
      "outputs": [
        {
          "internalType": "address[]",
          "name": "agreementClasses",
          "type": "address[]"
        }
      ],
      "stateMutability": "view",
      "type": "function"
    },
    {
      "inputs": [
        {
          "internalType": "uint256",
          "name": "bitmap",
          "type": "uint256"
        },
        {
          "internalType": "address",
          "name": "agreementClass",
          "type": "address"
        }
      ],
      "name": "maskAgreementBit",
      "outputs": [
        {
          "internalType": "uint256",
          "name": "newBitmap",
          "type": "uint256"
        }
      ],
      "stateMutability": "view",
      "type": "function"
    },
    {
      "inputs": [
        {
          "internalType": "uint256",
          "name": "bitmap",
          "type": "uint256"
        },
        {
          "internalType": "address",
          "name": "agreementClass",
          "type": "address"
        }
      ],
      "name": "unmaskAgreementBit",
      "outputs": [
        {
          "internalType": "uint256",
          "name": "newBitmap",
          "type": "uint256"
        }
      ],
      "stateMutability": "view",
      "type": "function"
    }
  ],
  "bytecode": "0x608060405234801561001057600080fd5b5060405161086e38038061086e8339818101604052604081101561003357600080fd5b508051602090910151600080546001600160a01b03199081163317909155600180546001600160a01b0390941693909116929092179091556002556107f18061007d6000396000f3fe608060405234801561001057600080fd5b50600436106100a95760003560e01c80638da5cb5b116100715780638da5cb5b1461018a5780638f32d59b14610192578063bebb6f2f146101ae578063bf9149f21461021b578063f2fde38b14610241578063f9029be514610267576100a9565b806309fa423e146100ae5780630e327ee8146100d65780632444d97e146101185780632765f6b714610156578063715018a614610182575b600080fd5b6100d4600480360360208110156100c457600080fd5b50356001600160a01b031661028d565b005b6100fc600480360360208110156100ec57600080fd5b50356001600160a01b0316610387565b604080516001600160a01b039092168252519081900360200190f35b6101446004803603604081101561012e57600080fd5b50803590602001356001600160a01b0316610397565b60408051918252519081900360200190f35b6101446004803603604081101561016c57600080fd5b50803590602001356001600160a01b0316610411565b6100d461048c565b6100fc61052f565b61019a61053e565b604080519115158252519081900360200190f35b6101cb600480360360208110156101c457600080fd5b503561054f565b60408051602080825283518183015283519192839290830191858101910280838360005b838110156102075781810151838201526020016101ef565b505050509050019250505060405180910390f35b6101446004803603602081101561023157600080fd5b50356001600160a01b0316610625565b6100d46004803603602081101561025757600080fd5b50356001600160a01b031661062c565b61019a6004803603602081101561027d57600080fd5b50356001600160a01b0316610691565b61029561053e565b6102e6576040805162461bcd60e51b815260206004820181905260248201527f4f776e61626c653a2063616c6c6572206973206e6f7420746865206f776e6572604482015290519081900360640190fd5b6001600160a01b03811661032b5760405162461bcd60e51b81526004018080602001828103825260238152602001806107736023913960400191505060405180910390fd5b600380546001810182557fc2575a0e9e593c00f959f8c92f12db2869c3395a3b0502d05e2516446f71f85b0180546001600160a01b039093166001600160a01b0319909316831790555460009182526004602052604090912055565b506001546001600160a01b031690565b6001600160a01b0381166000908152600460205260408120546103eb5760405162461bcd60e51b815260040180806020018281038252602481526020018061074f6024913960400191505060405180910390fd5b506001600160a01b031660009081526004602052604090205460016000199091011b1790565b6001600160a01b0381166000908152600460205260408120546104655760405162461bcd60e51b815260040180806020018281038252602481526020018061074f6024913960400191505060405180910390fd5b506001600160a01b031660009081526004602052604090205460016000199091011b191690565b61049461053e565b6104e5576040805162461bcd60e51b815260206004820181905260248201527f4f776e61626c653a2063616c6c6572206973206e6f7420746865206f776e6572604482015290519081900360640190fd5b600080546040516001600160a01b03909116907f8be0079c531659141344cd1fd0a4f28419497f9722a3daafe3b4186f6b6457e0908390a3600080546001600160a01b0319169055565b6000546001600160a01b031690565b6000546001600160a01b0316331490565b606060008060038054905067ffffffffffffffff8111801561057057600080fd5b5060405190808252806020026020018201604052801561059a578160200160208202803683370190505b50925060009050600091505b60035482101561061d576001821b84161561061257600382815481106105c857fe5b600091825260209091200154835160018301926001600160a01b0390921691859181106105f157fe5b60200260200101906001600160a01b031690816001600160a01b0316815250505b8160010191506105a6565b825250919050565b5060025490565b61063461053e565b610685576040805162461bcd60e51b815260206004820181905260248201527f4f776e61626c653a2063616c6c6572206973206e6f7420746865206f776e6572604482015290519081900360640190fd5b61068e816106ae565b50565b6001600160a01b0316600090815260046020526040902054151590565b6001600160a01b0381166106f35760405162461bcd60e51b81526004018080602001828103825260268152602001806107966026913960400191505060405180910390fd5b600080546040516001600160a01b03808516939216917f8be0079c531659141344cd1fd0a4f28419497f9722a3daafe3b4186f6b6457e091a3600080546001600160a01b0319166001600160a01b039290921691909117905556fe54657374476f7665726e616e63653a2041677265656d656e74206e6f74206c697374656454657374476f7665726e616e63653a20307820616464726573732064657465637465644f776e61626c653a206e6577206f776e657220697320746865207a65726f2061646472657373a26469706673582212204a8a1298e29fa4821a386b9f797eae2ce12bf9de09590335668f395765288b1264736f6c63430007010033",
  "immutableReferences": {},
  "sourcePath": "/home/hellwolf/Projects/superfluid/ethereum-contracts/contracts/test/TestGovernance.sol",
  "compiler": {
    "name": "solc",
    "version": "0.7.1+commit.f4a555be.Emscripten.clang"
  },
  "schemaVersion": "3.2.5",
  "updatedAt": "2020-09-28T17:04:34.340Z",
  "devdoc": {
    "kind": "dev",
    "methods": {
      "addAgreement(address)": {
        "details": "Add an agreement to the whitelist"
      },
      "isAgreementListed(address)": {
        "details": "Check if the agreement is whitelisted"
      },
      "isOwner()": {
        "details": "Returns true if the caller is the current owner."
      },
      "mapAgreements(uint256)": {
        "details": "Map list of the agreements using a bitmap",
        "params": {
          "bitmap": "Agreement class ID based bitmap"
        }
      },
      "maskAgreementBit(uint256,address)": {
        "details": "Create a new bitmask by adding agreement class to it."
      },
      "owner()": {
        "details": "Returns the address of the current owner."
      },
      "renounceOwnership()": {
        "details": "Leaves the contract without owner. It will not be possible to call `onlyOwner` functions anymore. Can only be called by the current owner. > Note: Renouncing ownership will leave the contract without an owner, thereby removing any functionality that is only available to the owner."
      },
      "transferOwnership(address)": {
        "details": "Transfers ownership of the contract to a new account (`newOwner`). Can only be called by the current owner."
      },
      "unmaskAgreementBit(uint256,address)": {
        "details": "Create a new bitmask by removing agreement class from it."
      }
    },
    "version": 1
  },
  "userdoc": {
    "kind": "user",
    "methods": {},
    "version": 1
  }
}