{
  "contractName": "TestResolver",
  "abi": [
    {
      "inputs": [
        {
          "internalType": "string",
          "name": "name",
          "type": "string"
        },
        {
          "internalType": "address",
          "name": "target",
          "type": "address"
        }
      ],
      "name": "set",
      "outputs": [],
      "stateMutability": "nonpayable",
      "type": "function"
    },
    {
      "inputs": [
        {
          "internalType": "string",
          "name": "name",
          "type": "string"
        }
      ],
      "name": "get",
      "outputs": [
        {
          "internalType": "address",
          "name": "",
          "type": "address"
        }
      ],
      "stateMutability": "view",
      "type": "function"
    }
  ],
  "bytecode": "0x608060405234801561001057600080fd5b506101fe806100206000396000f3fe608060405234801561001057600080fd5b50600436106100365760003560e01c8063693ec85e1461003b578063a815ff15146100c7575b600080fd5b6100ab6004803603602081101561005157600080fd5b81019060208101813564010000000081111561006c57600080fd5b82018360208201111561007e57600080fd5b803590602001918460018302840111640100000000831117156100a057600080fd5b509092509050610142565b604080516001600160a01b039092168252519081900360200190f35b610140600480360360408110156100dd57600080fd5b8101906020810181356401000000008111156100f857600080fd5b82018360208201111561010a57600080fd5b8035906020019184600183028401116401000000008311171561012c57600080fd5b9193509150356001600160a01b031661017b565b005b60008083836040518083838082843791909101948552505060405192839003602001909220546001600160a01b03169250505092915050565b8060008484604051808383808284379190910194855250506040519283900360200190922080546001600160a01b03949094166001600160a01b031990941693909317909255505050505056fea2646970667358221220bc0c270c69011a1dd1349d72adf18704321b7f8014403c097796f2b4fb5806a064736f6c63430007010033",
  "immutableReferences": {},
  "sourcePath": "/home/hellwolf/Projects/superfluid/ethereum-contracts/contracts/test/TestResolver.sol",
  "compiler": {
    "name": "solc",
    "version": "0.7.1+commit.f4a555be.Emscripten.clang"
  },
  "schemaVersion": "3.2.5",
  "updatedAt": "2020-09-30T18:18:27.109Z",
  "devdoc": {
    "kind": "dev",
    "methods": {
      "get(string)": {
        "details": "Get address by name."
      }
    },
    "version": 1
  },
  "userdoc": {
    "kind": "user",
    "methods": {},
    "version": 1
  }
}